:10000000B3C000000C94B01C0C94F91CCAC00000D2
:10001000C8C00000C6C00000C4C000000C94581442
:10002000C0C00000BEC00000BCC000000C940C1199
:100030000C943E26B6C00000B4C00000B2C0000060
:100040000C945927AEC000000C94A327AAC000004E
:10005000A8C00000A6C00000A4C00000A2C000000C
:100060000C94DB159EC00000005EBCE2613FDD83A6
:10007000C29C7E20A3FD1F419DC3217FFCA2401E88
:100080005F01E3BD3E6082DC237D9FC1421CFEA078
:10009000E1BF5D0380DE3C62BEE0025CDF81633D68
:1000A0007C22C09E1D43A1FF4618FAA427799BC558
:1000B00084DA3866E5BB5907DB856739BAE4065848
:1000C0001947A5FB7826C49A653BD987045AB8E638
:1000D000A7F91B45C6987A24F8A6441A99C7257B28
:1000E0003A6486D85B05E7B98CD2306EEDB3510F18
:1000F0004E10F2AC2F7193CD114FADF3702ECC9208
:10010000D38D6F31B2EC0E50AFF1134DCE90722CF7
:100110006D33D18F0C52B0EE326C8ED0530DEFB1E7
:10012000F0AE4C1291CF2D73CA947628ABF51749D7
:100130000856B4EA6937D58B5709EBB536688AD4C7
:1001400095CB2977F4AA4816E9B7550B88D6346AB7
:100150002B7597C94A14F6A8742AC896154BA9F7A7
:10016000B6E80A54D7896B3511241FBECFEFD8E00B
:10017000DEBFCDBF12E0A0E0B1E0E8E8FBE502C0E1
:1001800005900D92AC32B107D9F726E0ACE2B2E0AF
:1001900001C01D92A939B207E1F70E94DD270C9436
:1001A000C22D2ECF60E08091C6040E94BE2461E083
:1001B0008091C7040E94BE2461E08091C6040E9421
:1001C000BE2460E08091C6040E94BE2460E080915D
:1001D000C7040E94BE2488E490E00C94DD1A80934A
:1001E000C6046093C7044093E90461E070E00E9494
:1001F0006E2461E070E08091C7040E946E24D2CF2B
:10020000CF92DF92EF92FF920F931F93CF93DF93E2
:10021000182F092F80912C02811113C00E944D27A5
:100220006093D4047093D5048093D6049093D7043C
:1002300081E080932C02C12FD02F8E01025F1F4FCF
:1002400021C00E944D276093DA047093DB048093F1
:10025000DC049093DD04C090D404D090D504E090E9
:10026000D604F090D704DC01CB018C199D09AE09AE
:10027000BF09893B9B40A105B105E8F293DF1092CD
:100280002C02D9CF8AE090E00E94DD1A8091E90427
:100290000E941B258993999382E390E00E94DD1AC6
:1002A00061E08091C6040E94BE2482E190E00E9439
:1002B000DD1A60E08091C6040E94BE24C017D107F9
:1002C00009F7DF91CF911F910F91FF90EF90DF9091
:1002D000CF90089580912F0290913002A091310229
:1002E000B0913202892B8A2B8B2B09F464C080EFEA
:1002F0000E9489188DE00E94891880E00E94891868
:100300008091F0040E94891880912F028F770E94BB
:10031000891880912F0290913002A0913102B09102
:10032000320227E0B695A795979587952A95D1F73C
:100330008F770E94891880912F0290913002A091AE
:100340003102B09132023EE0B695A7959795879518
:100350003A95D1F78F770E94891880912F0290915A
:100360003002A0913102B091320245E1B695A795D5
:10037000979587954A95D1F78F770E948918809134
:100380002F0290913002A0913102B09132025CE1D3
:10039000B695A795979587955A95D1F70E94891894
:1003A00087EF0E94891810922F021092300210924B
:1003B00031021092320208950E947F1A6093EC0479
:1003C0007093ED048093EE049093EF048091F00419
:1003D0000E94EC248823D1F30E947F1A4091EC0400
:1003E0005091ED0420E73EEF241B350B620F731F85
:1003F0006D32714018F50E947F1A6093EC0470937F
:10040000ED048093EE049093EF048091F0040E9439
:10041000EC248111FACF0E947F1A2091EC043091D4
:10042000ED04621B730BCB018A5991408D329140D0
:1004300038F06E5076406D32714020F08FEF0895A5
:1004400080E0089581E008950F931F93CF93DF9389
:1004500010922F021092300210923102109232024A
:10046000C8E0D0E0A9DF81114CC02197D9F7C6E0E0
:10047000D0E0A2DF813009F044C02197D1F79CDFA2
:1004800081113FC099DF8130E1F5C0E0D0E001E0AB
:1004900010E092DF8130F9F4C8010C2E02C0880F01
:1004A000991F0A94E2F7092E000CAA0BBB0B40918E
:1004B0002F02509130026091310270913202842BF0
:1004C000952BA62BB72B80932F0290933002A093ED
:1004D0003102B09332022196C031D105D1F680911C
:1004E0002F0290913002A0913102B0913202AA27DE
:1004F000BB2780932F0290933002A0933102B093D8
:100500003202DF91CF911F910F9108950F931F93A6
:100510008093F0040E947F1A6093EC047093ED04C2
:100520008093EE049093EF048091F0040E94EC24F9
:10053000882311F10E947F1A0091EC041091ED04C0
:100540002091EE043091EF04DC01CB01801B910B74
:10055000A20BB30B813A9648A140B10528F38FEF67
:1005600090E0A0E0B0E080932F0290933002A0933F
:100570003102B09332024FC00E947F1A6093EC04A4
:100580007093ED048093EE049093EF048091F00457
:100590000E94EC248823D1F30E947F1A4091EC043E
:1005A0005091ED042EE63DED241B350B620F731FB9
:1005B0006F35714080F50E947F1A6093EC04709350
:1005C000ED048093EE049093EF048091F0040E9478
:1005D000EC248111FACF0E947F1A2091EC04309113
:1005E000ED04621B730BCB018E5F90418F35914000
:1005F00018F41F910F9128CF6C5A78406D33710514
:1006000050F48091F0040E94EC248823D1F31F91D0
:100610000F910C947F1A1F910F9108958F929F92C2
:10062000AF92BF92CF92DF92EF92FF92CF936C0185
:10063000C62F0E947F1A4B015C010D2C000CEE08A6
:10064000FF0861E08C2F0E94BE24809133029091BC
:1006500034020E94DD1A60E08C2F0E94BE2480913B
:100660003302909134020E94DD1A0E947F1ADC014D
:10067000CB0188199909AA09BB098C159D05AE05FE
:10068000BF05F8F2CF91FF90EF90DF90CF90BF9031
:10069000AF909F908F9008958F929F92AF92BF924C
:1006A000CF92DF92EF92FF926C01F62E0E947F1A9A
:1006B0004B015C0160E08F2D0E94BE240D2C000CCC
:1006C000EE08FF080E947F1ADC01CB018819990906
:1006D000AA09BB098C159D05AE05BF0598F3FF90CF
:1006E000EF90DF90CF90BF90AF909F908F90089544
:1006F000E62FF0E0E25EFE4FE0819E2F977041E032
:1007000050E09A0101C0220F9A95EAF7F0E093E0D9
:10071000F695E7959A95E1F7BF01660F771FE60F0B
:10072000F71FB096922F90953281932392839181F7
:10073000292B2183682F70E0CA010E947B2B072E92
:10074000000C880B990B0E94B22920E030E04AE7A8
:1007500054E40E94A02A20E030E040EC50E40E94E3
:10076000AF280E947F2960933302709334028093F4
:100770003502909336020895AF92BF92CF92DF92E6
:10078000EF92FF920F931F93CF936B017C01C42FC5
:100790005901642F86E2ACDF6C2F88E293E23EDFE2
:1007A0006C2F84E991E178DF00E010E06C2F80E3AA
:1007B00092E00A151B05A4F4F7FE06C02FDF6C2F8C
:1007C00080E496E069DF05C029DF6C2F80E392E0CA
:1007D00063DFCC0CDD1CEE1CFF1C0F5F1F4FE6CF50
:1007E0001DDF6C2F80E090E0CF911F910F91FF9063
:1007F000EF90DF90CF90BF90AF904ECFE82FF0E01A
:10080000EE5CFE4FE0812E2F277081E090E001C06A
:10081000880F2A95EAF7F0E093E0F695E7959A9528
:10082000E1F79F01220F331FE20FF31FB096982FBD
:1008300090952281922392839181892B81830895BF
:10084000AF92BF92CF92DF92EF92FF920F931F93DE
:10085000CF93DF936C01C62FD0E0CC0FDD1F8E014C
:100860000F5A1D4FF80180819181009729F00E9455
:10087000322DF801118210828E01095C1D4FF801A2
:1008800080819181009729F00E94322DF801118218
:1008900010829091C8048091E304981719F084E0C5
:1008A00090E002C083E090E08C9D50018D9DB00CE3
:1008B0009C9DB00C1124B092CA04A092C904C50139
:1008C0000E949A2C8C01FE01EF5AFD4F9183808388
:1008D000892BE9F0C5010E949A2C7C01FE01E95C9C
:1008E000FD4F91838083892B91F0A50160E070E03A
:1008F000C8010E94BB2DA50160E070E0C7010E9405
:10090000BB2DD092EB04C092EA0481E019C0C8016B
:100910000E94322DFE01EF5AFD4F11821082C95CF8
:10092000DD4F888199810E94322D198218821092A0
:10093000CA041092C9041092EB041092EA0480E0F9
:10094000DF91CF911F910F91FF90EF90DF90CF90AB
:10095000BF90AF90089531E02091C8049091E304D6
:10096000291330E0482F42954695469543704093B1
:10097000C804982F929593709093E304282F26959E
:10098000269523702093D10483708093DF0481E047
:100990008093E204E62FF0E0EE0FFF1FEF5AFD4FC9
:1009A0000190F081E02DEF2B49F0491380E03817DA
:1009B00029F08091EA049091EB0442CF08950F93BF
:1009C0001F93CF93C82F809132038F3F99F080916E
:1009D000E4048C130FC08091E5049091E60486171F
:1009E000970741F48091E704841304C08091E804E0
:1009F000821729F1822F8B01C093E4047093E604DF
:100A00006093E5044093E7042093E8044093DE04F8
:100A10006C2FA1DF6C2FC80113DFC82F882369F06A
:100A20008091320387FD06C0E9DE60E080913203E9
:100A30000E94BE2481E08093D9048C2F00C0CF9106
:100A40001F910F9108956111D9CEE82FF0E0EE5C6F
:100A5000FE4F8081E82FF0E093E0F695E7959A95B8
:100A6000E1F79F01220F331FE20FF31FB096282FEB
:100A7000277081E090E001C0880F2A95EAF7809501
:100A80009181982391839281892382830895CF93C2
:100A9000C82F8091D904882331F08091320387FDDB
:100AA00002C060E0D0DFC09332038091D904882374
:100AB00031F08C2FA3DE60E08C2F0E94BE248C2F9F
:100AC00090E0FC01ED5FFD4FE081F0E0EE0FFF1FD5
:100AD000E750FE4F208131813093E1042093E00400
:100AE000FC01E552FE4F80818093C104CF910895AF
:100AF0004F925F926F927F928F929F92AF92BF922E
:100B0000CF92DF92EF92FF920F931F93CF93DF93D9
:100B1000CDB7DEB729970FB6F894DEBF0FBECDBFB5
:100B2000722EC32ED42E598328E631E040E050E0E7
:100B30000E948E2B4B015C01ED82FE820F83188791
:100B40002D813E814F81588524363105410551055F
:100B500040F083E690E0A0E0B0E08D839E83AF8319
:100B6000B8878D819E81AF81B885C297A109B048B1
:100B7000880F991F97FF03C091958195910924E6ED
:100B800030E0281B390B032E000C440B550B672D4E
:100B90007C2D8D2D9981643671058105910520F09C
:100BA00063E670E080E090E00E944C2B982F872F46
:100BB000762F662720E137E240E050E00E948E2B3E
:100BC00029013A01ACE3CA2ED12CE12CF12CC5014C
:100BD000B401A70196010E948E2B29833A834B838F
:100BE0005C83998199872CE3A981BA812A9FC001EE
:100BF0002B9F900D1124092E000CAA0BBB0BA501F5
:100C00009401281B390B4A0B5B0B942F832F722FF7
:100C10006627A70196010E948E2B89818170C82EBC
:100C2000D12CDC2CCC24DA94C20ED31ED7FE03C008
:100C3000D194C194D1080D2C000CEE08FF0880E07F
:100C400091E0A0E0B0E09C01AD012C193D094E09F6
:100C50005F09C301B2010E944C2BC72ED82EE92E8A
:100C6000FF249985992379F0913081F09230B9F081
:100C70009330E1F0943011F1C982DA82EB82FC8288
:100C80005301420121C05301420104C046015701F2
:100C90007301620119821A821B821C8218C0C982E8
:100CA000DA82EB82FC827301620104C049825A82BB
:100CB0006B827C82812C912C540109C049825A821A
:100CC0006B827C8246015701C12CD12C76018D812B
:100CD0009E81AF81B885880F991FAA1FBB1F662709
:100CE000782F892F9A2F24E630E040E050E00E94D0
:100CF0008E2BDA01C90184199509A609B7098C015F
:100D00009D013695279517950795D501C401800F4C
:100D1000911FA21FB31F9927AA27BB27DC01992780
:100D20008827C00ED11EE21EF31EFE2CED2CDC2CFB
:100D3000CC24EE24FF248C299D29AE29BF2949818A
:100D40005A816B817C81400F511F621F731FBC0150
:100D5000CD01642B29960FB6F894DEBF0FBECDBF30
:100D6000DF91CF911F910F91FF90EF90DF90CF9087
:100D7000BF90AF909F908F907F906F905F904F90BB
:100D80000895CF932091EA043091EB046217730722
:100D900008F058C02091C804C091E30490E050913D
:100DA000D104A22FB0E04091DF04880F991FFC010D
:100DB0002C1322C0E95CFD4F9B01220F331F620FF1
:100DC000731F20813181260F371FF901E50FF11DB7
:100DD0005081A20FB31F6C91862F90E0A0E0B0E08D
:100DE000DC0199278827952BF901E40FF11D20815B
:100DF000BC01CD01622B29C0EF5AFD4F660F771F52
:100E0000660F771F20813181260F371FA20FB31F76
:100E1000EC91D901AC0FB11D6C91862F90E0A0E050
:100E2000B0E0DC0199278827BE2BF901E40FF11D02
:100E30004081842BF901E50FF11D2081BC01CD011A
:100E4000722B03C060E070E0CB01CF9108951F9337
:100E5000CF93DF93CDB7DEB729970FB6F894DEBFF7
:100E60000FBECDBF182F13DE8091C9049091CA0424
:100E70009A838983E12FF0E0EE0FFF1FEF5AFD4FB9
:100E80000190F081E02DDF0111968081898790919A
:100E9000E204E091E004F091E1048091C10499231F
:100EA00009F436C09081982B98879081809589238A
:100EB0008F838F818E8388E08D83F89458856F812E
:100EC000E091E004F091E10449853D812E81898122
:100ED0009A81508347FD252F3A952083262F39F09C
:100EE000441F00C000006083000000C0F2CF38E063
:100EF0004D9160830000019761F7F093E104E09366
:100F0000E00449873D832E839A83898378943AC08D
:100F10009081982B98879081809589238F838F81EA
:100F20008C8388E08B8358856F8149853B812C8138
:100F300089819A81508347FD252F00C000C02083FE
:100F400000C000C000C000C000C060830000262FA9
:100F50003A9541F0441F000000C000C000C000C02E
:100F600000C0E8CF38E04D9100C0608300C0019719
:100F700009F7F093E104E093E00449873B832C8375
:100F80009A83898329960FB6F894DEBF0FBECDBF32
:100F9000DF91CF911F910895CF92DF92EF92FF9250
:100FA0000F931F93CF93DF936093DE042091EA04A5
:100FB0003091EB04232B09F461C0A0E0B0E0C0E065
:100FC000D0E0E82FF0E0EE0FFF1F8F010F5A1D4F0A
:100FD0009F01295C3D4F69012091EA043091EB04A7
:100FE000C217D30708F041C0F801408151817A014E
:100FF000EA0EFB1EF601208131812A0F3B1F409132
:10100000E30450E0B901640F751FFB01908160910A
:10101000DE044E0D5F1D969FB0011124FA0170830E
:101020006091D10470E0A901460F571FFA01908129
:101030004091DE046E0D7F1D949FA0011124FB01E1
:1010400050839091DF04492F50E0240F351FF901A0
:1010500090812091DE044E0D5F1D929F900111241E
:10106000FA01308321961396B7CFDF91CF911F916C
:101070000F91FF90EF90DF90CF90E9CEDF91CF916D
:101080001F910F91FF90EF90DF90CF9008954F92B6
:101090005F926F927F928F929F92AF92BF92CF9208
:1010A000DF92EF92FF920F931F93CF93DF9369012B
:1010B0007A01902F2091EA043091EB0462177307B4
:1010C00008F093C08701222733274D2C5E2C6F2C0C
:1010D0007724A091C804E091E304482F50E0AE13B8
:1010E00017C0FB01EE0FFF1F6E0F7F1F440F551F30
:1010F000FA01EF5AFD4F0190F081E02DE60FF71F46
:10110000DA01A95CBD4F4D915C91640F751F3FC022
:10111000660F771F660F771F440F551FFA01EF5AAE
:10112000FD4F0190F081E02DE60FF71FEA01C95C49
:10113000DD4F48815981640F751F8F2C9924AA2493
:10114000BB24EF01CA0FD11D4091DE04442351F0AE
:1011500050E0489DD001499DB00D589DB00D11241F
:101160004B2F01C0482D48834091C804EB01C40FA8
:10117000D11D4091DE04442349F050E0489DD00148
:10118000499DB00D589DB00D11248B2E8882409141
:10119000E304DB01A40FB11D0C934091D104DB01EA
:1011A000A40FB11D4C924091DF04DB01A40FB11DCF
:1011B000CC924091DE04049F80011124449D2001C3
:1011C00011244C9D600111242091E304DF01A20F42
:1011D000B11D1C932091D104DF01A20FB11D5C92BF
:1011E0002091DF04E20FF11DD082992389F0DF9175
:1011F000CF911F910F91FF90EF90DF90CF90BF9014
:10120000AF909F908F907F906F905F904F901FCE88
:10121000DF91CF911F910F91FF90EF90DF90CF90D2
:10122000BF90AF909F908F907F906F905F904F9006
:1012300008958F929F92AF92BF92DF92EF92FF92AA
:101240000F931F93CF93DF93D82E480159018091BC
:10125000EA049091EB0477FD02C057FF05C0AC0192
:101260004150510960E070E0461757072CF4362FC3
:10127000272FBA01432F522F009769F177FF02C041
:1012800060E070E07B018617970708F47C0157FF48
:1012900002C040E050E08417950708F4AC01EA0171
:1012A0002196EC16FD0650F400E0A5019401B7016B
:1012B0008D2DEDDE8FEFE81AF80AF3CF8D2DDF913B
:1012C000CF911F910F91FF90EF90DF90BF90AF9063
:1012D0009F908F90BCCDDF91CF911F910F91FF9088
:1012E000EF90DF90BF90AF909F908F9008951F93E5
:1012F000CF93DF932091EA043091EB04232B19F173
:10130000182FC82FD0E0CC0FDD1FFE01EF5AFD4F84
:101310004091C9045091CA0460E070E080819181DD
:101320000E94BB2DC95CDD4F4091C9045091CA0495
:1013300060E070E0888199810E94BB2D812FDF9150
:10134000CF911F9184CDDF91CF911F9108952F925E
:101350003F924F925F926F927F928F929F92AF9245
:10136000BF92CF92DF92EF92FF920F931F93CF9392
:10137000DF9300D000D01F92CDB7DEB7898348013C
:101380005901160127014617570728F4962F872F72
:10139000BA01492F582F8091EA049091EB040097ED
:1013A00009F4C9C07D836C838617970710F49D8369
:1013B0008C838417950708F4AC014F5F5F4F9A0147
:1013C0008C819D81281B390B3B832A83C10188595D
:1013D0009E4F8819990968E671E00E94672B9C016D
:1013E00044E6429FC001439F900D11246A817B8196
:1013F0000E94672B6B018A819B810197A9F4860E5D
:10140000971EB40180E090E012E3E12EF12C00E0A1
:1014100010E024E630E040E050E06ADB9B01AC01E4
:1014200000E06C817D816CC012E3E12EF12C00E0C4
:1014300010E024E630E040E050E0C501B40158DBA4
:101440009B01AC0100E06C817D81898120DE6C8094
:101450007D809FEF691A790AC69C9001C79C300D68
:10146000D69C300D11242C193D0944E6489DC0013D
:10147000499D900D11244901880E991EA12CB12C73
:101480008C819D8101972A813B81820F931F9B83D1
:101490008A83AC0CBD1C8A819B8168167906F8F49E
:1014A000C501880D991D64E670E00E94672B68599C
:1014B0007E4F80E090E012E3E12EF12C00E010E09E
:1014C00024E630E040E050E013DB9B01AC0100E09B
:1014D000B3018981DCDD3FEF631A730ADACF12E3CF
:1014E000E12EF12C00E010E024E630E040E050E096
:1014F000C201B101FDDA9B01AC0100E06A817B8190
:101500008981C5DD89810F900F900F900F900F900A
:10151000DF91CF911F910F91FF90EF90DF90CF90CF
:10152000BF90AF909F908F907F906F905F904F9003
:101530003F902F908CCC0F900F900F900F900F90AA
:10154000DF91CF911F910F91FF90EF90DF90CF909F
:10155000BF90AF909F908F907F906F905F904F90D3
:101560003F902F900895AF92BF92CF92DF92EF926B
:10157000FF920F931F93CF93DF93662309F46BC001
:10158000C091EA04D091EB04209709F464C0C62E00
:10159000062E000CDD08CC15DD0558F4DF91CF9147
:1015A0001F910F91FF90EF90DF90CF90BF90AF9081
:1015B0009ECE182F161634F0A12CB12C7E01EC0C07
:1015C000FD1C29C02197CC15DD0564F0BE016C1906
:1015D0007D09812FD6DB9B01AC0100E0BE01812F8C
:1015E00056DDF0CFC0E0D0E000E020E030E0A9011F
:1015F000BE01812F4CDD2196CC16DD06A9F7812F87
:10160000DF91CF911F910F91FF90EF90DF90CF90DE
:10161000BF90AF901CCCEA14FB0478F0B5016C19B4
:101620007D09812FAEDB9B01AC0100E0B501812F6C
:101630002EDD8FEFA81AB80AEECFEC16FD06F8F6ED
:1016400000E020E030E0A901B701812F20DD8FEF1D
:10165000E81AF80AF2CFDF91CF911F910F91FF9016
:10166000EF90DF90CF90BF90AF9008952F923F9270
:101670004F925F926F927F928F929F92AF92BF92A2
:10168000CF92DF92EF92FF920F931F93CF93DF934E
:1016900000D0CDB7DEB7382E2DB73EB73A832983B9
:1016A000662309F4D9C0E090EA04F090EB04E11459
:1016B000F10409F4D1C0862F660F990BB7010E947F
:1016C000672B282EC82E082E000CDD084DB65EB6FE
:1016D00018160CF04EC0C601880F991F880F991F6D
:1016E000EDB7FEB7E81BF90B0FB6F894FEBF0FBEBF
:1016F000EDBF2DB73EB72F5F3F4F3901590100E0D5
:1017000010E047018C189D08B401600F711F832DF4
:1017100038DBF50161937193819391935F010F5FC2
:101720001F4F0C151D0584F3F1E0EF1AF108EC14BE
:10173000FD0464F0B7016C197D09832D22DB9B0148
:10174000AC0100E0B701832DA2DCEECFE12CF12C3F
:10175000F30121913191419151913F0100E0B70195
:10176000832D95DCFFEFEF1AFF0AEC14FD0484F3E0
:101770006CC0D194C194D108C601880F991F880FFD
:10178000991F2DB73EB7281B390B0FB6F8943EBFF3
:101790000FBE2DBF8DB79EB701963C018C01A12CC9
:1017A000B12CAC14BD0469F0B501832DEADAF8015F
:1017B00061937193819391938F01FFEFAF1ABF0AE9
:1017C000F0CF812C912CA22C220CBB086701CA0CF3
:1017D000DB1CC814D90478F0B4016A197B09832D85
:1017E000D0DA9B01AC0100E0B401832D50DC2FEF77
:1017F000821A920AEECF8FEF9FE3E89E4001E99EA6
:10180000900CF89E900C11248A189B088C0C9D1C3F
:10181000880C991C880C991CA12CB12CCE14DF04C7
:10182000A0F4F501E80DF91DE60DF71D20813181C9
:101830004281538100E0B601832D29DC3FEFC31ABA
:10184000D30A84E0A80EB11CE9CF0FB6F8945EBEAF
:101850000FBE4DBE832DFBDAE981FA810FB6F894F5
:10186000FEBF0FBEEDBF0F900F90DF91CF911F9184
:101870000F91FF90EF90DF90CF90BF90AF909F902F
:101880008F907F906F905F904F903F902F90089532
:101890002F923F924F925F927F928F929F92AF9240
:1018A000BF92CF92DF92EF92FF920F931F93CF934D
:1018B000DF9300D000D0CDB7DEB7782E7C836B836A
:1018C000B8018B819C814817590730F49B818C812A
:1018D0005C834B83492F582F8091EA049091EB044D
:1018E000009709F49DC0EB81FC818E179F0710F4CF
:1018F0009C838B838417950708F4AC011616170692
:1019000064F0872DF4DC00E020E03FEF4FEF50E083
:101910006B817C81872DBBDB67C0CA01EB81FC81B9
:101920008E1B9F0B9A8389836C01FFEFCF1ADF0A0E
:10193000A90137FF03C05195419551094C9DC00144
:101940004D9D900D5C9D900D11240E94672B4B01C5
:10195000672B49F0A12CB12CE12CF12C212C312C3E
:1019600021012A943EC0EE24E394F12CEC14FD04F2
:10197000D8F56B817C816E0D7F1D00E020E030E0AA
:10198000A901872D84DB8FEFE81AF80AEFCFE8145E
:10199000F90408F040C0C50169817A810E94672B73
:1019A0009B013327C901A0E0B0E09C01112700276B
:1019B000D201C101861B970BA109B109A9019801A8
:1019C000282B00E06B817C81872D61DB9FEFE91A7A
:1019D000F90AEFEFAE0EB11C8B819C8101969C83BE
:1019E0008B83EC14FD0498F2872D0F900F900F90CD
:1019F0000F90DF91CF911F910F91FF90EF90DF90AB
:101A0000CF90BF90AF909F908F907F905F904F90BE
:101A10003F902F901CCA00E020E030E0A901D2CF17
:101A20000F900F900F900F90DF91CF911F910F911A
:101A3000FF90EF90DF90CF90BF90AF909F908F90EE
:101A40007F905F904F903F902F90089504C0615019
:101A50007109810991096115710581059105B9F730
:101A60000895AF92BF92CF92DF92EF92FF920F93C1
:101A70001F93CF93DF931092F1041092F20410920F
:101A8000F3041092F4041092F504FC01E450FB4FAF
:101A9000C081FC01EE5FFA4FD08161E070E08C2FD5
:101AA0000E946E2460E08C2F0E94BE24DD2371F121
:101AB000A12C24E2B22E34EFC32ED12CE12CF12C38
:101AC00000E010E02D2F30E040E050E060E070E0FA
:101AD00080E090E00E94EB2BE6E0AE2EB12CC12C12
:101AE0000E943E2C29513C4F4F4F5F4F6F4F7F4F0D
:101AF0008F4F9F4F0E94ED2920E030E04AE754E4E9
:101B00000E9417290E948429A1DF05C063E070E0CC
:101B100080E090E09BDF60E070E08C2F0E946E24FC
:101B200088E290E00E94DD1A00E911E08C2F0E940B
:101B3000EC24811106C001501109C1F78EEF9FEF0F
:101B400049C000E911E08C2F0E94EC24882321F089
:101B500001501109C1F7F2CF18E200E0D0E890E996
:101B6000E92EFF24F3948C2F0E94EC24811105C0F0
:101B700081E0E81AF108B9F7E1CF0E947F1A6B0102
:101B80007C0180E9A82EBB24B3948C2F0E94EC2406
:101B9000882329F081E0A81AB108B9F7CFCF0E94B5
:101BA0007F1ADC01CB018C199D09AE09BF09899709
:101BB000A105B10538F0E02FF0E0EF50FB4F808138
:101BC0008D2B8083D69511F40F5FD0E8115039F634
:101BD00080E090E0DF91CF911F910F91FF90EF9007
:101BE000DF90CF90BF90AF9008951092150510929E
:101BF000140510921205E2E1F5E0129285E0EA3058
:101C0000F807D9F70895CF93C82F60E00E94230505
:101C10008C2F90E0FC01E552FE4F208120931305AC
:101C2000FC01ED5FFD4FE081F0E0EE0FFF1FE151A1
:101C3000FE4F808191819093090580930805D5DF3F
:101C4000CF910895FF920F931F93CF93DF93F0905E
:101C50001305C0910805D0910905F89489810F2DCD
:101C600000958023898378941DE7115029F182E043
:101C700090E00E94DD1A88818F21B9F3F8948A815F
:101C800080238A8389818F298983789480EE91E0EB
:101C90000E94DD1AF89489810823098386E490E084
:101CA0000E94DD1A8881F82211E009F010E0789492
:101CB0008AE991E00E94DD1A812FDF91CF911F9177
:101CC0000F91FF9008950F931F93CF93DF9300918F
:101CD0001305C0910805D0910905F8948981802BDE
:101CE00089838A81102F109581238A8383E090E075
:101CF0000E94DD1A8981182319838AE090E00E94EE
:101D0000DD1AC881789485E390E00E94DD1AC02333
:101D100081E009F480E0DF91CF911F910F91089548
:101D20000F931F93CF93DF9308E010E0C0E0D1E062
:101D3000CADF8111CD2BDD0F01501109C9F78C2F9E
:101D4000DF91CF911F910F9108951F93CF93DF9350
:101D500010911305C0910805D0910905912F909518
:101D600080FF16C0F8948A8189238A838981812B18
:101D700089838AE090E00E94DD1A8A81182B1A83F9
:101D8000789487E390E0DF91CF911F910C94DD1A56
:101D9000F8948A8189238A838981812B898381E4CC
:101DA00090E00E94DD1A8A81182B1A83789485E0CE
:101DB00090E0DF91CF911F910C94DD1AFF920F9369
:101DC0001F93CF93DF93F82E062FC8E0D0E011E0E9
:101DD00081E09F2D912309F480E0B7DF110F219757
:101DE000B9F7011113C0F894E0910805F0910905C5
:101DF000918180911305809598239183E091080546
:101E0000F09109059281892382837894DF91CF91A3
:101E10001F910F91FF9008950F931F93CF93DF931E
:101E20008C0160E085E5CADFE801085F1F4F60E0D4
:101E30008991C4DFC017D107D1F7DF91CF911F91EE
:101E40000F910895DF92EF92FF920F931F93CF931C
:101E5000DF9320911405211104C07C01F3DE811170
:101E600008C010921505109214051092120580E01A
:101E70005BC060E080EFA2DFD1E000E0D12CC1E0E8
:101E800022DF182F20DF113019F48130C1F432C065
:101E9000202F30E018131DC080911505C81738F4A5
:101EA000F901E65FFA4F80818D2349F402C0C8171B
:101EB00031F010E0C93060F4C093120509C0E02F82
:101EC000F0E0E65FFA4F80818D2B808311E009C03E
:101ED000DC2EF901E65FFA4F80812D2F2095282313
:101EE0002083812F32DFCF5FDD0F11F40F5FD1E050
:101EF000083030F2C13408F4B4CFD0921505D110B7
:101F000003C081E08093140580910A05882309F4B9
:101F1000A8CFAAE0B5E0F70182E195E02D912193E9
:101F20008A179B07D9F781E0DF91CF911F910F911D
:101F3000FF90EF90DF900895DC0180E0615040F069
:101F40009D91E82FE927F0E0E859FF4F8491F6CF03
:101F50000895AF92BF92CF92DF92EF92FF920F93CC
:101F60001F93CF93DF93CDB7DEB764970FB6F89486
:101F7000DEBF0FBECDBF5C01CE010D9663DF8111C8
:101F800002C033DE32C067E0CE010D96D5DF9C89FA
:101F900089132BC08D85803111F0883231F552DEE6
:101FA000CE010D9639DF61E084E408DF4BDECE011F
:101FB0000D9632DF60E08EEB01DF8E010F5F1F4F69
:101FC0006E018AE0C80ED11C7801AADED7018D937C
:101FD0007D01AC15BD05C9F708DEF501D8018D916D
:101FE0008D018193CA16DB06C9F764960FB6F89483
:101FF000DEBF0FBECDBFDF91CF911F910F91FF903C
:10200000EF90DF90CF90BF90AF9008958F929F9206
:10201000AF92BF92DF92EF92FF920F931F93CF93F5
:10202000DF9300D01F92CDB7DEB7809119050E94D3
:10203000EC24882339F061E070E080E090E00E94B9
:10204000A41AF3CF8E010F5F1F4F53E0D52E812CC2
:10205000912C5401839447E0E42EF12C61E08091AF
:1020600016050E94BE24809119050E94EC24882345
:1020700079F0F8012281D501C4010E2C04C0880F2B
:10208000991FAA1FBB1F0A94D2F7822B82830FC00D
:10209000D501C4010E2C04C0880F991FAA1FBB1FB5
:1020A0000A94D2F78095F80192818923828360E0B7
:1020B000809116050E94BE24F1E0EF1AF10870F637
:1020C000DA9401501109D110C6CF61E08091160554
:1020D0000E94BE2460E0809116050E94BE242B81E0
:1020E0006A81862F90E0A0E0B0E0BA2FA92F982F48
:1020F0008827A22B2981822BBC01CD0180580F900B
:102100000F900F90DF91CF911F910F91FF90EF9063
:10211000DF90BF90AF909F908F900895CF92DF9205
:10212000EF92FF92CF93C9E1C12CD12C76016EDFE3
:10213000C60ED71EE81EF91EC150C9F7C701B60169
:1021400029E130E040E050E00E94B02BCA01B90123
:10215000CF91FF90EF90DF90CF900895CF93DF93D2
:10216000962FEA01809319056093160561E070E0EF
:10217000892F0E946E2460E070E0809119050E9412
:102180006E2461E0809116050E94BE2484E690E0F2
:102190000E94DD1A60E0809116050E94BE24BEDF19
:1021A000BDDF60931A0570931B0580931C05909307
:1021B0001D05D0931805C0931705DF91CF910895A1
:1021C000CF92DF92EF92FF9220911905FC012083BC
:1021D000A5DFC0901A05D0901B05E0901C05F0907B
:1021E0001D056C197D098E099F090E94B2296B019A
:1021F0007C01609117057091180580E090E00E94C5
:10220000B0299B01AC01C701B6010E941729FF90BC
:10221000EF90DF90CF9008951F920F920FB60F921C
:1022200011242F933F934F935F936F937F938F93DB
:102230009F93AF93BF93EF93FF938091880287FFA3
:1022400005C010928500109284002DC02091880254
:10225000022E000C330B8091060190E028173907FD
:1022600014F580918802082E000C990BFC01EE0FEA
:10227000FF1F8E0F9F1FFC01E757FD4F808186FFD8
:1022800012C080918802082E000C990BFC01EE0F01
:10229000FF1F8E0F9F1FFC01E757FD4F808160E0FD
:1022A0008F730E94BE24809188028F5F8093880282
:1022B00020918802022E000C330B8091060190E0E1
:1022C000281739070CF040C0809188028C30E4F563
:1022D000209184003091850080918802082E000CA6
:1022E000990BFC01EE0FFF1F8E0F9F1FFC01E7579C
:1022F000FD4F81819281820F931F9093890080937B
:10230000880080918802082E000C990BFC01EE0FCA
:10231000FF1F8E0F9F1FFC01E757FD4F808186FF37
:102320002EC080918802082E000C990BFC01EE0F44
:10233000FF1F8E0F9F1FFC01E757FD4F808161E05B
:102340008F730E94BE241BC08091840090918500F1
:10235000049680349C4938F480E49CE99093890089
:102360008093880009C08091840090918500049634
:1023700090938900809388008FEF80938802FF916B
:10238000EF91BF91AF919F918F917F916F915F91ED
:102390004F913F912F910F900FBE0F901F90189566
:1023A000EF92FF920F931F93CF93DF939091870249
:1023B0009C3008F076C08A017B01C82F61E070E094
:1023C0000E946E2480918702E82FF0E09F01220F87
:1023D000331FE20FF31FE757FD4F2C2F2F73908110
:1023E000907C922B908320E232E02E193F0937FF38
:1023F00002C02D5F3F4F3595279535952795209342
:10240000860220E639E0201B310B37FF02C02D5F2A
:102410003F4F3595279535952795209385022CE0DC
:10242000622F0E945B2B289FB001112440E050E0F6
:102430009B01240F351FF901EE0FFF1F2E0F3F1FC9
:10244000F901E757FD4F908196FD16C04F5F5F4F32
:102450004C30510569F781110FC01092800082E065
:10246000809381001092850010928400B19A80912F
:102470006F00826080936F0090918702E92FF0E0F7
:102480009F01220F331FE20FF31FE757FD4F80819B
:1024900080648083D0E0CD58DD4F98839F5F909318
:1024A000870280918702DF91CF911F910F91FF905A
:1024B000EF900895DC01E62FF0E0ED58FD4F6081CC
:1024C0006C3008F043C08091860228E830E0281B79
:1024D000310987FD3395C901880F991F880F991F0E
:1024E000A817B9078CF08091850248E552E0481B97
:1024F000510987FD5395440F551F440F551FCD01BA
:102500004A175B070CF4CA0102974FB7F894262FBD
:1025100030E0092E000CAA0BBB0B54E0880F991F6A
:10252000AA1FBB1F5A95D1F763E0B695A79597955B
:1025300087956A95D1F7F901EE0FFF1F2E0F3F1F08
:10254000F901E757FD4F928381834FBF0895CF92E2
:10255000DF92EF92FF92CF93C62F803222E0920754
:102560000CF03FC097FD06C0853B91052CF084EB35
:1025700090E002C080E090E02091860248E850E0C0
:102580006A01C21AD10827FDD394CC0CDD1CCC0CF7
:10259000DD1C0D2C000CEE08FF084091850228E59B
:1025A00032E0241B310947FD3395220F331F220FE0
:1025B000331FA901330F660B770B9A01AB012C195E
:1025C0003D094E095F09DC010E94E52B24EB30E058
:1025D00040E050E00E94B02BC20ED31EE41EF51E58
:1025E000C6016C2FCF91FF90EF90DF90CF9062CF1C
:1025F0008CE08093060180E090E028EB3BE0FC015A
:10260000EE0FFF1FE80FF91FE757FD4F32832183BD
:1026100001968C30910599F708958F929F92AF9211
:10262000BF92CF92DF92EF92FF921F93CF93DF93EF
:1026300090910701891759F19F3F09F013C18093C9
:1026400007011092B0001092B1009091B00092601A
:102650009093B0009091B10091609093B100A82F39
:10266000B0E0FD01ED5FFD4FE081F0E0EE0FFF1FF8
:10267000E750FE4F0190F081E02DF0931F05E093AD
:102680001E05FD01E552FE4F908190932005490102
:102690005A01EB01182F61E070E00E946E249E0148
:1026A00040E050E060E074E284EF90E00E948E2B06
:1026B00069017A01F694E794D794C79481E0C81A27
:1026C000D108E108F1088FEFC816D104E104F10444
:1026D00009F008F4BFC069017A01F4E0F694E794C8
:1026E000D794C794FA95D1F781E0C81AD108E108C8
:1026F000F1088FEFC816D104E104F104C1F0B8F07D
:1027000069017A01E6E0F694E794D794C794EA95D4
:10271000D1F781E0C81AD108E108F1088FEFC81697
:10272000D104E104F10409F020F493E050C092E0F8
:102730004EC069017A0187E0F694E794D794C79474
:102740008A95D1F781E0C81AD108E108F1088FEF26
:10275000C816D104E104F10409F008F481C0C32EC5
:10276000D42EE52EFF2481E0C81AD108E108F10833
:102770008FEFC816D104E104F10409F008F46CC02D
:1027800069017A0169E0F694E794D794C7946A9551
:10279000D1F781E0C81AD108E108F1088FEFC81617
:1027A000D104E104F10409F008F458C0DA01C901C8
:1027B0003BE0B695A795979587953A95D1F76C012B
:1027C0007D0121E0C21AD108E108F10897E080916B
:1027D000B100887F982B9093B1002097A1F480914D
:1027E00070008D7F8093700060E0812FDF91CF912A
:1027F0001F91FF90EF90DF90CF90BF90AF909F9090
:102800008F900C94BE2481149104A104B10471F042
:10281000DE01AA0FBB1FA50194010E94DB2B28EE4D
:1028200033E040E050E00E948E2B04C020E03AEC00
:102830004AE95BE3C092B300209328053093290551
:1028400040932A0550932B058091700082608093FD
:10285000700008C091E0BBCF95E0B9CF96E0B7CF4C
:1028600094E0B5CFDF91CF911F91FF90EF90DF9073
:10287000CF90BF90AF909F908F9008959091070157
:10288000891313C09FEF90930701909170009D7F73
:102890009093700091E09093B0009091B100987780
:1028A00094609093B1001092B30060E00C94BE2449
:1028B0001F920F920FB60F9211242F933F934F93B5
:1028C0005F936F937F938F939F93AF93BF93EF9398
:1028D000FF938091280590912905A0912A05B09138
:1028E0002B05892B8A2B8B2B51F190912005E091A0
:1028F0001E05F0911F05808189278083809128051E
:1029000090912905A0912A05B0912B05181619065A
:102910001A061B06BCF48091280590912905A09108
:102920002A05B0912B050197A109B10980932805CB
:1029300090932905A0932A05B0932B0503C080919D
:1029400007019CDFFF91EF91BF91AF919F918F9114
:102950007F916F915F914F913F912F910F900FBE9B
:102960000F901F901895AC01E0916E05F0916F05E6
:102970003097E1F09091B2028091B1029817B0F0D7
:1029800090E0292F30E02617370754F4DA01A20F20
:10299000B31F8C91D901A25DBA4F8C939F5FF1CF89
:1029A0001092B2026093B102CB0109940895E091B4
:1029B0002C05F0912D05309729F01092AF0210925E
:1029C000AE02099408951092200381E080931E03C3
:1029D00010921D0361E082E10E94BE2461E083E168
:1029E0000E94BE24E9EBF0E080818E7F80838081AD
:1029F0008D7F808388E48093B80085E48093BC0059
:102A00000895413208F045C0909120039111FCCF08
:102A100091E09093200320931E032FEF2093B302A5
:102A20001092F802240F2093F70290931F039091C5
:102A30001F03880F892B80931F0380911D03813012
:102A400071F410921D0380911F038093BB0080914D
:102A5000BC0083FDF8CF85EC8093BC0003C085EEFD
:102A60008093BC00809120038130E1F38091F802D3
:102A7000841710F44091F802A9EFB2E0962FFB0101
:102A80008E2F891B841718F48D918193F9CF842F91
:102A9000089580E008950F93413208F04CC0909162
:102AA00020039111FCCF32E03093200300931E03EA
:102AB0003FEF3093B3021092F8024093F702562F83
:102AC000A9EFB2E0FB013E2F351B341718F431910A
:102AD0003D93F9CF10921F0330911F03880F832B72
:102AE00080931F0380911D03813071F410921D03A8
:102AF00080911F038093BB008091BC0083FDF8CFC1
:102B000085EC8093BC0003C085EE8093BC0022233B
:102B100021F0809120038230D1F38091B3028F3F66
:102B200079F08091B302803241F08091B30280331A
:102B300031F094E005C091E003C092E001C093E061
:102B4000892F0F9108954091D502262F30E0240F50
:102B5000311D21323105DCF4209120032430C9F4E9
:102B6000FC0180E090E0861758F43091D502219165
:102B7000DC01A952BD4FA30FB11D2C930196F3CFD9
:102B80008091D502680F6093D50280E0089581E0BE
:102B9000089582E0089585ED8093BC008091BC008B
:102BA00084FDFCCF10922003089585EC8093BC0037
:102BB0001092200308951F920F920FB60F921124C6
:102BC0002F933F934F935F936F937F938F939F9335
:102BD000AF93BF93EF93FF938091B900887F8036C6
:102BE00009F4ACC070F5883209F461C090F480310A
:102BF00009F455C038F4882309F40BC1883009F46E
:102C00004EC00AC1883109F452C0803209F465C04F
:102C100003C1803409F471C050F4803309F45DC0FD
:102C2000883309F0F9C08093B302BFDFF5C0803567
:102C300009F457C0883509F468C0883409F0ECC03D
:102C4000EAC0883909F4DBC0A8F4883709F476C0F3
:102C500038F4883609F472C0803709F46FC0DCC0DC
:102C6000883809F4CCC0803909F471C0803809F083
:102C7000D3C06DC0803B09F497C038F4803A09F4A2
:102C80007BC0883A09F490C0C7C0803C09F4BBC03F
:102C9000883C09F4B8C0883B09F49BC0BDC0809152
:102CA0001F038093BB0085EC8093BC00B5C090915E
:102CB000F8028091F7029817A0F5E091F80281E000
:102CC0008E0F8093F802F0E0E750FD4F80818093F3
:102CD000BB0085EC8093BC009FC08093B3025BDF98
:102CE0009BC0E091F80281E08E0F8093F802809102
:102CF000BB00F0E0E750FD4F80839091F802809197
:102D0000F702981708F07BC076C0E091F80281E0E6
:102D10008E0F8093F8028091BB00F0E0E750FD4FEA
:102D2000808380911E03811176C081E080931D0312
:102D300084EA8093BC00109220036EC083E08093ED
:102D400020031092B40285EC8093BC0065C0809192
:102D5000B402803208F053C0E091B40281E08E0FDB
:102D60008093B4028091BB00F0E0EB54FD4F808370
:102D700085EC8093BC0050C018DF8091B402803293
:102D800030F4E091B402F0E0EB54FD4F108260911A
:102D9000B40270E0E0911903F0911A0385EB92E020
:102DA00009951092B40238C084E0809320031092F9
:102DB000D6021092D502E0911B03F0911C030995F5
:102DC0008091D502811105C081E08093D5021092D7
:102DD000D702E091D60281E08E0F8093D602F0E018
:102DE000E952FD4F80818093BB009091D602809183
:102DF000D502981720F485EC8093BC000DC085E8BF
:102E00008093BC0009C085EC8093BC001092200325
:102E100003C01092B302BFDEFF91EF91BF91AF915B
:102E20009F918F917F916F915F914F913F912F91E2
:102E30000F900FBE0F901F9018951092B202109233
:102E4000B1021092AF021092AE02BDDD87ED94E1A7
:102E500090931C0380931B0383EB94E190931A03DC
:102E6000809319030895462F613208F040E221E073
:102E70006EE275E0C6DD1092B2028093B102089551
:102E800091E09093AD028093B0021092AF02109245
:102E9000AE0208950F93CF93C82F0C2F21E04091DD
:102EA000AE026EE475E08091B002F5DD9091AE0265
:102EB000992311F08111F1CF1092AF021092AE025E
:102EC0001092AD02CF910F910895CF93DF931F928F
:102ED000CDB7DEB789838091AD028823A1F08091C0
:102EE000AE028032B8F48091AF02E82FF0E0E25BEE
:102EF000FA4F998190838F5F8093AF028093AE02E7
:102F000081E090E009C061E0CE0101961CDE81E025
:102F100090E002C080E090E00F90DF91CF910895A3
:102F20008091B10290E02091B202821B9109089534
:102F30009091B2028091B102981750F4E92FF0E01D
:102F4000E25DFA4F208130E09F5F9093B20202C0B1
:102F50002FEF3FEFC90108958F929F92AF92BF92DA
:102F6000CF92DF92EF92FF92CF93DF9390E0FC013C
:102F7000E257FA4FC081FC01E059FA4FD081880F27
:102F8000991F880F991FFC01EA58FA4FC080D18021
:102F9000E280F3802C2F277081E090E0AC0102C02A
:102FA000440F551F2A95E2F79A01EC2FF0E033E029
:102FB000F695E7953A95E1F7AF01440F551FE40FF9
:102FC000F51FB096322F3095428134233283318100
:102FD000232B2183ED2FF0E073E0F695E7957A95AA
:102FE000E1F79F01220F331FE20FF31FB0962D2F41
:102FF000277001C0880F2A95EAF780959181982360
:10300000918392818923828360E08C2F0E94BE2469
:1030100082E090E0D2D261E08C2F0E94BE248AE050
:1030200090E0CBD260E08C2F0E94BE2468D24B018E
:103030005C018D2F0E94EC24882321F060D24B018B
:103040005C0119C05CD2DC01CB0188199909AA097D
:10305000BB09C816D906EA06FB0658F7EFCF4FD2D0
:10306000DC01CB0188199909AA09BB09C816D90640
:10307000EA06FB0628F08D2F0E94EC248111EFCF89
:103080003ED2681979098A099B0928E330E040E0BB
:1030900050E00E948E2BC901DF91CF91FF90EF90FD
:1030A000DF90CF90BF90AF909F908F900895CF9377
:1030B000DF931F92CDB7DEB78FB78983F8948981EC
:1030C0005F9350E85093610050E0509361005F912E
:1030D0008FBF0F90DF91CF910895CF93DF931F9211
:1030E000CDB7DEB79FB79983F8949981811106C057
:1030F0006095809164006823609364009FBF0F9087
:10310000DF91CF9108958091C000881F8827881F84
:1031100008959091C00095FFFCCF8093C60080E099
:1031200008958091C60008954F925F926F927F92AA
:103130008F929F92AF92BF92CF92DF92EF92FF92C7
:103140000F931F93CF93DF93EC016A017B01C901B9
:10315000B80143E096958795779567954A95D1F79D
:10316000488141FD0CC048015901B3E1B694A794D0
:1031700097948794BA95D1F72B013C0112C028018E
:103180003901F4E07694679457944794FA95D1F70F
:1031900048015901A4E1B694A79497948794AA95FD
:1031A000D1F74C145D046E047F0460F1C814D90497
:1031B000EA04FB0438F1488141FF0EC0A7019601E3
:1031C000220F331F441F551F0E948E2BDA01C901A5
:1031D0000197A109B10912C0C901B80124E096956F
:1031E0008795779567952A95D1F7A70196010E9453
:1031F0008E2BDA01C9010197A109B1099D838C8346
:1032000081E001C080E0DF91CF911F910F91FF908D
:10321000EF90DF90CF90BF90AF909F908F907F9076
:103220006F905F904F9008950F931F93CF93DF930C
:10323000EC018B01803C910519F462E080E04DDFE8
:103240008A818F738A83888182608883F80196815E
:10325000358184812A81482F4370440F297F242B94
:103260002A8329818470880F880F2B7F822B898382
:103270008A818F7C832B8A838A81282F277FF8E09D
:103280009F9FC0011124822B8A83F80140815181C4
:103290006281738100E014E224EF30E0CE0144DF6C
:1032A000998198609983998190619983DF91CF91F9
:1032B0001F910F910895AF92BF92CF92DF92EF923C
:1032C000FF920F931F93CF93DF9328E0829F7001AB
:1032D0001124082F000F000F000FC0E0D0E010E015
:1032E00082E0E81AF108C62ED12CAA24A394B12CAE
:1032F000C7018C0F9D1F4297B0F4C6010C2E02C06F
:10330000959587950A94E2F780FF0DC08C2F800F6A
:103310000E94EC24882339F0C5010C2E01C0880FCF
:103320000A94EAF7182B2196C830D10509F7812FA6
:10333000DF91CF911F910F91FF90EF90DF90CF9091
:10334000BF90AF9008955F926F927F928F929F92FD
:10335000AF92BF92CF92DF92EF92FF920F931F93A3
:10336000CF93DF934A01FB015080452B19F4882449
:103370008A94982C7B013B01680E791EC0E0D0E056
:1033800000E010E087E0C82ED12CE614F70489F1A4
:103390000815190508F04AC05701F70181917F010E
:1033A0000C2E01C0880F0A94EAF785298F77B1DEC9
:1033B0000F5F1F4FF501808190E096012C1B3D0BA4
:1033C00002C0959587952A95E2F7582E2196C73029
:1033D000D105D8F28016910651F0852D8F7799DEB0
:1033E0000F5F1F4F551C5524551C2797F0CF8401A4
:1033F000CCCF2097D9F008151905C0F481E090E0F2
:1034000001C0880FCA95EAF781508521DF91CF91DD
:103410001F910F91FF90EF90DF90CF90BF90AF90F2
:103420009F908F907F906F905F9073CEDF91CF9140
:103430001F910F91FF90EF90DF90CF90BF90AF90D2
:103440009F908F907F906F905F900895FF920F9361
:103450001F93CF93DF93C82F162FF42E052F80EFE5
:1034600058DE8C2F56DECF2DD02FCE01810F911D2F
:103470008C01C017D10741F040E050E0BE0181E06F
:1034800090E061DF2196F5CF87EFDF91CF911F911B
:103490000F91FF903ECEFC0101900020E9F731979B
:1034A000BF01681B790BAC0181E7D0CF0F931F934D
:1034B000CF93DF938431E8F48A01D62FC82F0E947E
:1034C0006824833049F08430A1F46C2FC801DF9167
:1034D000CF911F910F913BC88EEF8C0F823148F432
:1034E000A8016D2F8C2FDF91CF911F910F910C941C
:1034F0003525DF91CF911F910F91089508953FB722
:10350000F89480917B0490917C04A0917D04B0910B
:103510007E0426B5A89B05C02F3F19F00196A11D7A
:10352000B11D3FBFBA2FA92F982F8827820F911D59
:10353000A11DB11DBC01CD0142E0660F771F881FA0
:10354000991F4A95D1F708958F929F92AF92BF929B
:10355000CF92DF92EF92FF926B017C01D0DF4B01A3
:103560005C01C114D104E104F104F1F0C7DFC7DF4D
:10357000DC01CB0188199909AA09BB09883E93404F
:10358000A105B10570F321E0C21AD108E108F108E4
:1035900088EE880E83E0981EA11CB11CC114D104D2
:1035A000E104F10421F7DDCFFF90EF90DF90CF90A1
:1035B000BF90AF909F908F9008958230910538F022
:1035C000880F991F880F991F05970197F1F70895A4
:1035D00010924F06109226061092250610929C0516
:1035E00010929B051092DE0510929A0580E480935C
:1035F000500608951F93CF93DF9300D000D0CDB72E
:10360000DEB7809194058823D9F06091970580E01A
:1036100052DE1091970518238091E105181781F06B
:10362000812F90E09C838B8380E973DD42E050E042
:10363000BE016D5F7F4F82E090E085DE1093E10573
:10364000809195058823D9F06091980581E033DE5B
:103650001091980518238091E205181781F0812FA9
:1036600090E09A83898381E954DD42E050E0BE0115
:103670006F5F7F4F82E090E066DE1093E2050F906F
:103680000F900F900F90DF91CF911F910895CF93DE
:10369000DF9300D0CDB7DEB77A836983803170F4D1
:1036A0006115704458F4806E34DD42E050E0BE0194
:1036B0006F5F7F4F82E090E046DE06C08FEF29DD2E
:1036C0008FEF27DD8FEF25DD0F900F90DF91CF91EA
:1036D0000895CF93C2EF8EE08C0FC630A8F40E94FD
:1036E0006824823089F480912F0390E00C2E02C070
:1036F000959587950A94E2F780FF06C08C2F0E946B
:103700001B25BC018C2FC3DFCF5FC63021F7CF91C3
:103710000895EF92FF920F931F93CF93DF93D82FCB
:103720008B01C42FF22E6F3F7F4F71F08D2FA8DBDE
:10373000802FCBDB8F2DAEDB80912D0390912E035C
:10374000009721F03ADF02C000E010E06C2F8D2FCF
:103750008ADBEC2EF12CE4DBE816F9060CF0E0DB5A
:10376000D0939D0500939E05DBDB892B61F462E01D
:103770006C0F4DE955E087E7DF91CF911F910F91D5
:10378000FF90EF9063CE0DE915E0C8018D5995408B
:103790008E159F0564F7CCDBF8018283C1DB0F5FD8
:1037A0001F4F892B91F7E3CFCF93C0E08EEE8C0FA4
:1037B000823028F466E070E08C2F0E946E24CF5F88
:1037C000C431A1F781E080932C03CF9136CB1F93B6
:1037D000CF93DF9380916F02909170029C012F5FD5
:1037E0003F4F3093700220936F022091710230910D
:1037F0007202281739070CF057C080916D02909122
:103800006E02892B09F450C080916C0290E00E94F6
:10381000310DBC0190916C02492F50E0FA01E45047
:10382000FB4FD081FA01EA50FB4FC0811092700229
:1038300010926F0290936B029F5F90936C022091A5
:103840006D0230916E02215031094217530714F076
:1038500010926C02672B41F59091F1048091F20473
:10386000890F9091F304890F9091F404890F11E06E
:103870009091F504891301C010E080EF4ADC85E6E1
:1038800048DC8D2F46DC8C2F44DCC1EFD4E08991DD
:1038900040DC84E0C53FD807D1F7812F3ADC87EFC1
:1038A000DF91CF911F9135CCDF91CF911F9108957A
:1038B000CF93DF9380912603909127039C012F5F84
:1038C0003F4F309327032093260320912403309108
:1038D0002503281739070CF040C0109227031092D7
:1038E000260380912A0390912B03892BB1F18091BB
:1038F000220332DBEC012091220330912303209339
:103900002103C901019690932303809322038091A0
:103910002A0390912B0301972817390724F010925E
:1039200023031092220380EFF4DB83E6F2DBE091C5
:103930002103F0E0E257FA4F8081EBDB8C2F8F7789
:10394000E8DBCE01880F892F881F990B91958F771F
:10395000E0DB87EFDF91CF91DCCBDF91CF91089552
:103960001F920F920FB60F9211240F931F932F9354
:103970003F934F935F936F937F938F939F93AF93F7
:10398000BF93EF93FF93E09A0E944D270091CD04DF
:103990001091CE042091CF043091D004DC01CB01F2
:1039A000801B910BA20BB30B883C9105A105B105BF
:1039B00018F081E080932D020E944D276093CD0482
:1039C0007093CE048093CF049093D004FF91EF9135
:1039D000BF91AF919F918F917F916F915F914F9127
:1039E0003F912F911F910F910F900FBE0F901F903D
:1039F00018951F920F920FB60F9211240F931F93D9
:103A00002F933F934F935F936F937F938F939F93E6
:103A1000AF93BF93EF93FF93E19A0E944D270091DC
:103A2000CD041091CE042091CF043091D004DC015C
:103A3000CB01801B910BA20BB30B883C9105A10518
:103A4000B10518F081E080932E020E944D2760930B
:103A5000CD047093CE048093CF049093D004FF9153
:103A6000EF91BF91AF919F918F917F916F915F91F6
:103A70004F913F912F911F910F910F900FBE0F907B
:103A80001F901895CF92DF92EF92FF920F931F93A2
:103A9000CF93DF93CDB7DEB7CD58D1090FB6F894E9
:103AA000DEBF0FBECDBF8091E505893769F58091F6
:103AB0009B0590919C05039708F089C5C09009016A
:103AC000D0900A01F60101900020E9F731978F01AB
:103AD0000C191D0980EF1DDB89E71BDB82E019DB78
:103AE00086E017DBE12CF12CE016F10609F46CC539
:103AF000B6016E0D7F1D40E050E081E090E023DCD8
:103B00002FEFE21AF20AF0CF00919B05015089369F
:103B100009F41BC1D0F48F3509F471C178F48D30EC
:103B200009F435C2813509F052C580EFF2DA82E539
:103B3000F0DA81E0EEDA87EFECDA49C5823609F493
:103B40008AC1843609F4D2C142C5863779F038F487
:103B50008F3609F4C3C1803709F42BC138C58837C3
:103B600009F4DBC08A3709F4FFC031C51091E705BD
:103B700015FD2DC50E94E3148091E6052091E7050F
:103B800026FB222720F991E02927912F9871983060
:103B900039F128F491111BC573D912E007C0903197
:103BA00009F43BC0983109F46BC011C5101788F4B3
:103BB000212F30E0F901E951FA4F8081879588275C
:103BC0008795F901EA51FA4F9081890F7ED91E5FDE
:103BD000EDCF81E05FD983E191E00197F1F7F7C480
:103BE0004091E9056091E805063079F470E030E82D
:103BF000439F600D711D11244091EB0547954427AB
:103C000047959091EA05490F06C047954427479587
:103C1000460F6FEF7FEF7DDDDAC4E0910801E730FA
:103C200024F086E491E037DCD2C49091E90530912C
:103C3000E805063081F4632F70E040E8949F600D42
:103C4000711D11249091EB059795992797954091B7
:103C5000EA05940F06C0979599279795930F6FEFF4
:103C60007FEFEF5FE093080135E0E302F0011124FC
:103C7000E95DF94F80837283618393832483A7C4B2
:103C80002091080112163CF490E0622F022E000CE5
:103C9000770B35E00FC08FEF8093080198C4349FF5
:103CA000F001359FF00D1124E95DF94F4081841733
:103CB00039F09F5F492F50E06417750784F790E053
:103CC00085E0492F50E0641775071CF19830F8F42F
:103CD000FA0131968E9FD0018F9FB00D1124A95DFE
:103CE000B94F3C91849FF001859FF00D1124E95D4F
:103CF000F94F308311964D915C9112975283418315
:103D000013963C911397338314963C9134839F5FB1
:103D1000D8CF2150209308015AC4023080F020915E
:103D2000E7058091E60590E040E8249F800D911D15
:103D30001124009721F090932E0380932D038091FE
:103D40002C03811144C430DD42C480EFE2D98AE6FD
:103D5000E0D912EF163010F4812F01C08FE7D9D9C6
:103D60001F5F1630B9F730C48091E7052091E60552
:103D700030E070E8879F200D311D112430930C0135
:103D800020930B012115310509F421C488E290E04C
:103D9000B9010E94672B709325036093240380ED83
:103DA00097E0B9010E94672B7093720260937102D1
:103DB0000EC4053008F40BC41091E6058EEF810F98
:103DC000823108F004C48091EA054091E90550E091
:103DD00090E8899F400D511D11248091E805609164
:103DE000E70570E0E0E88E9F600D711D1124812FC2
:103DF0000E94D01164E070E0812F70D5E8C39091EB
:103E0000E6058091E70591111BC09091EB0520918B
:103E1000EA0530E0F0E89F9F200D311D1124032EAC
:103E2000000C440B550B9091E9056091E80570E09A
:103E3000E0E89E9F600D711D11240E940D13C7C301
:103E4000913009F0C4C320E030E0A90160E070E0E7
:103E50000E940D13BCC320912A0330912B032630FE
:103E600031050CF0B4C38091E6058093290390914D
:103E7000E70590932803F901EE0FFF1FEE0FFF1FD8
:103E8000EA58FA4F6091E9054091E80550E070E882
:103E9000679F400D511D1124052E000C660B770BFA
:103EA0004083518362837383F901E257FA4F808321
:103EB000F901E059FA4F90836CE070E00FD56CE0A7
:103EC00070E0809128030AD580912A0390912B03FA
:103ED000019690932B0380932A0379C344E650E024
:103EE0006091E7058091E605E1DA71C320916D02EA
:103EF00030916E02263031050CF045C08091E60508
:103F00009091E705492F50E04631510531F441E0E9
:103F1000F901EE5FFA4F40830DC04B30510531F48B
:103F20004AE0F901EE5FFA4F408304C087E591E073
:103F3000B2DA4DC3F901E450FB4F8083F901EA5036
:103F4000FB4F90836FE070E0C9D480916D02909137
:103F50006E020E94310D892B09F039C360916D0208
:103F600070916E026F5F7F4F70936E0260936D026F
:103F700080917102909172020E947B2B7093720269
:103F80006093710224C38CE891E085DA20C38091AC
:103F9000E605FE0131967F019FE711929A95E9F7B8
:103FA0008E3051F50E94E31400E011E0812F0E9451
:103FB000401781E00E944A17811105C0F701E00F08
:103FC000F11D10830F5F1F5F1F3781F780EFA1D8AE
:103FD0008DE09FD88EE09DD8802F9BD8670110E0A0
:103FE000C6018E199F09801791070CF0EDC2F601EA
:103FF00081916F018ED8F4CF81119AC08091E7052D
:10400000813009F04AC02091E8052093D804E22FBE
:10401000F0E0E953FE4F8081E82FF0E033E0F695C1
:10402000E7953A95E1F7AF01440F551FE40FF51FEF
:10403000B096382F377081E090E001C0880F3A9534
:10404000EAF78095918198239183928189238283D5
:10405000223081F4809131038111B9C281E08093D3
:104060003103F894E89A8091690082608093690036
:104070007894ADC2233009F0AAC280913003811137
:10408000A6C281E080933003F894E99A8091690098
:1040900088608093690078949AC2811198C2409197
:1040A000E90550E060E070E0FCE1440F551F661F39
:1040B000771FFA95D1F78091EA0590E0A0E0B0E093
:1040C00015E1880F991FAA1FBB1F1A95D1F7482B1E
:1040D000592B6A2B7B2B8091EB0590E0A0E0B0E0A0
:1040E0000EE0880F991FAA1FBB1F0A95D1F7482B16
:1040F000592B6A2B7B2B8091EC0590E0A0E0B0E07F
:1041000027E0880F991FAA1FBB1F2A95D1F7842B80
:10411000952BA62BB72B2091ED052F77BC01CD0158
:10412000622B20E230E04091E8050E94BC034FC2C0
:10413000873109F030C18091E705811120C0F090EE
:10414000E8050091E905F0E80F9F800111248091B6
:10415000EA058F77082B80EF0E9489188DE00E9476
:10416000891887E10E94891822E54FEFB8018F2D49
:104170000E94DF04882309F425C281E023C2813034
:1041800009F049C00091ED0510E020E030E065E164
:10419000000F111F221F331F6A95D1F78091EE0582
:1041A00090E0A0E0B0E07EE0880F991FAA1FBB1F3F
:1041B0007A95D1F7082B192B2A2B3B2B8091EF05F1
:1041C00090E0A0E0B0E0E7E0880F991FAA1FBB1FB6
:1041D000EA95D1F7082B192B2A2B3B2B8091F00560
:1041E0008F77082B4091EB0570E8479FA0011124C1
:1041F0008091EC058F77482B6091E90580E8689FF6
:10420000B00111248091EA058F77682B8091E80531
:104210000E941909DCC1823039F46091E90580916E
:10422000E8050E94CC07D3C1833009F079C0C09063
:10423000F105D12CE12CF12CF5E1CC0CDD1CEE1CB0
:10424000FF1CFA95D1F78091F20590E0A0E0B0E074
:104250001EE0880F991FAA1FBB1F1A95D1F7C82A05
:10426000D92AEA2AFB2A8091F30590E0A0E0B0E089
:1042700007E0880F991FAA1FBB1F0A95D1F7C82A0C
:10428000D92AEA2AFB2A8091F4058F77C82A00915F
:10429000ED0510E020E030E085E1000F111F221F46
:1042A000331F8A95D1F78091EE0590E0A0E0B0E051
:1042B0004EE0880F991FAA1FBB1F4A95D1F7082B04
:1042C000192B2A2B3B2B8091EF0590E0A0E0B0E06A
:1042D00057E0880F991FAA1FBB1F5A95D1F7082BCB
:1042E000192B2A2B3B2B8091F0058F77082B4091BF
:1042F000EB0590E8499FA00111248091EC058F7790
:10430000482B6091E905E0E86E9FB001112480918F
:10431000EA058F77682B8091E8050E94A70957C1AD
:10432000843039F46091E9058091E8050E94B30A70
:104330004EC1853039F46091E9058091E8050E940D
:10434000360B45C18630F9F40091EE0510E020915E
:10435000ED0530E04091EB05F0E84F9FA0011124FE
:104360008091EC058F77482B6091E90580E8689F84
:10437000B00111248091EA058F77682B8091E805C0
:104380000E94480C24C1873009F021C18091E805C2
:104390000E9477091CC1893169F58091E705893050
:1043A00009F015C1F090E8058F2D0E94030E8E01D3
:1043B00000581F4F8CE0F80111928A95E9F7C80167
:1043C0000E94A90F80EF0E9489188DE00E94891831
:1043D00089E10E9489188F2D0E948918F801808137
:1043E0000E948918F80181810E94891887EF0E9434
:1043F0008918EDC0813209F092C08091E7058631BD
:1044000051F44091EA054E506091E9058091E8052C
:104410000E94EF00DCC0823109F0D9C08E01005843
:104420001F4F8EE0F80111928A95E9F7C8010E94AA
:10443000000180EF0E9489188DE00E94891881E2B6
:104440000E948918F80180819181880F892F881F27
:10445000990B8F770E948918F80180818F770E94CD
:104460008918F80182819381880F892F881F990B01
:104470008F770E948918F80182818F770E948918AE
:10448000F80184819581880F892F881F990B8F7778
:104490000E948918F80184818F770E948918F80199
:1044A00086819781880F892F881F990B8F770E94AB
:1044B0008918F80186818F770E948918F801808514
:1044C0009185880F892F881F990B8F770E948918F3
:1044D000F80180858F770E948918F801828593857D
:1044E000880F892F881F990B8F770E948918F801F0
:1044F00082858F770E948918F80184859585880FB9
:10450000892F881F990B8F770E948918F80184855D
:104510008F770E94891887EF0E94891858C08332CC
:1045200009F055C08091E705873081F44091EA0594
:10453000F0E84F9FA00111248091EB05482B60917A
:10454000E9058091E8050E94AE1041C08A3009F06B
:104550003EC0CE0180589F4F0E94E0106B017C014D
:1045600020E030E0A9015FD687FF04C0F7FAF0949D
:10457000F7F8F094C701B601C7D6162F072F80EFC2
:104580000E9489188DE00E94891883E20E94891890
:10459000C058DF4F8881C058D0400E948918802FB2
:1045A0000E948918812F0E94891820E030E048EC91
:1045B00052E4C701B601C4D7A7D6862F64E60E948D
:1045C0005B2B892F0E94891887EF0E948918C35797
:1045D000DF4F0FB6F894DEBF0FBECDBFDF91CF9196
:1045E0001F910F91FF90EF90DF90CF9008951F9350
:1045F000CF93DF93182FEB018091500690E068175E
:104600007907A0F0E091CB04F091CC0481E03097E1
:1046100099F08093E4058091D2049091D304099598
:104620008091500690E0C817D90728F4CB51DA4F93
:10463000188380E001C081E0DF91CF911F91089540
:10464000CF92DF92FF920F931F93CF93DF939091BE
:104650004F069923D9F0873F51F410924F06DF910E
:10466000CF911F910F91FF90DF90CF900BCA609177
:104670009B0570919C05BBDF80919B0590919C05EB
:10468000019690939C0580939B051AC16091250625
:10469000709126066115710509F4D9C087FDD7C050
:1046A000615071097093260660932506A0DF809102
:1046B000250690912606892B09F002C180919A0562
:1046C000882309F4FDC0803D09F4B4C030F480397A
:1046D00001F1803C09F48FC0B7C0843FE9F1853F08
:1046E00009F479C0803E09F0AFC08091E60587707B
:1046F0004091E5054F7750E090E8899F400D511DAE
:1047000011246091E7056F778091DE050E94561AAB
:104710009BC08091E5050091E60510E090E8899F37
:10472000000D111D1124F090DE05FF0CFF0CFF0C95
:10473000C0E0D0E0CC24C394D12CB6018C2F0C2E39
:1047400001C0660F0A94EAF760238F0D17D12196F6
:10475000C830D10591F778C0D091E5050D2F10E054
:10476000C091E6058C2FB4D08F3709F46DC08EEF61
:104770008C0F8231E8F4EC2FE695E695E6952C2F28
:104780002770F0E0E956FA4F81E090E001C0880F11
:104790002A95EAF70115110519F00B30110521F4DE
:1047A0009081892B808304C08095908189238083A8
:1047B000B8018C2F93D0D23009F046C0CE5081E0A2
:1047C00090E001C0880FCA95EAF790912F03892BDA
:1047D00080932F0339C0C091E6058EEF8C0F823194
:1047E00098F5D091E5058C2F73D0813069F56D2F48
:1047F0008C2FC4D029C04091DE05463028F5809129
:10480000E50550912F0381110BC081E090E001C0BC
:10481000880F4A95EAF78095852380932F0314C06B
:1048200021E030E001C0220F4A95EAF7252B2093C2
:104830002F030AC0E091DE05E33030F4F0E0EC56DF
:10484000FA4F8091E505808310929A0539C0803F28
:1048500028F4982F9F709093DE05807F803EB1F002
:1048600038F4803C29F1803D19F1803949F517C0B1
:10487000843FA9F0853F99F0803F11F581E0809356
:104880004F0610929C0510929B051AC023E030E061
:10489000309326062093250680939A0511C022E0C6
:1048A00030E0309326062093250680939A0508C0B1
:1048B00021E030E0309326062093250680939A0568
:1048C000DF91CF911F910F91FF90DF90CF900895CE
:1048D000E82FF0E0EF5AF94F8081089590E0FC0155
:1048E000EF5AF94F20812F3709F447C060836115D3
:1048F000710521F06130710511F10895FC01E95E47
:10490000FD4F8081E82FF0E033E0F695E7953A958A
:10491000E1F79F01220F331FE20FF31FB096282FFC
:10492000277081E090E001C0880F2A95EAF7809512
:104930009181982391839281892382830895FC0138
:10494000E95EFD4FE0818E2F877001C0660F8A956A
:10495000EAF7F0E083E0F695E7958A95E1F7CF0175
:10496000880F991FE80FF91FB096862F80959281C6
:10497000892382838181682B61830895E82FF0E089
:10498000E95EFD4FE0819E2F977021E030E0A901A4
:1049900002C0440F551F9A95E2F7CA01F0E093E078
:1049A000F695E7959A95E1F79F01220F331FE20FE5
:1049B000F31FB096282F2095328132233283318124
:1049C000382B3183662321F09281892B82830895CD
:1049D0008281282322830895E82FF0E0E95EFD4FCD
:1049E000E0812E2F277081E090E001C0880F2A958A
:1049F000EAF7F0E093E0F695E7959A95E1F79F01E5
:104A0000220F331FE20FF31FDF019096982F90952E
:104A100011962C911197292311962C931197129688
:104A20002C911297922312969C9390A1982381E047
:104A300009F480E0089590917A00906490937A0050
:104A400090917A0094FFFCCF806480937C008091E9
:104A50007A00806480937A0080917A0086FDFCCF92
:104A6000809178009091790008952F923F924F9213
:104A70005F926F927F928F929F92AF92BF92CF92EE
:104A8000DF92EF92FF920F931F93CF93DF93C82F84
:104A9000D0E0FE01E95EFD4F0081902F977021E08C
:104AA00030E0190101C0220C9A95EAF710E073E09A
:104AB000169507957A95E1F79801220F331F020F9B
:104AC000131F005E1F4F922D9095F80122819223B3
:104AD0009283918192299183F4E0CC0FDD1FFA95A6
:104AE000E1F7662319F0643639F461E047DFCE5C04
:104AF000DC4F1F861E866EC0FE01EE5CFC4F88EC0C
:104B000090E09387828787E390E0958784874115BB
:104B1000510511F053874287CE5CDC4FE62EF12C15
:104B2000FD86EC86CC24C394D12CDF86CE862A85E4
:104B30003B85032E000C440B550B60E970ED83E0C0
:104B400090E00ED649015A01F1E08F1A9108A108B0
:104B5000B108C501B40106D420E030E048EC52E4CD
:104B600066D32B013C01B7010F2C000C880B990B6D
:104B7000F9D39B01AC01C301B201E2D444D5BFD348
:104B80002B013C0179836883C501B401EBD320E09C
:104B900030E048EC52E44BD34B015C0164E670E03A
:104BA0006E197F09072E000C880B990BDBD39B0134
:104BB000AC01C501B401C4D426D5A1D37B836A83DB
:104BC0005D824C82DF82CE8219861886F80182814E
:104BD000282A2282E2E3F3E080E090E020E030E067
:104BE000468557854130510541F4DC01AA0FBB1FB2
:104BF000AB59B94F2D933C9301962F5F3F4F709661
:104C00002431310569F79093730480937204F8940A
:104C10001092800010928100109285001092840002
:104C200081E090E0909389008093880080918100DA
:104C300088608093810080918100816080938100F1
:104C40008091810082608093810080916F008460F8
:104C500080936F007894DF91CF911F910F91FF9017
:104C6000EF90DF90CF90BF90AF909F908F907F900C
:104C70006F905F904F903F902F9008951F920F92EA
:104C80000FB60F9211244F925F927F928F929F9254
:104C9000AF92BF92CF92DF92EF92FF920F931F934A
:104CA0002F933F934F935F936F937F938F939F9334
:104CB000AF93BF93CF93DF93EF93FF930E9483183B
:104CC000882361F08091740490917504019690930B
:104CD0007504809374040E949118F0CF409065068B
:104CE00050906606809072049090730495E6A92E09
:104CF00096E0B92E8501E0E0F0E0A201A4E0440FC7
:104D0000551FAA95E1F7E815F9050CF054C0E80124
:104D1000A991B9918E01BD0184E0660F771F8A9534
:104D2000E1F7CB018E5C9C4F7C01EC012885398535
:104D30002130310581F5CD01895E9D4FEC017880F0
:104D4000872D90E0C3E096958795CA95E1F76C01B1
:104D5000CC0CDD1C8C0D9D1D8096E701EE80FF8044
:104D6000D72DD7707D2EEC01EF2839F0FA8001C0E5
:104D7000220F7A94EAF72F2907C0FA8001C0220F88
:104D80007A94EAF720952F212A83CB018E5C9C4FE1
:104D9000EC01198618866E5C7C4F4E5C5C4FEB0113
:104DA0002C813D81EA018C819D81821793070CF053
:104DB0002D013196A2CFFA01EE5CFC4F4481558162
:104DC00020E030E061E070E028153905F4F5F501E8
:104DD000819191915F01DC01E4E0AA0FBB1FEA958C
:104DE000E1F7FD01EE5CFC4FC481D581C41BD50BFE
:104DF000D583C483CD2B31F5C681D781219719F492
:104E0000C281D38102C0C081D181D583C483AE5C0D
:104E1000BC4F1696CD91DC911797FC01FF2784E0DB
:104E2000EE0FFF1F8A95E1F7EE5CFC4F71876087FC
:104E300081E090E0CD2B11F080E090E017969C93FC
:104E40008E9316972F5F3F4FBFCF509389004093AB
:104E500088001092850010928400FF91EF91DF91FD
:104E6000CF91BF91AF919F918F917F916F915F9102
:104E70004F913F912F911F910F91FF90EF90DF90F5
:104E8000CF90BF90AF909F908F907F905F904F900A
:104E90000F900FBE0F901F9018952FB7F894609148
:104EA0007704709178048091790490917A042FBFEF
:104EB00008951F920F920FB60F9211242F933F93D4
:104EC0008F939F93AF93BF938091770490917804D1
:104ED000A0917904B0917A043091760423E0230FF5
:104EE0002D3720F40196A11DB11D05C026E8230F22
:104EF0000296A11DB11D20937604809377049093B0
:104F00007804A0937904B0937A0480917B04909103
:104F10007C04A0917D04B0917E040196A11DB11D79
:104F200080937B0490937C04A0937D04B0937E04D3
:104F3000BF91AF919F918F913F912F910F900FBE95
:104F40000F901F9018951F920F920FB60F92112479
:104F50002F934F935F938F939F93EF93FF932091A2
:104F6000C60080917F0490918004AC014F5F5F4F39
:104F70005093800440937F04FC01EF55FB4F208346
:104F8000FF91EF919F918F915F914F912F910F9092
:104F90000FBE0F901F901895E1ECF0E080818068C3
:104FA0008083808180618083E2ECF0E08081846096
:104FB00080838081826080830895CF93DF93CDB713
:104FC000DEB727970FB6F894DEBF0FBECDBF80E0E7
:104FD00091EEA0E0B0E089839A83AB83BC8383E049
:104FE0008D831E821F82BE016F5F7F4F80EC90E039
:104FF0000E9414190E945718789484B5826084BD69
:1050000084B5816084BD85B5826085BD85B58160CC
:1050100085BD80916E00816080936E00109281004A
:105020008091810082608093810080918100816005
:1050300080938100809180008160809380008091C6
:10504000B10084608093B1008091B0008160809352
:10505000B00087E880937A000E94E81A0E94F81254
:105060009BDF0E94FA1A80917F0490918004009740
:1050700011F040E038C011DF60938D0670938E060A
:1050800080938F0690939006C0909106D0909206E0
:10509000E0909306F090940620910B0130910C0162
:1050A000890120E030E0AB01BC014C195D096E09BB
:1050B0007F090417150726073707B8F5D701C6017A
:1050C000800F911FA21FB31F8093910690939206A9
:1050D000A0939306B09394060E94581C0E94E71B6D
:1050E0000E94691B22C0242F30E02817390754F48E
:1050F000F901EF57FB4FD901AF55BB4F2C912083DE
:105100004F5FF1CF182F1092800410927F0481E836
:10511000E82E84E0F82E00E0011708F0ACCFF7018C
:1051200081917F018DDA0F5FF7CF80912E0281117F
:105130000DC080912D02882309F493CF82E00E9454
:1051400086020E946A0110922D028BCF83E00E949A
:1051500086020E946A0110922E0283CF5058BB270C
:10516000AA270ED0B3C1A4D130F0A9D120F031F4D8
:105170009F3F11F41EF499C10EF4E095E7FB8FC137
:10518000E92FB5D180F3BA17620773078407950733
:1051900018F071F49EF5CDC10EF4E0950B2EBA2FE8
:1051A000A02D0B01B90190010C01CA01A00111242D
:1051B000FF27591B99F0593F50F4503E68F11A16D9
:1051C000F040A22F232F342F4427585FF3CF46956A
:1051D00037952795A795F0405395C9F77EF41F168C
:1051E000BA0B620B730B840BBAF09150A1F0FF0F56
:1051F000BB1F661F771F881FC2F70EC0BA0F621F42
:10520000731F841F48F4879577956795B795F79531
:105210009E3F08F0B3CF9395880F08F09927EE0FC3
:1052200097958795089517D108F481E008950CD0DB
:105230004DC145D140F03CD130F021F45F3F19F031
:105240002EC1511177C131C152D198F39923C9F3BD
:105250005523B1F3951B550BBB27AA27621773077C
:10526000840738F09F5F5F4F220F331F441FAA1F30
:10527000A9F333D00E2E3AF0E0E830D091505040F0
:10528000E695001CCAF729D0FE2F27D0660F771F9E
:10529000881FBB1F261737074807AB07B0E809F080
:1052A000BB0B802DBF01FF2793585F4F2AF09E3F15
:1052B000510568F0F4C03EC15F3FECF3983EDCF36B
:1052C000869577956795B795F7959F5FC9F7880F8E
:1052D000911D9695879597F90895E1E0660F771FE0
:1052E000881FBB1F621773078407BA0720F0621B71
:1052F000730B840BBA0BEE1F88F7E095089504D06A
:105300006894B11117C10895FAD088F09F5790F0B2
:10531000B92F9927B751A0F0D1F0660F771F881FDA
:10532000991F1AF0BA95C9F712C0B13081F001D1B6
:10533000B1E00895FEC0672F782F8827B85F39F055
:10534000B93FCCF3869577956795B395D9F73EF439
:1053500090958095709561957F4F8F4F9F4F0895E1
:10536000E89409C097FB3EF49095809570956195FF
:105370007F4F8F4F9F4F9923A9F0F92F96E9BB27B5
:105380009395F695879577956795B795F111F8CF31
:10539000FAF4BB0F11F460FF1BC06F5F7F4F8F4F9C
:1053A0009F4F16C0882311F096E911C0772321F092
:1053B0009EE8872F762F05C0662371F096E8862F2A
:1053C00070E060E02AF09A95660F771F881FDAF781
:1053D000880F9695879597F90895E894F92F96EB9D
:1053E000FF2381F0121613061406440B9395F695CD
:1053F00087957795679557954040FF23B9F71BC070
:1054000099270895882351F49850D2F7872B762F47
:10541000652F542F432F322F20E0B1F312161306BD
:105420001406440B88233AF09A95440F551F661FC3
:10543000771F881FCAF755234AF4440F551F11F4EC
:1054400060FF04C06F5F7F4F8F4F9F4F880F96950F
:10545000879597F90895990F0008550FAA0BE0E872
:10546000FEEF16161706E807F907C0F01216130626
:10547000E407F50798F0621B730B840B950B39F466
:105480000A2661F0232B242B252B21F408950A26CC
:1054900009F4A140A6958FEF811D811D089597F90C
:1054A0009F6780E870E060E008959FEF80EC0895CA
:1054B00000240A94161617061806090608950024F3
:1054C0000A9412161306140605060895092E03946D
:1054D000000C11F4882352F0BB0F40F4BF2B11F4E1
:1054E00060FF04C06F5F7F4F8F4F9F4F089557FD40
:1054F0009058440F551F59F05F3F71F04795880F42
:1055000097FB991F61F09F3F79F0879508951216D8
:1055100013061406551FF2CF4695F1DF08C0161684
:1055200017061806991FF1CF869571056105089435
:105530000895E894BB2766277727CB0197F908954C
:105540000BD0C4CFB5DF28F0BADF18F0952309F0EF
:10555000A6CFABCF1124EECFCADFA0F3959FD1F336
:10556000950F50E0551F629FF001729FBB27F00D11
:10557000B11D639FAA27F00DB11DAA1F649F662766
:10558000B00DA11D661F829F2227B00DA11D621FB5
:10559000739FB00DA11D621F839FA00D611D221F6F
:1055A000749F3327A00D611D231F849F600D211D53
:1055B000822F762F6A2F11249F5750408AF0E1F0F6
:1055C00088234AF0EE0FFF1FBB1F661F771F881F3F
:1055D00091505040A9F79E3F510570F060CFAACF7F
:1055E0005F3FECF3983EDCF3869577956795B7952A
:1055F000F795E7959F5FC1F7FE2B880F911D969554
:10560000879597F908957BDFE0F09E37D8F09639BB
:10561000B8F49E3848F4672F782F8827985FF9CF21
:1056200086957795679593959539D0F3B62FB17098
:105630006B0F711D811D20F4879577956795939564
:1056400002C01CC077CF882371F4772321F09850D3
:10565000872B762F07C0662311F499270DC0905130
:10566000862B70E060E02AF09A95660F771F881FFE
:10567000DAF7880F9695879597F908959F3F31F04F
:10568000915020F4879577956795B795880F911D70
:105690009695879597F90895DB018F939F938BD00B
:1056A000BF91AF91A29F800D911DA39F900DB29FBE
:1056B000900D11240895991B79E004C0991F961745
:1056C00008F0961B881F7A95C9F780950895AA1B44
:1056D000BB1B51E107C0AA1FBB1FA617B70710F0DD
:1056E000A61BB70B881F991F5A95A9F7809590950F
:1056F000BC01CD01089597FB072E16F4009406D047
:1057000077FD08D0E4DF07FC05D03EF49095819545
:105710009F4F0895709561957F4F0895A1E21A2ECD
:10572000AA1BBB1BFD010DC0AA1FBB1FEE1FFF1F45
:10573000A217B307E407F50720F0A21BB30BE40B95
:10574000F50B661F771F881F991F1A9469F76095DC
:105750007095809590959B01AC01BD01CF01089596
:10576000052E97FB16F400940FD057FD05D0D6DF19
:1057700007FC02D046F408C050954095309521951D
:105780003F4F4F4F5F4F089590958095709561956D
:105790007F4F8F4F9F4F0895A29FB001B39FC001CD
:1057A000A39F700D811D1124911DB29F700D811D4D
:1057B0001124911D0895F0DFA59F900DB49F900DC9
:1057C000A49F800D911D11240895B7FFF4CFF3DF3E
:1057D000821B930B0895DF93CF931F930F939A9D92
:1057E000F02D219FF00D8B9DF00D8A9DE02DF10D88
:1057F000039FF00D029FE00DF11D4E9DE00DF11D88
:105800005E9DF00D4F9DF00D7F936F93BF92AF9211
:105810005F934F93D501C0DF8B01AC01D701BCDF93
:10582000EB01E80FF91FD6011FD02F913F91D60150
:10583000B3DFC60FD71FE81FF91FAF91BF9114D078
:105840002F913F91A9DFC60FD71FE81FF91FD6017F
:10585000A3DFE60FF71F9801BE01CF0111240F91BE
:105860001F91CF91DF91089597DF460F571FC81FF3
:10587000D91F08F431960895689401C0E8948F9276
:105880009F92CF93DF9305D0DF91CF919F908F9020
:10589000089588249924F401E401B0E49F93AA2791
:1058A0009A158B049C04ED05FE05CF05D007A107D2
:1058B00098F4AD2FDC2FCF2FFE2FE92D982C892EB9
:1058C000982F872F762F652F542F432F322F222783
:1058D000B85031F7BF9127C01B2EBF91BB27220FB5
:1058E000331F441F551F661F771F881F991F881C71
:1058F000991CEE1FFF1FCC1FDD1FAA1FBB1F8A14A0
:105900009B04EC05FD05CE05DF05A007B10748F0B7
:105910008A189B08EC09FD09CE09DF09A00BB10B21
:1059200021601A94E1F62EF49401AF01BE01CD017D
:10593000000C08950F931F93CF93DF93823091054E
:1059400010F482E090E0E0919706F091980620E054
:1059500030E0A0E0B0E0309719F140815181028140
:10596000138148175907C8F08417950769F41097F1
:1059700031F012960C93129713961C9327C0009344
:1059800097061093980622C02115310519F0421789
:10599000530718F49A01BD01EF01DF01F801DBCFD5
:1059A00021153105F9F0281B390B2430310580F41D
:1059B0008A819B816115710521F0FB0193838283AC
:1059C00004C09093980680939706FE01329644C0D7
:1059D000FE01E20FF31F8193919322503109398325
:1059E00028833AC02091950630919606232B41F4E6
:1059F0002091020130910301309396062093950681
:105A000020910001309101012115310541F42DB79C
:105A10003EB74091040150910501241B350BE091E4
:105A20009506F0919606E217F307A0F42E1B3F0BA4
:105A30002817390778F0AC014E5F5F4F2417350700
:105A400048F04E0F5F1F5093960640939506819342
:105A5000919302C0E0E0F0E0CF01DF91CF911F9180
:105A60000F910895CF93DF93009709F481C0FC0153
:105A7000329713821282A0919706B09198061097E0
:105A800081F420813181820F931F209195063091FE
:105A900096062817390751F5F0939606E093950678
:105AA00067C0ED0120E030E0CE17DF0740F44A8107
:105AB0005B819E0141155105F1F0EA01F5CFD383D9
:105AC000C28340815181840F951FC817D90759F4AB
:105AD00088819981840F951F0296918380838A81A2
