:1000000004C1000033C1000031C100002FC1000055
:100010002DC100002BC1000029C1000027C1000034
:1000200025C1000023C1000021C100001FC1000044
:100030001DC100000C943F1919C1000017C1000038
:1000400015C100000C94F71B11C100000FC1000086
:100050000DC100000BC1000009C100000C94FF1984
:1000600005C100000C94C9190C949F19FFC0000031
:10007000FDC00000FBC00000F9C00000F7C0000098
:100080000C94C91BF3C00000F1C00000EFC00000D9
:10009000EDC00000EBC00000E9C000000C94491A5C
:1000A000E5C00000E3C000000C949B1BDFC0000013
:1000B000DDC00000DBC00000D9C000000C946D1B47
:1000C000D5C00000D3C00000D1C00000CFC00000E8
:1000D000CDC00000CBC00000C9C00000C7C00000F8
:1000E000C5C0000000002100240027002A002D00C8
:1000F0003000330001010000040107010A01000083
:100100002200250028002B002E00310034000201BF
:100110000000050108010B0100002000230026005B
:1001200029002C002F00320000010000030106010D
:10013000090105050505070508080808020202026D
:100140000A0A080804040404010101010101010173
:100150000303030303030303040707070C0C0C0C3E
:100160000C0C0C0C02020202060606060606060627
:100170000B0B0B0B0B0B0B0B0102102020080810B4
:100180002040102040800201020108040201010207
:1001900004081020408080402010080402018004E0
:1001A000020180402010080402010804020101023B
:1001B0000408102040800102040810204080000044
:1001C0000A0B02090C0D0E080703040100000000D1
:1001D000000000000000000000000000000000001F
:1001E00000000000000000000000121110000000DC
:1001F00000000000000000000000000000000000FF
:10020000000000000200251C4E2611241FBECFEF67
:10021000D1E2DEBFCDBF00E00CBF13E0A0E0B2E052
:10022000EEE8F0E500E00BBF02C007900D92AE3B98
:10023000B107D9F729E0AEEBB3E001C01D92A133BD
:10024000B207E1F711E0C4E0D1E000E006C0219779
:100250000109802FFE010E94ED26C330D10780E006
:100260000807A9F70E945A1D0C943628C9CE862F7C
:10027000E0912705F0912805309711F0BA01199403
:100280000895862FE0912505F0912605309711F00D
:10029000BA0119940895862FE0912305F091240561
:1002A000309711F0BA0119940895862FE091210535
:1002B000F0912205309711F0BA0119940895862F14
:1002C000E0911F05F0912005309711F0BA011994C3
:1002D0000895862FE0911D05F0911E05309711F0CD
:1002E000BA01199408950895862F642FE091290585
:1002F000F0912A05309711F0A90119940895E09121
:100300002B05F0912C05309709F019940895A091D0
:100310001207B0911307ED91FC9111970190F081B4
:10032000E02D682FCD011994982F2091F60581E0DA
:10033000213208F043C08091D2058111FCCF809119
:10034000F50532E03093D2059093D1059FEF90935D
:10035000D0051092CF052093CE05A5EDB5E0EEEACD
:10036000F5E090E0291331C01092AD059091AD05F4
:10037000880F892B8093AD058091AC05813049F5BC
:100380001092AC058091AD058093BB008091BC00BC
:1003900083FDF8CF85EC8093BC008091D20582303C
:1003A000E1F38091D0058F3FB1F08091D00580328C
:1003B000A1F08091D005803391F084E01092D405B3
:1003C0001092F6051092D30508953D9131939F5FE9
:1003D000C9CF85EEE0CF80E0F1CF82E0EFCF83E0C0
:1003E000EDCF1F93CF93DF93182FEB018091D906A8
:1003F0009091DA066817790760F48091D70690919A
:10040000D806C80FD91F188380E0DF91CF911F91C4
:100410000895E0910607F0910707309711F481E005
:10042000F4CF81E08093D6068091F2069091F30696
:1004300019958091D9069091DA06C817D90778F7EF
:10044000DCCFCF93DF93EC01FB0130E020E0C9016A
:10045000880F991F8C179D0778F44081DB014D931D
:10046000BD0111979181979599279795942B9C930E
:100470002F5F3F4F3296EBCFC901DF91CF910895A7
:10048000AF92BF92CF92DF92EF92FF920F931F93A2
:10049000CF93DF936C017B018B01040F151FEB01E0
:1004A0005E01AE18BF08C017D10759F06991D60197
:1004B000ED91FC910190F081E02DC6011995892BF9
:1004C00079F7C501DF91CF911F910F91FF90EF90C8
:1004D000DF90CF90BF90AF900895FC01538D448D75
:1004E000252F30E0842F90E0821B930B541710F0DF
:1004F000CF96089501970895FC01918D828D9817EC
:1005000061F0A28DAE0FBF2FB11D5D968C91928DC3
:100510009F5F9F73928F90E008958FEF9FEF0895F4
:10052000FC01918D828D981731F0828DE80FF11DBD
:10053000858D90E008958FEF9FEF0895FC01918DD8
:10054000228D892F90E0805C9F4F821B91098F73D1
:100550009927089587EF95E0F1DF21E0892B09F4D1
:1005600020E0822F0895FC01A48DA80FB92FB11DA2
:10057000A35ABF4F2C91848D90E001968F739927D9
:10058000848FA689B7892C93A089B1898C918370B7
:1005900080648C93938D848D981306C00288F389B0
:1005A000E02D80818F7D80830895EF92FF920F93DD
:1005B0001F93CF93DF93EC0181E0888F9B8D8C8D0F
:1005C00098131AC0E889F989808185FF15C09FB703
:1005D000F894EE89FF896083E889F98980818370C6
:1005E000806480839FBF81E090E0DF91CF911F9175
:1005F0000F91FF90EF900895F62E0B8D10E00F5F96
:100600001F4F0F731127E02E8C8D8E110BC00FB66C
:1006100007FCFACFE889F989808185FFF5CFCE0103
:10062000A2DFF2CFEB8DEC0FFD2FF11DE35AFF4F50
:10063000F0829FB7F8940B8FEA89FB8980818062F2
:10064000D0CFCF93DF93EC01888D8823B1F0AA89B6
:10065000BB89E889F9898C9185FD03C0808186FD7D
:100660000CC00FB607FCF7CF8C9185FFF2CF8081CD
:1006700085FFEDCFCE0177DFEACFDF91CF910895EF
:1006800080E090E0892B21F065DF81110E9400005D
:1006900080E090E0892B49F080E090E0892B29F000
:1006A0000E94000081110E94000080E090E0892BF0
:1006B00049F080E090E0892B29F00E940000811130
:1006C0000E94000080E090E0892B49F080E090E0FB
:1006D000892B29F00E94000081110C9400000895DC
:1006E0008150823108F05AC0E82FF0E08827E458A2
:1006F000FC4F8F4F0C94ED269C03A0038E039403B4
:100700009803CE03A303A903AD03B303B703BB034D
:10071000C103C503CE03C903CF03D3038091800077
:100720008F77809380000895809180008F7DF9CF2E
:1007300080918000877FF5CF84B58F7784BD089541
:1007400084B58F7DFBCF8091B0008F778093B00010
:1007500008958091B0008F7DF9CF809190008F77C0
:10076000809390000895809190008F7DF9CF8091C3
:100770009000877FF5CF8091A0008F778093A000B5
:1007800008958091A0008F7DF9CF8091A000877F90
:10079000F5CF809120018F7780932001089580917B
:1007A00020018F7DF9CF80912001877FF5CFCF93F6
:1007B000DF93282F30E0F901E254FE4F8491F901D4
:1007C000E858FE4FD491F901EE5CFE4FC491CC2362
:1007D00099F0811185DFEC2FF0E0EE0FFF1FE85E4E
:1007E000FE4FA591B491EC91ED2381E090E009F4E6
:1007F00080E0DF91CF91089580E090E0FACF1F93E1
:10080000CF93DF93282F30E0F901E254FE4F84911B
:10081000F901E858FE4FD491F901EE5CFE4FC49106
:10082000CC23A1F0162F81115BDFEC2FF0E0EE0F4F
:10083000FF1FE250FF4FA591B4918FB7F894EC9150
:10084000111108C0D095DE23DC938FBFDF91CF91CB
:100850001F910895DE2BF8CF9091000289130DC0EF
:10086000E4E0F2E0E4919FEF90930002E230D9F0EF
:1008700030F4EE2379F0E13081F060E0C0CFE43075
:1008800049F110F1E530C9F7909173009D7F909385
:100890007300F3CF10926E00F0CF90916F009D7FA8
:1008A00090936F00EACF909170009D7F90937000BD
:1008B00091E09093B0009091B100987F94609093F4
:1008C000B1001092B300D9CF909171009D7F9093A9
:1008D0007100D3CF909172009D7F90937200CDCF25
:1008E000CF93DF9390E0FC01E858FE4F24918E5C9B
:1008F0009E4FFC0184918823C9F090E0880F991FD6
:10090000FC01EC51FF4FA591B491FC01E250FF4F67
:10091000C591D49161110DC09FB7F8948C91209529
:1009200082238C938881282328839FBFDF91CF91D6
:100930000895623051F49FB7F8943C91822F8095CE
:1009400083238C93E8812E2BEFCF8FB7F894EC9113
:100950002E2B2C938FBFEACF863308F0865320913D
:100960007B00982F9870277F922B90937B00877045
:10097000806480937C0080917A00806480937A0008
:1009800080917A0086FDFCCF80917800909179006B
:1009900008953FB7F8948091120590911305A091A6
:1009A0001405B091150526B5A89B05C02F3F19F079
:1009B0000196A11DB11D3FBFBA2FA92F982F8827DF
:1009C000BC01CD01620F711D811D911D42E0660FBA
:1009D000771F881F991F4A95D1F708958F929F928C
:1009E000AF92BF92CF92DF92EF92FF926B017C01A8
:1009F000D0DF4B015C01C114D104E104F104B1F07A
:100A0000C8DF681979098A099B09683E7340810526
:100A1000910588F321E0C21AD108E108F10888EEB7
:100A2000880E83E0981EA11CB11CE5CFFF90EF90CB
:100A3000DF90CF90BF90AF909F908F9008955F927E
:100A40006F927F928F929F92AF92BF92CF92DF92DE
:100A5000EF92FF920F931F93CF93DF935C01690195
:100A6000DA015C90232B19F4CC24CA94DC2C8A0183
:100A70003A01660E771ED0E0C0E0F12CE12C87E051
:100A8000882E912CF50180819181D8016C910C2EDA
:100A900001C0660F0A94EAF765296F77DC01ED91D2
:100AA000FC910190F081E02D1995BFEFEB1AFB0A44
:100AB000F801608170E0C4018C1B9D0B02C075952C
:100AC00067958A95E2F7562E2196C730D10558F1E1
:100AD000CE14DF0441F1D5018D919C91652D6F7786
:100AE000DC01ED91FC910190F081E02D1995BFEFB3
:100AF000EB1AFB0A551C5524551C2797E6CFEC141E
:100B0000FD0408F4BFCFDF91CF911F910F91FF90AB
:100B1000EF90DF90CF90BF90AF909F908F907F909D
:100B20006F905F9008950F5F1F4F6016710639F741
:100B3000209749F3EC14FD0430F7F5018081918191
:100B400061E070E001C0660FCA95EAF76150652167
:100B5000DC01ED91FC910190F081E02DDF91CF91CE
:100B60001F910F91FF90EF90DF90CF90BF90AF90CB
:100B70009F908F907F906F905F9019941F93CF9369
:100B8000DF931F921F92CDB7DEB7182F7A83698348
:100B90008091D4069091D5060097C1F0DC01ED91CB
:100BA000FC910190F081E02D1031B0F4611570449A
:100BB00098F4612F606E199522E030E0AE014F5F2E
:100BC0005F4F62E070E084ED96E039DF0F900F90A8
:100BD000DF91CF911F91089560EF19958091D40610
:100BE0009091D506DC01ED91FC910190F081E02D12
:100BF0006FE619958091D4069091D506DC01ED91B0
:100C0000FC910190F081E02D612F199522E030E0F8
:100C1000AE014F5F5F4F62E070E084ED96E00FDF62
:100C20008091D4069091D506DC01ED91FC91019064
:100C3000F081E02D67EF1995C9CFEF92FF920F93E6
:100C40001F93CF93DF93C82F8091D4069091D50640
:100C50000097C1F17A018B01DC01ED91FC910190CB
:100C6000F081E02D60EF19958091D4069091D50622
:100C7000DC01ED91FC910190F081E02D6C2F199534
:100C8000E7010E0D1F1DC017D10751F030E020E025
:100C9000AE0161E070E084ED96E0D1DE2196F3CF05
:100CA0008091D4069091D506DC01ED91FC910190E4
:100CB000F081E02D67EFDF91CF911F910F91FF90B1
:100CC000EF901994DF91CF911F910F91FF90EF90CA
:100CD0000895CF93DF93009729F1EC01C05CDF4FBB
:100CE000888199810097F1F0DC01ED91FC910190F0
:100CF000F081E02D69EF199588819981DC01ED91F2
:100D0000FC910190F081E02D62E019958881998134
:100D1000DC01ED91FC910190F081E02D66E0DF9126
:100D2000CF911994DF91CF910895CF92DF92EF92F6
:100D3000FF920F931F93CF93DF93009709F462C044
:100D4000FC01E058FF4FE080EE2009F45BC0EC01AD
:100D5000C05CDF4FA881B981109709F453C0FC0132
:100D6000EF57FF4FC080D180F60111810081ED91D6
:100D7000FC9111970190F081E02D60EFCD01199564
:100D800088819981DC01ED91FC910190F081E02D49
:100D900069E7199588819981DC01ED91FC910190B9
:100DA000F081E02D602F199588819981DC01ED910A
:100DB000FC910190F081E02D612F1995F12C01E05B
:100DC00010E00F5F1F4FE016F10651F030E020E019
:100DD000A601400F511F61E070E0CE0130DEF1CF7F
:100DE00088819981DC01ED91FC910190F081E02DE9
:100DF00067EFDF91CF911F910F91FF90EF90DF9000
:100E0000CF901994DF91CF911F910F91FF90EF90A8
:100E1000DF90CF90089585ED8093BC008091BC0059
:100E200084FDFCCF1092D20508952091EC04260F8A
:100E30003327331F21323105ECF42091D205FC0118
:100E400090E080E0243069F082E00895A091EC0405
:100E50002191AC0146535B4FA40FB52FB11D2C93CC
:100E60000196861798F38091EC04680F6093EC0468
:100E700080E0089581E00895089508950895E0912F
:100E8000C9048091C804E81730F4F0E0E855FB4F3E
:100E9000808190E008958FEF9FEF08959091C904AD
:100EA0008091C8042FEF3FEF981748F4E92FF0E046
:100EB000E855FB4F208130E09F5F9093C904C90142
:100EC00008958091C8049091C904891B990B0895D5
:100ED000CF92DF92EF92FF920F931F93CF93DF9306
:100EE0007C01CB018A012091D305222389F0EB01FB
:100EF0006B01C40ED51ECC15DD0561F06991D701DB
:100F0000ED91FC910190F081E02DC7011995F3CF8F
:100F1000642F8BDFC801DF91CF911F910F91FF905C
:100F2000EF90DF90CF900895CF93DF931F92CDB7CE
:100F3000DEB769832091D3052223F9F02091F605CD
:100F4000203258F021E030E0FC013383228390E02E
:100F500080E00F90DF91CF9108958091D405E82F24
:100F6000F0E0EB52FA4F998190838F5F8093D40524
:100F70008093F60581E090E0ECCF61E0CE01019630
:100F800054DFF8CF90E080E00895DF92EF92FF9277
:100F90000F931F93CF93DF93EC01D62E7A01890133
:100FA0008881803308F066C061E08D2D99DC8881EE
:100FB000282F30E0F901EE0FFF1FE20FF31FEA5078
:100FC000F84F9D2D9F736081607C692B608320E2C8
:100FD00032E02E193F0937FF02C02D5F3F4F359594
:100FE000279535952795298320E639E0201B310B7D
:100FF00037FF02C02D5F3F4F3595279535952795D3
:101000002A832CE0622F0E94BA26829FB00111240D
:1010100030E020E0AB01420F531FFA01EE0FFF1F3B
:10102000E40FF51FEA50F84F908196FD16C02F5F30
:101030003F4F2C30310571F7813029F51092800037
:1010400082E0809381001092850010928400B19A12
:1010500080916F00826080936F00E8818E2F90E016
:10106000FC01EE0FFF1FE80FF91FEA50F84F8081D7
:10107000806480838881DF91CF911F910F91FF90D1
:10108000EF90DF900895823061F410929000809389
:101090009100109295001092940088BB809371008B
:1010A000DCCF833069F41092A00082E08093A1002D
:1010B0001092A5001092A40089BB80937200CDCF3E
:1010C0008111CBCF1092200182E0809321011092F8
:1010D0002501109224018ABB80937300BECFAF928A
:1010E000BF92CF92DF92EF92FF920F931F93CF9315
:1010F000DF936B017A01EC01CC55DB4F28813CE09A
:10110000389F8001399F100D1124A0908608B12CC2
:1011100027FF1FC0FB011182108288818F5F8883A7
:1011200088819801280F311D87FD3A95F6012A150F
:101130003B051CF488818C30BCF180819181049640
:1011400080349C4908F471C0F60180819181049635
:101150006EC088819801280F311D87FD3A952A15A8
:101160003B05DCF68881A801480F511D87FD5A9583
:10117000FA01EE0FFF1FE40FF51FEA50F84F8081D0
:1011800086FFCBCF8881F801E80FF11D87FDFA9526
:10119000CF01EE0FFF1FE80FF91FEA50F84F8081D3
:1011A00060E08F732CDBB9CF808191812881A80109
:1011B000420F511D27FD5A959A01FA01EE0FFF1FAC
:1011C000E20FF31FEA50F84F21813281820F931F03
:1011D000F7019183808388819801280F311D87FD55
:1011E0003A95F901EE0FFF1FE20FF31FEA50F84F97
:1011F000808186FF21C08881080F111D87FD1A9507
:10120000F801EE0FFF1FE00FF11FEA50F84F808149
:1012100061E08F73DF91CF911F910F91FF90EF905D
:10122000DF90CF90BF90AF90EACA80E49CE9F701CD
:10123000918380838FEF8883DF91CF911F910F91EE
:10124000FF90EF90DF90CF90BF90AF900895AF9256
:10125000BF92CF92DF92EF92FF920F931F93CF93A3
:10126000DF93109273051092740510927505109219
:10127000760510927705FC01E258FA4FC08182563C
:101280009B4FFC01D08161E08C2F2ADB60E08C2F2A
:10129000B6DA6D2F70E090E080E0A0DB60E08C2F8C
:1012A0001FDB8BE990E00197F1F700E911E08C2F4B
:1012B0007EDA892B81F401501109C9F78EEF9FEF77
:1012C000DF91CF911F910F91FF90EF90DF90CF9022
:1012D000BF90AF90089500E911E08C2F68DA019774
:1012E00021F401501109C9F7E9CF18E200E0D0E874
:1012F00090E9E92EFF24F3948C2F59DA892B29F4F5
:10130000F1E0EF1AF108C1F7D9CF43DB6B017C01A3
:1013100080E9A82EBB24B3948C2F49DA019729F4D5
:1013200081E0A81AB108C1F7C9CF33DB6C197D0978
:101330008E099F09693271058105910538F0E02F0A
:10134000F0E0ED58FA4F80818D2B8083D69511F413
:101350000F5FD0E8115061F690E080E0B1CFCF93FD
:101360008031B0F421E030E0082E02C0220F331F9C
:101370000A94E2F74091710550917205672B51F480
:1013800020953095242335233093720520937105E1
:10139000CF910895242B352B30937205209371053E
:1013A00090919D049111F4CFC82FD6DABC018C2FF7
:1013B000CF91E4CB4F925F926F927F928F929F92E8
:1013C000AF92BF92CF92DF92EF92FF920F931F9353
:1013D000CF93DF93893008F09EC08F5FC82FCC0F6A
:1013E000CC0FCC0F4C2EC73410F056E4452ED62F20
:1013F00038EF532E5C0E852C912CC401880F991F59
:101400009C012C56394F5901052DD12CC12C10E0CF
:10141000772473940415C0F58EEF800F8434F8F4AC
:10142000F601E80DF91DE95EF84F90819230B8F4AD
:10143000872D8D2366246394811101C0612C760170
:10144000EE0CFF1C913089F4172939ECE30EF11CE6
:10145000F501EE0DFF1D862D90E091838083770CC2
:101460000F5F8FEFC81AD80AD5CF882371F3F70121
:10147000E753FF4FEA0DFB1D80819181019729F30E
:1014800062E0802F2DDAE1CF10FF04C06D2F617074
:10149000852DB5D911FF05C06D2F627089EF8C0FB6
:1014A000AED912FF05C06D2F64708AEF8C0FA7D9DB
:1014B00013FF05C06D2F68708BEF8C0FA0D914FF40
:1014C00005C06D2F60718CEF8C0F99D915FF05C089
:1014D0006D2F60728DEF8C0F92D916FF05C06D2FA6
:1014E00060748EEF8C0F8BD917FF15C06D2F60784D
:1014F0008FEF8C0FDF91CF911F910F91FF90EF90A5
:10150000DF90CF90BF90AF909F908F907F906F9023
:101510005F904F9074C9DF91CF911F910F91FF9011
:10152000EF90DF90CF90BF90AF909F908F907F9083
:101530006F905F904F9008958F929F92AF92BF925D
:10154000CF92DF92EF92FF920F931F93CF93DF938F
:10155000EB01863408F098C0082F10E0F801E95E2E
:10156000F84F9081933009F49CC0943009F08CC0FE
:101570008250843408F081C0F801E35BFB4FC080E7
:10158000D12C7601EE0CFF1C4B01603282E0780713
:101590000CF03EC0F701EC0DFD1DE957F74F8181BE
:1015A000A8E88A2E912C881A910887FD9394880CBC
:1015B000991C880C991C092C000CAA08BB08828174
:1015C00028E532E0281B310987FD3395220F331FB0
:1015D000220F331F032E000C440B550B2819390919
:1015E0004A095B09DB01653B710514F0A4EBB0E02F
:1015F000B7FF02C0B0E0A0E00E94832624EB30E0F9
:1016000040E050E00E945D26820E931EA41EB51E8F
:10161000F701EC0DFD1DE957F74F2081203368F5E8
:10162000318188E890E0831B910937FD9395880FFD
:10163000991F880F991F881699067CF0328188E5DA
:1016400092E0831B910937FD9395880F991F880FAE
:10165000991F881699060CF4C4010297880F991FE8
:101660004FB7F89430E0F901EE0FFF1FE20FF31FC0
:10167000EA50F84F928381834FBF000F111FF8018A
:10168000E35AF84FD183C083DF91CF911F910F911F
:10169000FF90EF90DF90CF90BF90AF909F908F9092
:1016A0000895F82E8EEF800F8C3020F084ED800F9F
:1016B000833018F761E08F2D13D9209721F460E073
:1016C0008F2D9DD8DACFCF3FD10511F461E0F8CF4F
:1016D000F801E254FE4FE491E150E23108F0B0C06D
:1016E000F0E08827E958F44F8F4F0C94ED26890BD2
:1016F0008E0B930B9D0BA70B200CB10BB90BC10BE1
:10170000CB0BD50BDF0BEE0BF80B200C020C0C0CEB
:10171000160C84B5806884BDC7BDAFCF84B5806228
:1017200084BDC8BDAACF809180008068809380006E
:10173000D0938900C0938800A0CF80918000806200
:1017400080938000D0938B00C0938A0096CF8091C5
:101750008000886080938000D0938D00C0938C00BF
:101760008CCF8091B00080688093B000C093B300AC
:1017700084CF8091B00080628093B000C093B400A9
:101780007CCF80919000806880939000D0939900E6
:10179000C093980072CF80919000806280939000F7
:1017A000D0939B00C0939A0068CF8091900088608E
:1017B00080939000D0939D00C0939C005ECF809159
:1017C000A00080688093A0008091A0008F7B809310
:1017D000A000D093A900C093A8004FCF8091A00093
:1017E00080628093A000D093AB00C093AA0045CF45
:1017F0008091A00088608093A000D093AD00C0933A
:10180000AC003BCF80912001806880932001D09371
:101810002901C093280131CF8091200180628093FB
:101820002001D0932B01C0932A0127CF8091200162
:10183000886080932001D0932D01C0932C011DCF8F
:10184000C038D1050CF042CF3ACF9EEF980F9434B8
:1018500080F4E82FF0E0DF01A95EB84F9C91913051
:1018600041F4EE0FFF1FE35AF84F608371830C942D
:10187000FF030895FF920F931F93CF93DF931F925F
:101880001F92CDB7DEB7082F10E0F801E35DFA4FE5
:101890009081F62EF9220D561B4F411104C0F8011C
:1018A00090819F1509F12F2D30E03A832983A09173
:1018B000D406B091D5061097A9F0682F6F706069B3
:1018C000ED91FC9111970190F081E02DCD011995DA
:1018D00022E030E0AE014F5F5F4F62E070E084EDE8
:1018E00096E0ADD8F801F0820F900F90DF91CF9184
:1018F0001F910F91FF9008950F931F93CF93DF9344
:10190000893008F070C0282F30E0F901EA5CFA4F06
:101910006083672B09F467C0082F235D3A4FF901F4
:101920001081D82FDD0FDD0FDD0F8EEF8D0F84348A
:1019300050F4C12FC17010FF07C08D2F0E94D70334
:10194000C1E0892B09F4C0E08FEF8D0F843448F497
:1019500011FF07C081E08D0F0E94D703892B09F08A
:10196000C26012FF07C082E08D0F0E94D703892B4F
:1019700009F0C46013FF07C083E08D0F0E94D703F6
:10198000892B09F0C86014FF07C084E08D0F0E9406
:10199000D703892B09F0C06115FF07C085E08D0FC3
:1019A0000E94D703892B09F0C062D034A1F016FF42
:1019B00007C086E08D0F0E94D703892B09F0C06411
:1019C000DF3349F017FF07C087E08D0F0E94D70370
:1019D000892B09F0C06841E06C2F802FDF91CF91F7
:1019E0001F910F9147CFDF91CF911F910F910895D4
:1019F000A82FB0E0A35BBB4F9C91292F30E0F901E9
:101A0000EE0FFF1FE20FF31FE957F74FE0812E2F74
:101A100030E0F901EE0FFF1FE20FF31FEA50F84F1D
:101A200080818F7B808380914B04981308C0992319
:101A300019F0915090934B048FEF8C930895882365
:101A4000D9F3E0914C04EF5FE0934C04F0E0E354F1
:101A5000FC4F9083F1CFFC0101900020E9F7319712
:101A6000BF01681B790BAC0181E7E7C8EF92FF92D9
:101A70000F931F93CF93DF93D82F8B01C42FF22E98
:101A80006F3F760709F485C081E08093D305D0933A
:101A9000F5051092D4051092F6058AEE97E044DA27
:101AA0008F2D0E9494018091490490914A048230C4
:101AB000910538F0880F991F880F991F0597019796
:101AC000F1F78091D2058111FCCF9C2FC13208F033
:101AD00090E281E08093D2058093D1052FEF20938F
:101AE000D0051092CF05290F2093CE058093AD0528
:101AF0002091AD058D2F880F822B8093AD058091AD
:101B0000AC05813009F047C01092AC058091AD055D
:101B10008093BB008091BC0083FDF8CF85EC80935F
:101B2000BC008091D2058130E1F38091CF05891707
:101B300010F49091CF05AEEAB5E0E8EAF4E080E079
:101B400089132BC01092C9048093C804EC2EF12C89
:101B500090E0E816F9062CF58EE292E07CDFD09357
:101B6000EE030093EF030EEE13E0C8018E5E934088
:101B70008E159F05E4F40F5F1F4F9091C80480916C
:101B8000C9049817A1F08AEE97E088D9F8018183FB
:101B9000ECCF00E096CF85EEC2CF2D9121938F5FE1
:101BA000CFCF8E159F05DCF68BE492E0D7CFCE5FCA
:101BB0006C2F70E04EEE53E087E7DF91CF911F91DD
:101BC0000F91FF90EF9039C8CF93DF93DB01909195
:101BD0004B04903370F530914C04682F70E0FB019A
:101BE000E35BFB4F3323D9F0C32FD0E0C354DC4F6A
:101BF00088818083315030934C04808123E0829F20
:101C0000C00111248957974F1A161B066CF414163D
:101C1000150654F49A01AD01DF91CF91B6C99083B6
:101C20009F5F90934B04E9CF20E639E040E252E019
:101C3000F3CF87E692E0DF91CF910DCF8F929F9205
:101C4000BF92CF92DF92EF92FF920F931F93CF93A9
:101C5000DF93C82ED12CE601CC56D94FFE01ED57AB
:101C6000FF4F90819F3709F41FC1963061F4909126
:101C70009C04992341F06630710529F010929C0470
:101C80009FEF909301028B01F82EEEEFEE2EE80EFF
:101C900083E48E1500F164307105E9F0F601E35B31
:101CA000FB4F80818033B8F490E0FC01EE0FFF1F02
:101CB000E80FF91FE957F74FE0818E2F90E0FC0104
:101CC000EE0FFF1FE80FF91FEA50F84F808186FFE3
:101CD00002C08F2D8DDE5AECB52EBF0C8FE08B1518
:101CE00048F061E070E00230110511F070E060E052
:101CF0008B2D35DB83E48E15C0F0EF2DE695E69550
:101D0000E695F0E0E35DFA4F20813F2D377081E0EA
:101D100090E001C0880F3A95EAF70115110519F016
:101D20000B30110559F5822B80834601880C991CD4
:101D3000F401E35AF84F118210820630110509F4BC
:101D4000F1C00CF05CC00230110509F48EC0CCF477
:101D50000115110509F49BC00130110509F4B0C04B
:101D60008BE792E0DF91CF911F910F91FF90EF9061
:101D7000DF90CF90BF909F908F906DCE8095822303
:101D8000D3CF0330110509F4B3C00430110541F776
:101D900083E48E1508F488C0CD57DF4F88818F37D4
:101DA00011F084E08883F601E35BFB4F80818F3F75
:101DB000A9F090E0FC01EE0FFF1FE80FF91FE957B3
:101DC000F74FE0818E2F90E0FC01EE0FFF1FE80F30
:101DD000F91FEA50F84F808186FD66C04FEF5FEF34
:101DE0006FEF7FEF8F2DDF91CF911F910F91FF90BC
:101DF000EF90DF90CF90BF909F908F90E5CE0C300A
:101E0000110509F49CC0FCF40A30110509F44CC01A
:101E10000B30110509F0A4CF83E48E1508F444C0FB
:101E200062E08F2D0E947004CD57DF4F88818F377D
:101E300011F08BE08883F401E35AF84F81E090E0E1
:101E40009183808331C00F30110509F480C00036C2
:101E5000110551F10D30110509F082CFCD57DF4F3B
:101E600088818F3709F18DE010C08FE08B15E0F08D
:101E700083E48E1520F060E08F2D0E947004CD5712
:101E8000DF4F88818F3781F082E088830DC083E443
:101E90008E1550F060E08F2D0E947004CD57DF4FFB
:101EA00088818F3709F01882DF91CF911F910F91B0
:101EB000FF90EF90DF90CF90BF909F908F9008950C
:101EC00083E48E1588F3FE01ED57FF4F8081833048
:101ED00021F460E08F2D0E94FF0361E08F2D0E94AE
:101EE0007004CD57DF4F88818F37F1F281E0CDCF7D
:101EF0008BE08E1520F484ED8F0D8330A8F661E021
:101F00008F2D0E94700461E08F2D0E94700460E0AC
:101F10008F2D0E94FF03CD57DF4F88818F3721F22D
:101F200083E0B3CF8CEE8F0D823008F0BDCFCD575C
:101F3000DF4F88818F3709F4B7CF86E0A6CFCD5722
:101F4000DF4F88818F3709F4AFCF8CE09ECFCD571C
:101F5000DF4F88818F3709F4A7CF8FE096CF0F939B
:101F60001F93CF93DF9381E080939D0480919C0425
:101F7000882329F010929C048FEF80930102E6E3FE
:101F8000F5E0CDE2D5E0A3E9B4E0119219921D92FB
:101F900085E0EF33F807C9F70DE414E0C0E0DFEFA8
:101FA0008AEC8C0F62E070E08031C8F18EEF8C0F0C
:101FB00061E070E0843498F58C2F0E942C04F801C5
:101FC000D1938F01CF5FC63459F71092A3051092B9
:101FD000A205EBE8F5E0A4E9B5E081E995E02FE79B
:101FE00021934D915D91452B21F0ED0122971982AE
:101FF00018828E179F07A1F7109272051092710533
:1020000010924C0410924B04109286051092850594
:1020100010929D04DF91CF911F910F9108958C2F05
:102020000DDECDCF4F925F926F927F928F929F92F3
:10203000AF92BF92CF92DF92EF92FF920F931F93D6
:10204000CF93DF93CDB7DEB72D970FB6F894DEBFF1
:102050000FBECDBF162F7A01893609F43CC408F0B3
:1020600005C1813509F480C108F0B9C0813309F494
:1020700041C7803509F42DC3803309F08BC1DA01E3
:10208000FC914F2F50E08091190990911A0948173F
:10209000590708F04DC012967C91129777957727D3
:1020A000779511968C911197780F14966C911497DF
:1020B00067956627679513968C911397680F169608
:1020C0002C91169727952227279515963C91320F2C
:1020D00020911F09222359F0729FC0011124792FEA
:1020E000269FC0011124692F239F90011124E091A4
:1020F0002509809120099091210920912209E2135C
:10210000A4C7B3E0FB9F800D911D1124E09122092B
:10211000E80FF92FF11D7083E0912309E80FF92FE3
:10212000F11D608320912409820F911DFC013083F1
:10213000E0912009F0912109309709F42BC1809199
:102140001B0990911C099A838983DF011196808174
:102150008987E0912A09F0912B0920912C09322FCF
:102160003095809117099081922B9887882309F4E4
:1021700077C7808183238F838F818C8388E08B83D3
:1021800058856F8149853B812C8189819A81508353
:1021900047FD252F3A952083262F39F0441F00C094
:1021A00000006083000000C0F2CF38E04D916083F2
:1021B0000000019761F7F0932B09E0932A09498702
:1021C0003B832C839A8389830E94C90460932609E8
:1021D000709327098093280990932909DBC08236E0
:1021E00009F425C6843609F470C78F3509F0D2C0CA
:1021F000DA019C9111968C9111979111FDC513965E
:102200008C90B0E88B9E40011124FA012281820E4D
:10221000911CA580F0E8AF9E90011124DA0114967C
:10222000AC90A20EB32EB11C90910002891709F454
:1022300063C39F3F09F0AEC080930002E4E0F2E088
:102240001491912F1F3F09F4A5C0123009F422C444
:1022500008F0B8C3112309F4DFC3113009F4F8C33F
:1022600097FD98C061E00E94700450C3803709F464
:10227000DCC108F052C08D3609F4E8C28F3609F48B
:102280007BC28B3609F086C080EF0E9487018CE606
:102290000E9487011EEF8CEC810F803108F0CCC2C8
:1022A00082E00E9487018AE00E94870186ED810F0B
:1022B000833008F4C4C2143430F484E00E948701EF
:1022C0008EE00E9487018EEE810F823030F486E02E
:1022D0000E94870181E00E9487018FE70E948701A9
:1022E0001F5F143409F080C287EF2D960FB6F89463
:1022F000DEBF0FBECDBFDF91CF911F910F91FF9039
:10230000EF90DF90CF90BF90AF909F908F907F9095
:102310006F905F904F900C948701883709F42CC11F
:102320008A3709F4FAC18637A9F5DA0111969C912A
:10233000119795FF21C08CE892E02D960FB6F89486
:10234000DEBF0FBECDBFDF91CF911F910F91FF90E8
:10235000EF90DF90CF90BF90AF909F908F907F9045
:102360006F905F904F9077CB80EF0E94870182E55E
:102370000E94870181E0ACC2FA01808196FB33277D
:1023800030F921E023279871983009F44BC0C8F444
:10239000992329F12D960FB6F894DEBF0FBECDBF5D
:1023A000DF91CF911F910F91FF90EF90DF90CF9031
:1023B000BF90AF909F908F907F906F905F904F9065
:1023C0000895903109F45FC0983121F720910102FE
:1023D00012160CF48CC08FEF80930102DBCF91E0DA
:1023E0009093D3058093F5051092D4051092F605CD
:1023F00002E0011778F4F701E00FF11D61816795A4
:10240000662767958081680F8AEE97E00E9494079F
:102410000E5FEFCF81E00E94940183E191E001978C
:10242000F1F7B8CF12969C91129713964C916630A3
:1024300019F5B0E84B9FB0011124690F711D45815A
:102440004795442747959481490F2D960FB6F894E8
:10245000DEBF0FBECDBFDF91CF911F910F91FF90D7
:10246000EF90DF90CF90BF90AF909F908F907F9034
:102470006F905F904F90FACA479544274795490F50
:102480006FEF7FEFE2CFE0910102E7301CF08CEAC2
:1024900092E053CF12963C91129713969C9166301E
:1024A000F9F4B0E89B9FA0011124430F511DD701FF
:1024B00015969C91159797959927979514963C9109
:1024C000930FEF5FE0930102B5E0EB02F0011124FE
:1024D000E75BFA4F808352834183938324835ACFEF
:1024E000979599279795930F4FEF5FEFEACF90E07D
:1024F000622F022E000C770B35E0492F50E0641755
:10250000750764F0349FF001359FF00D1124E75BEF
:10251000FA4F4081481719F09F5FEFCF90E085E0B8
:10252000492F50E0641775071CF19830F8F4FA0150
:1025300031968E9FD0018F9FB00D1124A75BBA4FAB
:102540003C91849FF001859FF00D1124E75BFA4FC9
:10255000308311964D915C9112975283418313966B
:102560003C911397338314963C9134839F5FD8CF6B
:102570002150209301020ECF623088F0FA01818150
:10258000F0E88F9F90011124DA018C91820F932F34
:10259000911D009721F090934A0480934904809103
:1025A0009C048111F7CE10E08CEE810F823020F474
:1025B00066E070E0812F42DB1F5F1634A9F781E0EF
:1025C00080939C041092C9041092C8041092D40500
:1025D0001092F6051092D2058093D1051092AC05A9
:1025E00061E084E10E94FF0361E085E10E94FF0356
:1025F0008091B9008E7F8093B9008091B9008D7F62
:102600008093B90088E48093B80085E48093BC008F
:102610008CE397E09093EB048093EA048DE397E0DA
:102620009093EF048093EE04B5CE653008F4B2CEFB
:10263000FA0110818EEF810F843408F0ABCE018156
:10264000C280D380F480E12FF0E0E35BFB4F808118
:102650008033B8F490E0FC01EE0FFF1FE80FF91F84
:10266000E957F74FE0818E2F90E0FC01EE0FFF1F3E
:10267000E80FF91FEA50F84F808186FF02C0812FD2
:10268000B7D9F0E8FF9EA00111244D0D511D20E89F
:10269000C29EB0011124600F711D812F95DA64E094
:1026A00070E0812F2D960FB6F894DEBF0FBECDBF20
:1026B000DF91CF911F910F91FF90EF90DF90CF901E
:1026C000BF90AF909F908F907F906F905F904F9052
:1026D000B5CADA0111968C91B0E88B9F9001112454
:1026E000FA018081820F932F911D9093480580936A
:1026F00047052FB7F89480913F0590914005A09130
:102700004105B09142052FBF809343059093440546
:10271000A0934505B09346053DCE623008F43ACE0D
:10272000DA0111968C91B0E88B9F90011124FA0187
:102730008081820F932F911D0097D9F0909303020F
:1027400080930202209102023091030288E290E01D
:10275000B9010E94C6267093A5056093A40580ED7B
:1027600097E0B9010E94C62670938805609387059B
:1027700011CE81E090E0E2CF623008F40BCEDA01B6
:1027800011966C91119770E01230A1F012968C9115
:10279000B0E88B9FC0011124682B792B133051F0C6
:1027A000FA01838190E090E4899F902D882711247D
:1027B000682B792BD7018C912D960FB6F894DEBF3C
:1027C0000FBECDBFDF91CF911F910F91FF90EF9082
:1027D000DF90CF90BF90AF909F908F907F906F9041
:1027E0005F904F900C949C0A143408F054CD80E014
:1027F0000E94870181E00E9487018BE00E9487018F
:1028000081E00E94870181E00E94870181E00E94AF
:10281000870188E00E94870181E00E9487018CE0A7
:102820000E94870181E00E9487018DE00E9487015C
:1028300081E00E9487012FCD1C3008F037CD83E066
:102840000E94870188E00E94870135CD662309F444
:10285000A1CDFA01008180EF0E9487018EE60E94DF
:102860008701802F0E948701063408F03DCD10E0DB
:10287000F801E95EF84F80810E948701000F111F67
:102880009801235A384F7901D9018C918F770E9492
:102890008701F701808191819C012078232B39F0F9
:1028A000880F892F881F990B8F770E948701F80165
:1028B000E35AF84F808191819C012227307C232BA1
:1028C00009F412CD990F880B990F982F881F8F77D5
:1028D0000E94870109CD80EF0E9487018AE60E944D
:1028E00087011AEC8FE7103108F4812F0E948701CD
:1028F0001F5F1031B9F7F8CCE4E0F2E0149117FD56
:1029000049CD61E00E947004112319F0123009F0E2
:10291000A4C12401092C000C6608770860E072E16C
:102920008AE790E0A30192010E945D262A873B87F7
:102930004C875D8769017A01B1E0CB1AD108E108C3
:10294000F108EFEFCE16D104E104F10409F00CF424
:1029500057C160E472E48FE090E0A30192010E940D
:102960005D2669017A01F1E0CF1AD108E108F1088A
:10297000123009F0FAC082E02FEFC216D104E10450
:10298000F104C9F0C4F060E970ED83E090E0A301C8
:1029900092010E945D2669017A0161E0C61AD108A0
:1029A000E108F1088FEFC816D104E104F10411F039
:1029B0000CF016C483E09091B100987F892B80932E
:1029C000B10025C1143009F4AEC008F489C0153037
:1029D00009F046CC10922001109221019091210122
:1029E0009860909321019091210191609093210131
:1029F000282F30E0F901EE5CFE4FE491F0E0EE0F9D
:102A0000FF1FE250FF4F45915491F901E858FE4FE6
:102A1000E491E0932E0475CF14BC15BC94B592607C
:102A200094BD95B5916095BD282F30E0F901EE5C1D
:102A3000FE4FE491F0E0EE0FFF1FE250FF4F459193
:102A40005491F901E858FE4FE491E093320459CFD4
:102A50001092800010928100909181009860909374
:102A6000810090918100916090938100282F30E047
:102A7000F901EE5CFE4FE491F0E0EE0FFF1FE25033
:102A8000FF4F45915491F901E858FE4FE491E093CE
:102A9000310437CF1092B0001092B1009091B00085
:102AA00092609093B0009091B10091609093B100CA
:102AB000282F30E0F901EE5CFE4FE491F0E0EE0FDC
:102AC000FF1FE250FF4F45915491509317054093DB
:102AD0001605F901E858FE4FE491E093180511CF6F
:102AE00010929000109291009091910098609093B4
:102AF000910090919100916090939100282F30E087
:102B0000F901EE5CFE4FE491F0E0EE0FFF1FE250A2
:102B1000FF4F45915491F901E858FE4FE491E0933D
:102B2000300413E0EECE1092A0001092A10090911C
:102B3000A10098609093A1009091A1009160909362
:102B4000A100282F30E0F901EE5CFE4FE491F0E0A7
:102B5000EE0FFF1FE250FF4F45915491F901E858E5
:102B6000FE4FE491E0932F04CCCE9FEFC916D10421
:102B7000E104F10409F00CF46EC068E478EE81E041
:102B800090E0A30192010E945D2669017A01A1E013
:102B9000CA1AD108E108F108112309F43AC3BFEFBA
:102BA000CB16D104E104F10409F00CF430C33AC3AC
:102BB00064E274EF80E090E0A30192010E945D2640
:102BC00069017A01B1E0CB1AD108E108F10885E08A
:102BD000EFEFCE16D104E104F10409F008F4EBCED6
:102BE00062E17AE780E090E0A30192010E945D2615
:102BF00069017A01A1E0CA1AD108E108F10824C3E9
:102C000081E01111D8CE95B5987F892B85BD2FEF26
:102C10003FEFA901A114B10409F059C0123009F421
:102C2000DBC00CF0C3C0112309F4C7C0113009F098
:102C3000B1CBD0928900C092880020933F0430939A
:102C40004004409341045093420480916F0082609D
:102C500080936F009FCB82E0D4CF2401092C000C1D
:102C60006608770860E072E18AE790E0A3019201CC
:102C70000E945D2669017A0161E0C61AD108E10867
:102C8000F10891E0C114D10481E0E806F10484F078
:102C900068E478EE81E090E0A30192010E945D2655
:102CA00069017A0191E0C91AD108E108F10893E0BD
:102CB0001130D1F480918100887F892B809381002D
:102CC0002FEF3FEFA901A114B10409F4B2CF940191
:102CD000220F331FD5010E94F52628EE33E040E095
:102CE00050E00E9489269ACF1330F1F48091910030
:102CF000887F892B809391002FEF3FEFA901A114CA
:102D0000B10429F7D0929900C092980020933B0417
:102D100030933C0440933D0450933E0480917100F5
:102D200082608093710036CB1430F1F48091A10061
:102D3000887F892B8093A1002FEF3FEFA901A11479
:102D4000B10429F6D092A900C092A80020933704BC
:102D5000309338044093390450933A0480917200C0
:102D600082608093720016CB153009F050CF8091AD
:102D70002101887F892B809321012FEF3FEFA9014B
:102D8000A114B10409F0A3CFD0922901C092280167
:102D90002093330430933404409335045093360425
:102DA00080917300826080937300F4CA143051F2F2
:102DB0000CF4A8CF153041F3EDCAC7BC20934304EF
:102DC00030934404409345045093460480916E0030
:102DD000826080936E00DECAC092B3002093190512
:102DE00030931A0540931B0550931C058091700089
:102DF000826080937000CECA913009F0CBCA2D96C4
:102E00000FB6F894DEBF0FBECDBFDF91CF911F91FB
:102E10000F91FF90EF90DF90CF90BF90AF909F9079
:102E20008F907F906F905F904F900C942C04209126
:102E3000A2053091A305263031050CF058C0DA0107
:102E40008C918093480411969C911197909347041C
:102E50001396CC90B0E8CB9EA0011124F701C2805C
:102E6000C40ED52ED11C0D2C000CEE08FF082557E2
:102E70003A4FD9018C936CE070E00E941E0E6CE01A
:102E800070E0809147040E941E0E8BE090E00E944B
:102E9000FB268C012091470480914804F80180832F
:102EA000218391E0281390E0D80112969C9361E071
:102EB0000E94700460E0F80181810E947004D801D2
:102EC0001796CD92DD92ED92FC921A978091A20511
:102ED0009091A305FC01EE0FFF1FEC56FA4F1183F2
:102EE000008301969093A3058093A20553CA8DEBAE
:102EF00092E023CAFA01B0800B2D10E08281879501
:102F0000882787959181890FE82EF12C80912009DF
:102F100090912109009711F00E949727909125091F
:102F200080912209981385C083E090E0E89E6001BB
:102F3000E99ED00CF89ED00C1124D0921C09C092AE
:102F40001B09C6010E94FB2690932109809320094A
:102F5000009709F471C0A60170E060E00E9420288B
:102F6000F0921A09E092190980911809882349F012
:102F700080911D0990911E0997FD03C060E00E9499
:102F8000700410931E0900931D098091180988236D
:102F900041F061E08B2D0E94700460E08B2D0E9457
:102FA000FF03F801EE5CFE4FE491F0E0EE0FFF1F2F
:102FB000E250FF4F8591949190932B0980932A09B9
:102FC000F801E858FE4FE491E0932C0980911D0927
:102FD00090911E0997FD08C061E00E94700460E0B6
:102FE00080911D090E94FF0381E0809318094091A0
:102FF0001B0950911C0970E060E0809120099091BC
:1030000021092D960FB6F894DEBF0FBECDBFDF911C
:10301000CF911F910F91FF90EF90DF90CF90BF90D5
:10302000AF909F908F907F906F905F904F900C9497
:10303000202884E090E07ACF10921C0910921B099E
:1030400010921A09109219098FCF440F551F440F7F
:10305000551F840F951FE80FF92FF11D108256C8D8
:10306000808183238F838F818E8388E08D83588531
:103070006F8149853D812E8189819A81508347FDE9
:10308000252F00C000C0208300C000C000C000C0C9
:1030900000C060830000262F3A9541F0441F0000D5
:1030A00000C000C000C000C000C0E8CF38E04D91B3
:1030B00000C0608300C0019709F7F0932B09E093EB
:1030C0002A0949873D832E837DC88091850590918B
:1030D0008605863091050CF065C0DA01CC9011961A
:1030E000DC902D2D30E02631310551F521E0FC0139
:1030F000E256FB4F2083FC01E258FA4FC082885809
:103100009A4FFC01D0826FE070E08C2D0E941E0E61
:103110000091850510918605C8010E9427097C0150
:10312000892BB1F4B8016F5F7F4F70938605609370
:10313000850580918705909188050E94DA2614CB39
:103140002B30310511F422E1D2CF8AEF92E0F5C89D
:1031500080EF0E94870185E60E9487018C2D0E94E6
:1031600087018D2D0E94870103E715E027E7C22E16
:1031700025E0D22ED8018D918D018F770E94870195
:10318000F80131978081881F8827881F0E94870156
:10319000C016D10679F7C701F7FEEAC89195819567
:1031A0009109E6C88FE293E0C8C884E0EFEFCE163D
:1031B000D104E104F10409F008F425CDCA84DB84CC
:1031C000EC84FD849AE0F594E794D794C7949A959B
:1031D000D1F7B1E0CB1AD108E108F10885E013CDB1
:1031E00068E478EE81E090E0A30192010E945D2600
:1031F00069017A0161E0C61AD108E108F1088FEF90
:10320000C816D104E104F10411F00CF0D1CC84E033
:10321000D2CB83E09FEFC916D104E104F10409F099
:103220000CF4F1CC62E17AE780E090E0A301920136
:103230000E945D2669017A01F1E0CF1AD108E10808
:10324000F108112309F4B1CF86E02FEFC216D104A3
:10325000E104F10409F008F4AECBCA84DB84EC8409
:10326000FD848AE0F594E794D794C7948A95D1F7C2
:10327000F1E0CF1AD108E108F10887E09CCB1F925A
:103280000F920FB60F9211240BB60F922F933F930C
:103290004F935F936F937F938F939F93AF93BF935E
:1032A000EF93FF938091190590911A05A0911B054A
:1032B000B0911C05892B8A2B8B2BE1F1909118057D
:1032C000E0911605F0911705808189278083809110
:1032D000190590911A05A0911B05B0911C051816AF
:1032E00019061A061B069CF48091190590911A057F
:1032F000A0911B05B0911C050197A109B10980930C
:10330000190590931A05A0931B05B0931C05FF9116
:10331000EF91BF91AF919F918F917F916F915F914D
:103320004F913F912F910F900BBE0F900FBE0F90BA
:103330001F901895809100020E942C04E8CF1F92E4
:103340000F920FB60F9211240BB60F922F933F934B
:103350004F935F936F937F938F939F93AF93BF939D
:10336000EF93FF9387EF95E00E94B302FF91EF91F7
:10337000BF91AF919F918F917F916F915F914F918D
:103380003F912F910F900BBE0F900FBE0F901F908B
:1033900018951F920F920FB60F9211240BB60F9231
:1033A0002F938F939F93EF93FF93E0910706F091F4
:1033B00008068081E0910D06F0910E0682FD1DC089
:1033C0009081809110068F5F8F7320911106821774
:1033D00041F0E0911006F0E0E950FA4F958F8093AC
:1033E0001006FF91EF919F918F912F910F900BBE3F
:1033F0000F900FBE0F901F9018958081F2CF1F92F3
:103400000F920FB60F9211242F933F938F939F9398
:10341000AF93BF9380913F0590914005A0914105E6
:10342000B09142053091110523E0230F2D3758F557
:103430000196A11DB11D2093110580933F05909326
:103440004005A0934105B0934205809112059091EB
:103450001305A0911405B09115050196A11DB11D8C
:103460008093120590931305A0931405B09315054E
:10347000BF91AF919F918F913F912F910F900FBE70
:103480000F901F90189526E8230F0296A11DB11DDD
:10349000D2CF1F920F920FB60F9211240BB60F923C
:1034A0002F933F934F935F936F937F938F939F934C
:1034B000AF93BF93EF93FF938091B900887F8036DD
:1034C00009F44DC008F040C0883209F4A9C028F5BD
:1034D000803109F49DC0C8F4882309F4FBC088300A
:1034E00009F496C0FF91EF91BF91AF919F918F9199
:1034F0007F916F915F914F913F912F910F900BBEF4
:103500000F900FBE0F901F901895883109F488C056
:10351000803241F78093D00514C0803409F49DC0F7
:1035200040F48033B9F38833E9F68093D00585EC15
:10353000B0C0803509F485C0883509F496C0883458
:1035400089F60E940B07CECF883909F48CC038F574
:10355000883729F050F4883611F0803719F683E067
:103560008093D2051092100557C0883809F47BC0AB
:10357000803919F0803809F0B5CF8091100580327C
:1035800008F071C0E091100581E08E0F8093100566
:103590008091BB00F0E0E051FB4F80833DC0803B59
:1035A00039F0E0F4803A09F479C0883A09F09ACF0A
:1035B00084E08093D2051092ED041092EC04E09127
:1035C000EA04F091EB0419958091EC0481110FC08D
:1035D00081E08093EC041092CA0409C0803C09F495
:1035E000A6CF883C09F4A3CF883B09F07BCFE091BC
:1035F000ED0481E08E0F8093ED04F0E0E653FB4F85
:1036000080818093BB009091ED048091EC0429C0EF
:103610008091AD058093BB0085EC8093BC0062CFA8
:103620009091CF058091CE05981758F5E091CF0580
:1036300081E08E0F8093CF05F0E0E255FA4F808154
:10364000E9CFE091CF0581E08E0F8093CF05809187
:10365000BB00F0E0E255FA4F80839091CF05809156
:10366000CE059817C8F285E8D8CFE091CF0581E064
:103670008E0F8093CF058091BB00F0E0E255FA4FAA
:1036800080838091D10581115CCF81E08093AC056E
:1036900084EA8093BC001092D20524CF85EC8093FD
:1036A000BC001092D20580911005803230F4E09178
:1036B0001005F0E0E051FB4F10826091100570E0C2
:1036C000E091EE04F091EF0480EF94E019951092F0
:1036D000100508CF1092D00534CF1F920F920FB66D
:1036E0000F9211240BB60F922F933F934F935F933A
:1036F0006F937F938F939F93AF93BF93EF93FF93BA
:1037000048E251E064E271E090E080E00E946F08DE
:10371000FF91EF91BF91AF919F918F917F916F91A9
:103720005F914F913F912F910F900BBE0F900FBE65
:103730000F901F9018951F920F920FB60F921124A1
:103740000BB60F922F933F934F935F936F937F939B
:103750008F939F93AF93BF93EF93FF9348EA50E00B
:1037600064EA70E083E090E00E946F08FF91EF91BF
:10377000BF91AF919F918F917F916F915F914F9189
:103780003F912F910F900BBE0F900FBE0F901F9087
:1037900018951F920F920FB60F9211240BB60F922D
:1037A0002F933F934F935F936F937F938F939F9349
:1037B000AF93BF93EF93FF9348E950E064E970E063
:1037C00082E090E00E946F08FF91EF91BF91AF916E
:1037D0009F918F917F916F915F914F913F912F9129
:1037E0000F900BBE0F900FBE0F901F9018951F9259
:1037F0000F920FB60F9211240BB60F922F933F9397
:103800004F935F936F937F938F939F93AF93BF93E8
:10381000EF93FF9348E850E064E870E081E090E0C7
:103820000E946F08FF91EF91BF91AF919F918F918F
:103830007F916F915F914F913F912F910F900BBEB0
:103840000F900FBE0F901F9018951092FA051092CE
:10385000F90548EE53E060E070E04093FB055093BB
:10386000FC056093FD057093FE058EE092E0909359
:10387000F8058093F70585EC90E09093040680931B
:10388000030684EC90E0909306068093050680EC96
:1038900090E0909308068093070681EC90E0909367
:1038A0000A068093090682EC90E090930C068093C0
:1038B0000B0686EC90E090930E0680930D06109216
:1038C000100610921106109212061092130624E9A7
:1038D00036E01092D5061092D4063093D806209385
:1038E000D70680E490E09093DA068093D906109290
:1038F000DB061092DC061092DE061092DD061092B6
:10390000DF061092E1061092E0061092E306109294
:10391000E2061092E5061092E4061092E706109275
:10392000E6061092E9061092E8061092EB06109255
:10393000EA061092ED061092EC061092F306109231
:10394000F2061092F5061092F4061092F706109205
:10395000F6061092F9061092F806109207071092D8
:1039600006071092D60610921407109216071092AE
:10397000150781E08093E907E7E3F1E0F093FB06A8
:10398000E093FA06E1E4F1E0F093FD06E093FC0633
:10399000EBE4F1E0F093FF06E093FE06E5E5F1E0ED
:1039A000F0930107E0930007EFE5F1E0F0930307E0
:1039B000E0930207E9E6F1E0F0930507E0930407DE
:1039C000E3E7F1E0F0930907E0930807E4E7F1E0AB
:1039D000F0930B07E0930A07E5E9F6E0F0930D0793
:1039E000E0930C073093EF062093EE06E9E6F6E04D
:1039F000F0930F07E0930E073093F1062093F00643
:103A00002FE731E030931107209310071092ED0754
:103A10001092EC074093EE075093EF076093F00786
:103A20007093F10720E232E03093EB072093EA072E
:103A3000109218092FEF3FEF30931E0920931D09B4
:103A400010921F0910922109109220091092260944
:103A500010922709109228091092290980932509AC
:103A6000809322091092230992E090932409809375
:103A70001709E7E8F8E048EB5BE0809186088033BF
:103A8000B8F491E0980F90938608808390E0DC0171
:103A9000AA0FBB1FA80FB91FAA50B84F12965C936C
:103AA0004E931197339689E0E731F80731F708957F
:103AB0002083F8CFCF93DF9300D0CDB7DEB77894D3
:103AC00084B5826084BD84B5816084BD85B5826023
:103AD00085BD85B5816085BD80916E0081608093D4
:103AE0006E0010928100809181008260809381003D
:103AF000809181008160809381008091800081604D
:103B0000809380008091B10084608093B1008091A7
:103B1000B00081608093B0008091910082608093BA
:103B2000910080919100816080939100809190003C
:103B30008160809390008091A10082608093A100B9
:103B40008091A10081608093A1008091A00081609C
:103B50008093A00080912101826080932101809157
:103B600021018160809321018091200181608093F7
:103B7000200180917A00846080937A0080917A009D
:103B8000826080937A0080917A00816080937A00CD
:103B900080917A00806880937A001092C10084E15D
:103BA0008093140780911507909116070E9497271C
:103BB00020911407822F90E09B838A8301960E94B4
:103BC000FB269093160780931507EA81FB81E80F87
:103BD000F91F108202E0DC010C9316E011961C9391
:103BE0004A815B81425051096BEA73E002960E9460
:103BF00027288CE99AE090932805809327058AED81
:103C000099E090932605809325058FEA99E090939B
:103C10002405809323058CE79CE0909322058093F4
:103C200021058EE19EE09093200580931F0585E29B
:103C30009CE090931E0580931D0582E190E1909396
:103C40002A05809329058FEA9FE090932C058093A5
:103C50002B05E0910706F09108060083E09103062A
:103C6000F09104061082E0910506F091060680E1CD
:103C7000808310920F06E0910B06F0910C061083E2
:103C8000E0910906F0910A06808180618083E091CD
:103C90000906F0910A06808188608083E091090618
:103CA000F0910A06808180688083E0910906F09196
:103CB0000A0680818F7D80838091E907811153C03E
:103CC00061E08DE00E94700462ED70E080E090E0C1
:103CD0000E94EE0461E08DE00E94FF0368E270E064
:103CE00080E090E00E94EE0460E08DE00E94FF031F
:103CF00062ED70E080E090E00E94EE0461E08DE013
:103D00000E94FF0368E270E080E090E00E94EE0411
:103D100060E08DE00E94FF036AEF70E080E090E0D9
:103D20000E94EE04B6E0B98362ED70E080E090E0BE
:103D30000E94EE0461E08DE00E94FF0368E270E003
:103D400080E090E00E94EE0460E08DE00E94FF03BE
:103D5000E981E150E983E111E7CF6DE770E080E0B0
:103D600090E00E94EE0487EF95E090931307809314
:103D700012079093D5068093D4060E94AF0F28EEC9
:103D8000422E23E0522E37E7632E35E0732E43E0B8
:103D9000C42ED12C53E2A52EB12C68E3862E912C93
:103DA00080913605882309F442C0F0912D05FA83ED
:103DB000F2FDABC319823A8133FF08C083E00E9451
:103DC000D703892B19F08981886089839A8194FFB0
:103DD00008C084E00E94D703892B19F0A981A06153
:103DE000A983BA81B5FF08C085E00E94D703892B5B
:103DF00019F0E981E062E983FA81F6FF08C086E004
:103E00000E94D703892B19F02981206429833A81E4
:103E100037FF08C087E00E94D703892B19F08981FA
:103E20008068898340E0698180E00E943A0C80913B
:103E30003705882309F462C090912E059A8391700A
:103E40009983AA81A0FF08C088E00E94D703B1E04F
:103E5000B983892B09F41982EA81E1FF08C089E05E
:103E60000E94D703892B19F0F981F260F9832A8126
:103E700022FF08C08AE00E94D703892B19F03981FC
:103E8000346039838A8183FF08C08BE00E94D703A6
:103E9000892B19F0998198609983AA81A4FF08C0A1
:103EA0008CE00E94D703892B19F0B981B061B983E6
:103EB000EA81E5FF08C08DE00E94D703892B19F045
:103EC000F981F062F9832A8126FF08C08EE00E9402
:103ED000D703892B19F03981306439838A8187FFB0
:103EE00008C08FE00E94D703892B19F09981906850
:103EF000998340E0698181E00E943A0C8091380505
:103F0000882309F462C0A0912F05AA83A170A98318
:103F1000BA81B0FF08C080E10E94D703E1E0E983E5
:103F2000892B09F41982FA81F1FF08C081E10E940E
:103F3000D703892B19F02981226029833A8132FF26
:103F400008C082E10E94D703892B19F0898184601F
:103F500089839A8193FF08C083E10E94D703892B4C
:103F600019F0A981A860A983BA81B4FF08C084E1CF
:103F70000E94D703892B19F0E981E061E983FA8176
:103F8000F5FF08C085E10E94D703892B19F029812C
:103F9000206229833A8136FF08C086E10E94D70358
:103FA000892B19F08981806489839A8197FF08C0E1
:103FB00087E10E94D703892B19F0A981A068A98302
:103FC00040E0698182E00E943A0C809139058823A3
:103FD00009F462C0B0913005BA83B170B983EA8147
:103FE000E0FF08C088E10E94D703F1E0F983892B44
:103FF00009F419822A8121FF08C089E10E94D703B0
:10400000892B19F03981326039838A8182FF08C097
:104010008AE10E94D703892B19F0998194609983D2
:10402000AA81A3FF08C08BE10E94D703892B19F056
:10403000B981B860B983EA81E4FF08C08CE10E94CD
:10404000D703892B19F0F981F061F9832A8125FFC3
:1040500008C08DE10E94D703892B19F039813062A5
:1040600039838A8186FF08C08EE10E94D703892B9D
:1040700019F0998190649983AA81A7FF08C08FE104
:104080000E94D703892B19F0B981B068B98340E049
:10409000698183E00E943A0C80913A05882309F4F3
:1040A00062C0E0913105EA83E170E983FA81F0FFB3
:1040B00008C080E20E94D70321E02983892B09F4FC
:1040C00019823A8131FF08C081E20E94D703892B0F
:1040D00019F08981826089839A8192FF08C082E207
:1040E0000E94D703892B19F0A981A460A983BA8102
:1040F000B3FF08C083E20E94D703892B19F0E9813E
:10410000E860E983FA81F4FF08C084E20E94D703E3
:10411000892B19F02981206129833A8135FF08C054
:1041200085E20E94D703892B19F0898180628983F7
:104130009A8196FF08C086E20E94D703892B19F066
:10414000A981A064A983BA81B7FF08C087E20E9451
:10415000D703892B19F0E981E068E98340E06981A0
:1041600084E00E943A0C80913B05882309F462C0E8
:10417000F0913205FA83F170F9832A8120FF08C09B
:1041800088E20E94D70331E03983892B09F4198230
:104190008A8181FF08C089E20E94D703892B19F028
:1041A000998192609983AA81A2FF08C08AE20E9445
:1041B000D703892B19F0B981B460B983EA81E3FF91
:1041C00008C08BE20E94D703892B19F0F981F860AF
:1041D000F9832A8124FF08C08CE20E94D703892B2F
:1041E00019F03981306139838A8185FF08C08DE2F9
:1041F0000E94D703892B19F0998190629983AA8133
:10420000A6FF08C08EE20E94D703892B19F0B9815E
:10421000B064B983EA81E7FF08C08FE20E94D70348
:10422000892B19F0F981F068F98340E0698185E014
:104230000E943A0C80913C05882309F462C02091C9
:1042400033052A83217029833A8130FF08C080E337
:104250000E94D703A1E0A983892B09F41982BA81AE
:10426000B1FF08C081E30E94D703892B19F0E981CF
:10427000E260E983FA81F2FF08C082E30E94D7037B
:10428000892B19F02981246029833A8133FF08C0E2
:1042900083E30E94D703892B19F089818860898381
:1042A0009A8194FF08C084E30E94D703892B19F0F8
:1042B000A981A061A983BA81B5FF08C085E30E94E6
:1042C000D703892B19F0E981E062E983FA81F6FFCF
:1042D00008C086E30E94D703892B19F02981206446
:1042E00029833A8137FF08C087E30E94D703892BCF
:1042F00019F089818068898340E0698186E00E94A5
:104300003A0C80913D05882309F462C090913405F0
:104310009A8391709983AA81A0FF08C088E30E94C4
:10432000D703B1E0B983892B09F41982EA81E1FF4F
:1043300008C089E30E94D703892B19F0F981F26044
:10434000F9832A8122FF08C08AE30E94D703892BC0
:1043500019F03981346039838A8183FF08C08BE387
:104360000E94D703892B19F0998198609983AA81BB
:10437000A4FF08C08CE30E94D703892B19F0B981F0
:10438000B061B983EA81E5FF08C08DE30E94D703DD
:10439000892B19F0F981F062F9832A8126FF08C080
:1043A0008EE30E94D703892B19F039813064398359
:1043B0008A8187FF08C08FE30E94D703892B19F0F9
:1043C00099819068998340E0698187E00E943A0C66
:1043D00080913E05882309F44CC0A0913505AA833D
:1043E000A170A983BA81B0FF08C080E40E94D703FE
:1043F000E1E0E983892B09F41982FA81F1FF08C011
:1044000081E40E94D703892B19F029812260298336
:104410003A8132FF08C082E40E94D703892B19F049
:104420008981846089839A8193FF08C083E40E9414
:10443000D703892B19F0A981A860A983BA81B4FF99
:1044400008C084E40E94D703892B19F0E981E06158
:10445000E983FA81F5FF08C085E40E94D703892B20
:1044600019F029812062298340E0698188E00E9457
:104470003A0C8091120790911307DC01ED91FC91A9
:104480000084F185E02D1995892B09F4DEC1809116
:10449000120790911307DC01ED91FC910284F385E2
:1044A000E02D19959C018F3F980719F3982F809163
:1044B000DF06882309F49CC0973F09F088C010925A
:1044C000DF06A091D706B091D8066C91613709F448
:1044D00041C0693709F065C0E0910C07F0910D0704
:1044E000309739F28091E0069091E1068330910592
:1044F000A8F430E020E050E040E070E060E080911F
:10450000EE069091EF061995B4CF82E00E94D70392
:10451000892B09F44FCC24E029834DCCBD016D5F7C
:104520007F4F03970E942102BC016D5F7F4F80E0A7
:104530000E94F101E091D706F091D8069F012D5F0E
:104540003F4F428150E0618170E0E0910C07F091B3
:104550000D07D5CF8091080790910907892B09F4A1
:1045600088CFBD016F5F7F4F8091E0069091E1069B
:1045700001970E942102BC016F5F7F4F80E00E9483
:10458000F1016091D7067091D8066F5F7F4FE0917F
:104590000807F09109078091F4069091F5061995A6
:1045A00068CFE0910A07F0910B07309709F461CFCB
:1045B0009D012F5F3F4F4091E0065091E106415031
:1045C00051098091F6069091F706199552CF6091A6
:1045D000E0067091E106822F0E94F1018091E006D1
:1045E0009091E10601969093E1068093E00641CF19
:1045F0006091DD067091DE066115710509F4B1C0A8
:1046000027FDAFC0615071097093DE066093DD062F
:10461000822F0E94F1018091DD069091DE06892BA8
:1046200009F027CF8091DB06882309F422CF803D53
:1046300009F483C040F4803949F1803C09F469C031
:104640001092DB0616CF843FE1F1853F09F44DC09F
:10465000803EB1F7E091FA06F091FB06309781F3C6
:10466000A091D706B091D8064C9120E8429FC00196
:10467000112411964C91480F592F511D6091DC0661
:104680008091E2069091E3061995DACFE091FC065D
:10469000F091FD063097A1F2A091D706B091D8060F
:1046A0004C9130E8439FC001112411964C91480F62
:1046B000592F511D6091DC068091E4069091E5062A
:1046C000E3CFE0910207F0910307309709F4B8CFE8
:1046D000A091D706B091D8064C9150E011966C91FC
:1046E0008091EA069091EB06CFCFE0910407F0911C
:1046F0000507309709F4A4CFA091D706B091D8064A
:104700004C9150E011966C918091EC069091ED06E1
:10471000BBCFE091FE06F091FF06309709F490CFF1
:10472000A091D706B091D8064C9150E06091DC067C
:104730008091E6069091E706A7CFE0910007F091FF
:104740000107309709F47CCFA091D706B091D80625
:104750004C9150E06091DC068091E8069091E9066A
:1047600093CF903F30F4822F8F708093DC06922F8E
:10477000907F903F09F442C0A0F4903CC1F160F4F6
:10478000903909F076CEA2E0B0E0B093DE06A093B7
:10479000DD069093DB066DCE903D49F1903E99F396
:1047A00068CE993F09F445C028F48CE0890F823027
:1047B00050F35FCE9F3F09F05CCE1092DE06109260
:1047C000DD061092DB061092DC0690E080E020917E
:1047D000D9063091DA0682179307C0F4E091D70624
:1047E000F091D806E80FF91F10820196F0CFE1E0B2
:1047F000F0E0F093DE06E093DD06CBCFF1E0F0933E
:10480000DF061092E1061092E00633CE1092DF062A
:104810001092E1061092E006E0911007F091110766
:104820008091F8069091F906309709F422CE1995F7
:1048300020CEE0910E07F0910F07309709F419CEC2
:104840008091F0069091F106F2CF8FB7F8944091E5
:104850003F055091400560914105709142058FBF21
:104860008091A8059091A905A091AA05B091AB05EA
:10487000009102021091030230E020E0481B590B26
:104880006A0B7B0B041715072607370708F003C2CE
:10489000800F911FA21FB31F8093A8059093A905B5
:1048A000A093AA05B093AB058091A6059091A705AA
:1048B0009C012F5F3F4F3093A7052093A6052091C1
:1048C000A4053091A505281739070CF0D5C0109222
:1048D000A7051092A605E090A205F090A305E114AB
:1048E000F10409F4C9C00091A0051091A105F801D7
:1048F000EE0FFF1FEC56FA4F208131813B832A8354
:10490000D90112968C911297882321F061E08C9145
:104910000E94700460E0EA81FB8180810E94FF03B5
:10492000C6010197F1F761E0AA81BB818C910E94D9
:10493000FF03C5010197F1F760E0EA81FB81808107
:104940000E94FF03AA81BB8112968C911297882343
:1049500021F060E08C910E9470040E94C904EA81F9
:10496000FB816383748385839683AA81BB811196BF
:104970008C910E94D703892BA9F40E94C904EA8173
:10498000FB812381348145815681621B730B840B2B
:10499000950B2781308541855285261737074807B3
:1049A000590718F70E94C904AA81BB8113966D9319
:1049B0007D938D939C931697EA81FB8181810E9460
:1049C000D703892BC9F00E94C904AA81BB81139621
:1049D0002D913D914D915C911697621B730B840B49
:1049E000950B17962D913D914D915C911A97261735
:1049F00037074807590700F70E94C904EA81FB817D
:104A0000238134814581568100939305F1E0EF1AAB
:104A1000F1080E151F050CF0FDC00F5F1F4F10931E
:104A2000A1050093A005CB01821B930BB401AED16D
:104A3000862F8F7780939205660F672F661F770BFF
:104A400071956093910580EF0E94870183E60E9433
:104A50008701E0919305F0E0E557FA4F80810E94CD
:104A60008701809192050E948701809191050E94A3
:104A7000870187EF0E9487018091890590918A05BF
:104A80009C012F5F3F4F30938A0520938905209129
:104A9000870530918805281739070CF06EC0009102
:104AA0008505109186050115110509F466C0309041
:104AB0008405E32CF12CC7010E9427099B838A837C
:104AC000F701E258FA4F2080F701E858FA4F2081A9
:104AD000298310928A051092890581E0830D8093C5
:104AE000840501501109E016F10614F010928405B6
:104AF0008A819B81892BE1F49091730580917405E3
:104B0000980F80917505980F80917605980FA1E018
:104B1000B0E0BB83AA8380917705981302C01B8203
:104B20001A82EA81FB81F195E195F109FB83EA8321
:104B300080EF0E94870185E60E948701822D0E94F6
:104B4000870189810E94870103E715E0D8018D91D3
:104B50008D010E94870160167106C1F78A819B81D1
:104B600097FF03C09195819591090E94870180E08C
:104B70000E94870187EF0E948701E4E9F6E0FB834A
:104B8000EA831AEC1031D0F4EA81FB81ED57FF4F34
:104B90008081823099F48091710590917205012E87
:104BA00002C0959587950A94E2F780FF07C0812F90
:104BB0000E94AC04BC01812F0E94BE051F5F2A81A8
:104BC0003B812F5F3F4F3B832A831031D9F6809181
:104BD000010287FD24C019828981282F30E080914D
:104BE0000102082E000C990B82179307C4F095E080
:104BF000929FF001939FF00D1124E75BFA4F6181C2
:104C000072812481438180810E94360DA981AF5F2A
:104C1000A983E2CF1092A1051092A00504CF809144
:104C2000470590914805892BB1F18FB7F8944091D1
:104C30003F055091400560914105709142058FBF3D
:104C40008091430590914405A0914505B09146059A
:104C5000481B590B6A0B7B0B209147053091480587
:104C6000249DC001259D900D349D900D1124B0E030
:104C7000A0E084179507A607B70768F40E94AF0F56
:104C800088E198E00FB6F894A895809360000FBE75
:104C900090936000FFCF0E94400382C8809120095A
:104CA0009091210944D180911D0990911E0997FD91
:104CB00003C060E00C9470040895052E97FB16F471
:104CC00000940FD057FD05D024D007FC02D046F445
:104CD00008C050954095309521953F4F4F4F5F4FFD
:104CE000089590958095709561957F4F8F4F9F4F58
:104CF000089531D0A59F900DB49F900DA49F800D75
:104D0000911D11240895B7FFF4CFF3DF821B930B9D
:104D10000895A1E21A2EAA1BBB1BFD010DC0AA1FFC
:104D2000BB1FEE1FFF1FA217B307E407F50720F014
:104D3000A21BB30BE40BF50B661F771F881F991F8F
:104D40001A9469F760957095809590959B01AC01D8
:104D5000BD01CF010895A29FB001B39FC001A39FE1
:104D6000700D811D1124911DB29F700D811D1124A4
:104D7000911D0895991B79E004C0991F961708F0BA
:104D8000961B881F7A95C9F780950895AA1BBB1BAF
:104D900051E107C0AA1FBB1FA617B70710F0A61B3B
:104DA000B70B881F991F5A95A9F780959095BC015C
:104DB000CD01089597FB072E16F4009406D077FDD9
:104DC00008D0E4DF07FC05D03EF4909581959F4F15
:104DD0000895709561957F4F0895EE0FFF1F881F0E
:104DE0008BBF0790F691E02D1994B5DFB7FF0895BA
:104DF000821B930B08950F931F93CF93DF93823001
:104E0000910510F482E090E0E0912F09F0913009D3
:104E100030E020E0B0E0A0E0309799F421153105B2
:104E200009F44AC0281B390B24303105D8F58A8192
:104E30009B816115710589F1FB0193838283FE01DA
:104E400011C0408151810281138148175907E0F058
:104E50004817590799F4109761F012960C9312971E
:104E600013961C933296CF01DF91CF911F910F9132
:104E7000089500932F0910933009F4CF21153105BF
:104E800051F04217530738F0A901DB019A01BD0127
:104E9000DF01F801C1CFEF01F9CF90933009809382
:104EA0002F09CDCFFE01E20FF31F81939193225082
:104EB000310939832883D7CF20912D0930912E09CC
:104EC000232B41F4209106023091070230932E09E2
:104ED00020932D09209104023091050221153105FE
:104EE00041F42DB73EB74091080250910902241BAE
:104EF000350BE0912D09F0912E09E217F307A0F48C
:104F00002E1B3F0B2817390778F0AC014E5F5F4F1F
:104F10002417350748F04E0F5F1F50932E0940931A
:104F20002D09819391939FCFF0E0E0E09CCFCF9348
:104F3000DF930097E9F0FC01329713821282A0916F
:104F40002F09B0913009ED0130E020E01097A1F475
:104F500020813181820F931F20912D0930912E09DC
:104F60002817390709F061C0F0932E09E0932D0945
:104F7000DF91CF910895EA01CE17DF07E8F54A8166
:104F80005B819E0141155105B1F7E901FB83EA837D
:104F900049915991C40FD51FEC17FD0761F4808129
:104FA00091810296840F951FE901998388838281FC
:104FB00093819B838A83F0E0E0E012968D919C912F
:104FC00013970097B9F52D913C911197CD01029659
:104FD000820F931F20912D0930912E092817390730
:104FE00039F6309751F51092300910922F09B0938D
:104FF0002E09A0932D09BCCFD383C2834081518158
:10500000840F951FC817D90761F44E5F5F4F8881E1
:105010009981480F591F518340838A819B819383D3
:1050200082832115310509F0B0CFF0933009E09368
:105030002F099ECFFD01DC01C0CF13821282D7CF92
:10504000DC0101C06D9341505040E0F70895FB0131
:10505000DC014150504048F001900D920020C9F70A
:1050600001C01D9241505040E0F7089511E0C4E0A6
:10507000D1E000E005C0802FFE01AFDE2196011DCA
:0E508000C530D10780E00807B1F7F894FFCFE4
:10508E00FFFF130000003109800000000000D50270
:10509E0040026D0221039E027C029002000000007D
:1050AE0094076807C2073E0761074E073F0749325C
:1050BE00433A20546F6F206D616E7920627974656A
:1050CE0073207265636569766564004932433A20E0
:1050DE00546F6F20666577206279746573207265F0
:1050EE00636569766564004D617820736572766FCD
:1050FE007320617474616368656400556E6B6E6FC6
:10510E00776E2070696E206D6F64650031302D6290
:10511E0069742061646472657373696E67206E6F63
:10512E007420737570706F7274656400746F6F2085
:10513E006D616E7920717565726965730050494EA7
:10514E00475F434F4E464947204572726F723A2071
:10515E004578636565646564206E756D6265722061
:10516E006F6620737570706F727465642070696EEF
:10517E00672064657669636573004552524F523AF3
:10518E0020554E4B4E4F574E2053454E534F5220A7
:10519E00545950452C2056414C49442053454E53AA
:1051AE004F5253204152452031312C20323200448F
:1051BE0048545F434F4E464947204572726F723ACC
:1051CE00204578636565646564206E756D626572F1
:1051DE00206F6620737570706F727465642044481A
:1051EE0054206465766963657300433A5C55736554
:1051FE0072735C647A647A7A5C4170704461746133
:10520E005C4C6F63616C5C54656D705C617264754F
:10521E00696E6F5F6D6F6469666965645F736B65F8
:10522E007463685F3836373939375C4669726D6139
:0E523E007461457870726573732E696E6F002F
:00000001FF
