:100000000040002029660000656600006766000069
:1000100000000000000000000000000000000000E0
:100020000000000000000000000000006966000001
:1000300000000000000000006B6600006D6600001C
:100040006F660000699F00001D6900006F66000078
:100050006F66000000000000A15E00006F660000F7
:10006000B15B0000916A00004DBD00006F660000AA
:100070006F6600006F6600006F6600006F6600002C
:100080006F6600006F6600006F6600006F6600001C
:100090006F6600006F6600006F6600006F6600000C
:1000A0006F6600006F6600000000000000000000A6
:1000B0000000000000000000000000000000000040
:1000C00010B5064C2378002B07D1054B002B02D02E
:1000D000044800E000BF0123237010BD1804002075
:1000E00000000000E889030008B5084B002B03D08E
:1000F0000748084900E000BF07480368002B00D10B
:1001000008BD064B002BFBD09847F9E70000000024
:10011000E88903001C0400201804002000000000EF
:10012000164B002B00D1144B9D46402292029A1A86
:10013000924600218B460F461348144A121A2BF0A0
:100140005CFD0F4B002B00D098470E4B002B00D0CE
:1001500098470020002104000D000D48002802D01F
:100160000C4800E000BF2BF071FB2000290006F0D6
:100170001BF806F040FAC0460000080000400020CE
:100180000000000000000000180400204C250020A2
:100190000000000000000000031C84331A78002ACD
:1001A00004D000221A70FF238530037070470000CE
:1001B00010B514290BD81139012908D9044C042190
:1001C000201C00F06DFD201C0E2100F069FD10BD0B
:1001D0007C060020133910B5012908D8044C0621EB
:1001E000201C00F05DFD201C012100F059FD10BD18
:1001F0007C06002038B50B1C133B012B01D90023D2
:1002000013E00123062A10D0041C84342378002B29
:10021000F5D0051C064800F0CAFD0628EFD1281CC1
:100220000023FF22853023700270181C38BDC046A1
:100230007C06002010B5041C054B0021083308C0C3
:1002400054222BF0DAFC034B201C1C6010BDC0466E
:10025000C02E0300A404002010B5002414290CD8DB
:100260000B1C113B012B08D9890043185868A04288
:1002700003D0111C02F0E4FF0134201C10BD00006B
:1002800008B5031C0A1C03490868191CFFF7E4FFA2
:1002900008BDC046A40400208B0070B5C5186C686A
:1002A0000E1C002C06D10C200DF065FF041C02F082
:1002B000BFFF6C60311C201C02F0BFFF70BD00004E
:1002C000F7B50025702928D1042A26D91D78142DC8
:1002D00022D82A1C113A012A1ED9114F061C291CAA
:1002E000381C1C1C00F063FD7F2815D0A3786278B1
:1002F000DB01D3180193E3782479291CE4011C194C
:10030000381C042200F058FD291C301C019A231CC3
:10031000FFF7C2FF012500E00025281CFEBDC046F6
:100320007C060020890010B544186068002803D0BE
:1003300007F078F90023636010BD10B5002414297C
:100340000DD80B1C113B012B09D9042A05D1053A04
:10035000131CFFF7A1FF013401E0FFF7E3FF201CAE
:1003600010BD38B5051C0024142C07D8231C113BE4
:10037000012B03D9281C211CFFF7D4FF0134E4B260
:100380001A2CF1D138BD0000054B021C0833036064
:10039000FF210023843213705170043213607047C0
:1003A000D82E0300F8B5051C0024E6B2331C133B1D
:1003B000012B0FD80E4F311C381C00F0F8FC7F28A1
:1003C00013D0381C311C062200F0F6FC201C06213C
:1003D0000AF07AFD01341A2CE7D1193C843505481E
:1003E0002C7002F087FF201C00E00020F8BDC04602
:1003F0007C0600208C08002010B553781178DB01B2
:10040000CB18002B02D0021C88321360041C8434E9
:100410002378002B01D1FFF7C5FF207810BD000025
:10042000F8B519282BD8041C154F0D1C381C211C9D
:1004300000F0BDFC3E1C03280DD004281FD1142C55
:100440001DD8231C113B012B19D9201C291CFFF797
:1004500017FF381C0FE0142C11D8231C113B012B63
:100460000DD9FF239B009D4200DD1D1C201C291C73
:100470000AF01AFD301C211C2A1C00F0BBFCF8BD40
:100480007C06002008B50F4801F0B6FD0E4801F0CB
:10049000ADFF0E4800F06EFA0D4800F015FB0D4858
:1004A000FFF7C8FE0C48FFF76FFF0C4802F044F955
:1004B0000B4800F075FE0B4802F0B6F90A4A0B4BE8
:1004C0001A6008BD3C04002074060020340400209B
:1004D000EC0400204C04002000050020A8040020AB
:1004E0008C050020B8050020902F0300F0040020A8
:1004F000F7B51F1C08AB1B78051C0091161C019357
:10050000294C531C21D0201C02F037FFF1B2201CD3
:1005100002F069FF0199201C4B1E9941C9B202F0FB
:1005200037FF2B1C8833186800280FD00138C046CD
:10053000C046C046C046C046C046C046C046C0468B
:10054000C046C046C046F1D100E00026201C0099FC
:100550003A1C02F00DFF201C02F0A5FE874202DBD0
:10056000201C02F0A0FE6A462B1C127864335E70D9
:1005700001931A703B1C2E1C66336636ED18AE4292
:1005800007D1BA1CD2B209487721019B00F06FFB5A
:10059000F7BD201C02F087FE0028F2D0201C02F0DC
:1005A00087FE30700136EAE78C0800207C060020C8
:1005B0002023F7B555782B4000D09EE00127141C6E
:1005C0000E1C1178AA09974318222A40082A2FD016
:1005D00008D8002A00D090E0484D0227281C02F0DD
:1005E000CCFE04E0102A37D0182A59D085E0B74253
:1005F0000BD2E3195978E35DC901C918C9B2281CA7
:10060000023702F0F0FEFFB2F1E7281C02F0E6FE2E
:1006100046200138C046C046C046C046C046C04617
:10062000C046C046C046C046C046C046F1D164E0A0
:10063000E378A578DB01062E06D1EA1863792479E0
:10064000DB011B19DBB203E001225B19DBB2524272
:100650000097FFF74DFF50E085239C468444634696
:100660001A7853B2062B48DCE578A378ED015D19C2
:10067000062E05D163792479DB011B19DBB202E078
:10068000EBB201256D4264460132D2B222700C24D5
:1006900052B26243801801718560037347732CE086
:1006A000051C85352C7866B2002E0ADCFF232B70E2
:1006B00023E00C225A43821812798A4219D001335E
:1006C000DBB29E42F5DA002313E0072B0FD80C2291
:1006D0005A438218117C5F1C1171516991600C2181
:1006E000794341180F7B08311773497951730133EE
:1006F000DBB29E42E9DA013C2C70F7BD8C08002089
:1007000010B5762902D078290AD00FE0011C843177
:100710000C78002C04D0111C1A1CFFF749FF06E0CE
:10072000111C1A1CFFF768FE041C00E00024201CAA
:1007300010BD73B5061C85363378051C00247F2B4D
:1007400013D80023F356A3420FDB0C226243AA18EE
:10075000101C083040791179137B00909268281C96
:100760000134FFF7C5FEE4B2EBE773BD10B51048E6
:1007700001F06AFC0F4C201C00F048FA002805D05C
:10078000201C00F0FFFB05F0B2FCF3E70A4802F082
:100790001EF8002808D0094800F032F90848FFF791
:1007A000C8FF084800F00EFD074802F043FA10BDEC
:1007B0003C0400207C060020F004002034040020CB
:1007C000000500208C050020B8050020002310B58E
:1007D0005C1CE4B21A2C16D01A1C093AD2B2012AB7
:1007E0000FD9142C0DD81A1C103AD2B2012A08D9EC
:1007F000053BDBB2F92B04D80548211C012200F08F
:10080000DBFA231CE4E7034801F0F5FE10BDC04607
:100810007C060020A804002038B51E4D06230222C5
:10082000281C1D4900F0BAF91C4C1D49201C01F080
:10083000A5FF201C1B4901F0A1FF201C1A4901F053
:100840009DFF201C194901F099FF201C184901F057
:1008500095FF201C174901F091FF201C164901F05B
:100860008DFF201C154901F089FF201C144901F05F
:1008700085FF144A281CFF2100F091FAE121281C71
:10088000490200F095FB642005F082FCFFF79EFF13
:1008900038BDC0467C060020AC2E0300A804002012
:1008A0003C0400207406002034040020EC040020E6
:1008B0004C04002000050020F00400208C050020DE
:1008C000B8050020CD07000038B5002469281DD1E7
:1008D0000F4DF021281C00F0E3F96A21281C00F0DC
:1008E000DFF9211C0134281CE4B200F0D9F91A2CDC
:1008F00007D0211E0429F5D905210A2CF2D07A311E
:10090000F0E7281CF72100F0CBF9193C201C38BD7A
:100910007C06002000234360704708B5081C111CAA
:100920001A1CFFF7D1FF08BD08B5042902D90A290E
:100930000BD108E00020022A08D1081C00210AF08F
:10094000C3FA012002E0022AF7D0002008BD00000F
:1009500010B5042901D90A2908D1054C0221201C0F
:1009600000F09EF9201C0A2100F09AF910BDC04643
:100970007C060020074B10B508330360064B041CAF
:1009800018600023C0214360044A054800F0E8F9DC
:10099000201C10BDF02E030078060020E90900009D
:1009A0007C06002038B505291BD801234568002A9C
:1009B00005D18B40191C2B1C8B43436011E08B40ED
:1009C0002B43084D4360281C0C1C00F025F900281F
:1009D00007D1201C0AF05AFA211C021C281C00F026
:1009E0001EF938BD7C06002008B5031C0A1C03490B
:1009F0000868191CFFF7D6FF08BDC046780600201E
:100A000070B50024094EE5B2301C291C00F0CFF966
:100A1000022807D1201C0AF039FA291C021C301CBC
:100A200000F0FDF801341A2CECD170BD7C060020DA
:100A30007047000038B50025032A13D1142911D8B6
:100A40000B1C113B012B0DD90C1C081C01210AF0B9
:100A50003BFA054B01351B5D032B03D0201C002105
:100A60000AF022FA281C38BD0808002010B5142905
:100A70000BD81139012908D9044C0321201C00F09E
:100A80000FF9201C0A2100F00BF910BD7C06002094
:100A900008B56F2912D10020012A14D95978022AE9
:100AA00007D09878C0010143032A02D0DA78920374
:100AB00011431878FFF7B4FC012004E0081C111C56
:100AC0001A1CFFF701FF08BD10B5041C044BE02100
:100AD00008330360034A044800F042F9201C10BDAB
:100AE000082F0300210400007C06002070B57F243D
:100AF000061C0D1C0068214003681B68984730687D
:100B0000E911036821401B68984770BD08B500686B
:100B1000F02103681B68984708BD08B50068F721F5
:100B200003681B68984708BD10B5041C0068F921CC
:100B300003681B6898472068022103681B68984770
:100B40002068062103681B68984710BD38B50379F3
:100B5000002B22D0041CFFF7D9FF206879210368FD
:100B600002251B6898472068A268036811781B68F3
:100B700098472068A268036851781B6898472379D2
:100B8000AB4207D9A368201C595D0135FFF7AEFFC2
:100B9000EDB2F4E7201CFFF7C0FF38BDF7B50C1C21
:100BA000061C081C1849171C01932CF06CFB2F2104
:100BB000051C201C2CF055FB002805D1201C5C21B5
:100BC0002CF04FFB002800D0441C002D05D1201C28
:100BD0002CF018FB0230307102E02D1B023535710C
:100BE000B06806F01FFD3579681C06F0E7FC0023AD
:100BF00043556B461B79B06007704370AA1E211CD9
:100C000002302CF01AFBF7BD202F030008B5006856
:100C100003689B68984708BDFF30407E704738B531
:100C20000F23151C041C006819400268D1331943B6
:100C300013689847291C201CFFF758FF38BD38B5AA
:100C40000F23051C0068141C0268194081331943E6
:100C5000136898477F21286821400368E4111B68C6
:100C600098472868E1B203681B68984738BDF8B513
:100C7000051C0F1C161C1C1CFFF748FF2868391C9C
:100C80000368A6191B689847B44205D02178281C30
:100C9000FFF72CFF0134F7E7281CFFF73EFFF8BDF4
:100CA00008B5006803681B68984708BDF8B5C57BA0
:100CB000712D18D0792D13D0512D41D1274CF02111
:100CC000201CFFF7EDFF201C5221FFF7E9FF201C3D
:100CD0000121FFF7E5FF201CF721FFF7E1FF3CE0D2
:100CE000FFF734FF39E0031CFC33D96B002934D003
:100CF000041C6C3B1B680F34013BDA0FD318261C15
:100D000001225B10DDB20F354519AC420ED08718B9
:100D1000FF7BBC462770571CFFB2C719FF7B02320E
:100D2000FF0167442770D2B20134EEE7DBB2C3188B
:100D30009A7B002A01D00022DA73301C88470CE02D
:100D4000031CFC331C6C002C07D0021C6C3B196884
:100D500010320139C9B2281CA047F8BD7C0600201A
:100D6000D02913D006D890290DD0C02916D1FC3037
:100D7000826213E0F4290CD0F5290DD0E0290DD1C1
:100D8000FC3002620AE0FC30426207E0FC30C262E2
:100D900004E0FC30026301E0FC3042637047FF294D
:100DA00001D1FC3082637047FC3002647047411807
:100DB000903108797047000070B5431890331D7961
:100DC0007F2D0FD00C1C00262C34A4002650064C7E
:100DD00065541A71031CFC331B6BB34202D0081C10
:100DE000111C984770BDC046080800202C318900AE
:100DF000085870472C3189000A50704710B5041C00
:100E00000123FF3463760023011C03734373837350
:100E1000031C8F310F3300221A708B4201D0013333
:100E2000F9E7031CFC3090331A60836B934200D0C7
:100E300098470023637610BDA222002310B5041C3E
:100E40005200037183608354FFF7D8FF201C10BD4C
:100E500010B5041C8F300378002B0FD0F72905D173
:100E600000230370201CFFF721FF88E0221C903232
:100E70001368E4180133E173136080E0237B002BD7
:100E80004AD04AB2002A47DB013BDBB2E2182373A7
:100E9000D173002B73D1637B002B70D0D02B31D05A
:100EA00007D8902B15D0C02B34D1231CFC339B6A60
:100EB0002BE0F42B19D0F52B1DD0E02B2AD1231CCD
:100EC000FC331A6A002A25D0217CA07BC901E37B70
:100ED00008E0231CFC335A6A002A1BD0E17BA07B6C
:100EE000237CC901C918904714E0217CE27B201CB7
:100EF000FFF762FF0EE0231CFC335B6B002B09D075
:100F0000207C05E0231CFC33DB6A002B02D0A07B95
:100F1000E17B9847002325E00B1EEF2B03D80F221F
:100F200011409343A173F02B20D00BDCC02B1BD0BE
:100F300002DC902B14D022E0D02B15D00322E02B22
:100F40000FD01CE0F52B0BD002DCF42B08D016E000
:100F5000F92B11D0FF2B12D1201CFFF74FFF0EE011
:100F60000222227363730AE00122FAE7012303706D
:100F700000239034236002E00148FFF7D5FD10BD47
:100F80007C06002010B5041C00680368DB689847E5
:100F9000431C03D0C1B2201CFFF75AFF10BD000054
:100FA00008B50248FFF748FF08BDC0467C06002090
:100FB00038B5041C054D281C09F096FE2560201C40
:100FC000FFF7B2FD201CFFF7C1FD38BD700F0020F8
:100FD000002070477047000070B501260025124BB5
:100FE000124C1E70124B291C2A1C201C1D70FFF76E
:100FF000E3FE311C2A1C201CFFF7DEFE2A1C201CED
:101000000221FFF7D9FE201CF021FFF749FE201C2A
:101010000D21FFF745FE201C7F21FFF741FE201C1C
:10102000F721FFF73DFE70BD040000207C06002084
:101030002508002070B5051C174CF021201CFFF777
:101040002FFE201C0D21FFF72BFE201C0021FFF797
:1010500027FE124B201C19787F26FFF721FE291C42
:10106000201C3140FFF71CFEE9093140201CFFF72E
:1010700017FEA90B3140201CFFF712FE690D31400D
:10108000201CFFF70DFE290F201CFFF709FE201C76
:10109000F721FFF705FE70BD7C0600202208002026
:1010A00070B5164CF021061C201CFFF7F9FD201C22
:1010B0000D21FFF7F5FD201C1021FFF7F1FD0025A4
:1010C000B3689D4215D2291C301C04F0A9FF7F2370
:1010D0000178201C1940FFF7E3FD291C301C04F0A7
:1010E0009FFF01780135C909201CFFF7D9FDEDB23A
:1010F000E6E7201CF721FFF7D3FD70BD7C0600203A
:1011000010B5041C132A49D8101C26F0ADFC0A0D9A
:10111000101316191C1F2225282B2E3134373A3D67
:101120004043201C002237E0201C012234E0201C18
:10113000022231E0201C03222EE0201C04222BE09E
:10114000201C052228E0201C062225E0201C072266
:1011500022E0201C08221FE0201C09221CE0201C89
:101160000A2219E0201C0B2216E0201C0C2213E09E
:10117000201C0D2210E0201C0E220DE0201C0F224E
:101180000AE0201C102207E0201C112204E0201C91
:10119000122201E0201C132203F0B0F810BD000061
:1011A000074B08330360002343608360C36003611F
:1011B00043618361C3610362436283627047C046D7
:1011C000282F0300F0B589B004F0D6FF794A1368E0
:1011D000C31A312B00DCEBE0774B10601B78002B3F
:1011E00000D1E5E0754B1B78002B00D1E0E0744D99
:1011F0002B780133DBB2022B00D9002301AC002194
:101200001B22201C2B702AF0F8FC7F231120A371D5
:10121000E37109F075FE1A2009F072FE694804F0C6
:1012200009FD2070684804F005FD684E60700021DB
:10123000301CFFF7BCFD002804D109F061FE4342D9
:101240004341A370301C0121FFF7B1FD002819D1E3
:101250002B78DB0713D50A25012009F051FE002861
:1012600008D1013D0530EDB204F092FF002DF3D11D
:10127000012300E00023564AE370137002E0544B50
:101280001B78E370301C0221FFF791FD002805D187
:10129000023009F035FE4342434123714D4F012591
:1012A000381C02F087FA381C291C02F08FFA00283B
:1012B00001D0657103E00135EDB20C2DF3D1464844
:1012C00002F09CFB454BC0B27F251870031CC0097F
:1012D0002B40E071381CA37102F0ECF9031CC01123
:1012E00028402B406072381C237202F0EDF9C217BF
:1012F000831853401A1CC00FDB112A402B40A072E8
:101300000021381CE272237302F02EFAC30F6373BC
:10131000C317C0185840031CC01128402B40E0736D
:101320000121381CA37302F01FFAC30F2374C317E3
:10133000C0185840031CC01128402B400221A07443
:10134000381C637402F010FAC30FE374C317C0189B
:101350005840031CC0112B4028402375607504F0D1
:101360000BFF031C2B40A375C3112B40E3758313A4
:101370002B402376431500172B40F0210540301CED
:101380006376A576FFF78CFC301C0D21FFF788FCF7
:10139000301C0B21FFF784FC0025615D301C0135FA
:1013A000FFF77EFC1B2DF8D1301CF721FFF778FCEE
:1013B00009B0F0BD2C080020270800200400002000
:1013C00023080020000A0020010A00207C060020DB
:1013D0002808002084090020B009002024080020EB
:1013E000F0B5013987B0051C01924C424C4104F024
:1013F000CBFE0027061C281C09F082FDA04210D05D
:1014000004F0C2FE002302900393029A039B921BF6
:10141000BB41002B02D101999142ECD20020002166
:1014200020E004F0B1FE0290281C09F069FDA04202
:101430000ED104F0A9FE002304900593049A059BA5
:10144000921BBB41002BE9D101999142ECD2E5E717
:1014500004F09AFE0023021C191C0298121A8B41F8
:10146000101C191C07B0F0BD38B50C1C0121051C5F
:1014700009F02AFD201C002109F026FD201C09F09E
:101480003FFDE4B2011C281C002908D109F01EFD13
:10149000281C012109F01AFD201C012108E001216E
:1014A00009F014FD281C002109F010FD201C00216A
:1014B000084AFFF795FF3B2126F07AFB064B421EB8
:1014C000041C00209A4203D8323004F061FE201C34
:1014D00038BDC046C8AF000087130000F8B5537888
:1014E000041C151C002B25D183689778002B0AD18A
:1014F00001200CF040FE061C391C02F023F8A66007
:10150000301C02F021F82979EB7849051B071943B3
:101510006B79A0689B0319430A1CAB79E979DB015D
:101520001A437F230B401A43111C202202F070F84B
:1015300000202FE00020012B2CD1174B92781D1C8E
:101540001A70636883420AD108300CF014FE061C3E
:10155000297801F0BBFF6660301C01F0EFFF606886
:1015600001F0DCFF2B7898420FD060680CF0FFFD93
:101570000023082063600CF0FEFD061C297801F0B2
:10158000A5FF6660301C01F0D9FF6068034901F0D7
:10159000B1FF0120F8BDC046220800203510000030
:1015A00070B555789478281C002109F08FFC211C17
:1015B000281CFFF759FF061C0E4CF021201CFFF7DA
:1015C0006FFB201C6321FFF76BFB201C291CFFF71E
:1015D00067FB7F25311C201C2940FFF761FBF111BF
:1015E0002940201CFFF75CFB201CF721FFF758FB6C
:1015F000012070BD7C06002070B514795578E1019A
:1016000054799678A303CC18D378281CE3189479DE
:10161000002164051C192401240909F055FC221C31
:10162000281C311CFFF7DCFE061C144CF021201C8A
:10163000FFF736FB201C0D21FFF732FB201C032196
:101640007F25FFF72DFB311C201C2940FFF728FBCD
:10165000F1112940201CFFF723FBB1132940201C66
:10166000FFF71EFB71152940201CFFF719FB201CFA
:10167000F721FFF715FB012070BDC0467C06002056
:10168000F0B5507891B00023062800D985E0141CED
:1016900026F0EAF90482151928637A009278E37833
:1016A000111C042A00D90421C9B21A1C042B00D928
:1016B0000422D2B223793A4802F0B0F96CE03848FB
:1016C00002F0B8F968E000236A4600931371694696
:1016D000E2189278CA540133052BF8D1304802F051
:1016E000B1F959E00239CB0F59184910CBB21A1C85
:1016F0003F2B00D93F220021D3B20134CAB29A4213
:1017000008D222786078D201121868460234425416
:101710000131F3E71A1C6A44013A1278002A02D018
:1017200000226946CA5469461D4804F0D1FA1D4C8E
:10173000F021201CFFF7B4FA201C0D21FFF7B0FAAE
:10174000201C0521FFF7ACFA201C0421FFF7A8FAA2
:10175000201CF721FFF7A4FA1EE00027052500262C
:101760007D430235EDB2AB19DBB2E05C1C2331B234
:1017700043433AB20A48013602F050F9052EF2D13D
:101780000137052FEAD107E0D1789378C901C9184C
:10179000C9B2034802F03AF90123181C11B0F0BD98
:1017A000B00900207C060020F7B5036A061C141C53
:1017B0005578002B06D101200CF0DDFC071C02F04F
:1017C00061FC3762042D6BD8281C26F04DF90326E6
:1017D000694752002579A178E278306A0423002D08
:1017E00000D0033BFFF78CFC0124002D59D02E4D77
:1017F000F021281CFFF754FA281C0D21FFF750FA9E
:10180000281C0921FFF74CFA281C0021FFF748FA91
:10181000281CF721FFF744FA43E02279E378D2014C
:101820009A1892046379920CA178306A02F072FCE3
:101830001D4CF021201CFFF733FA201C0D21FFF76F
:101840002FFA201C0921FFF72BFA201C0121FFF79A
:1018500027FA201CF721FFF723FA08E0E178A378A4
:10186000C90159188904890C306A02F015FC012459
:1018700017E02579E378A079ED015D196379C0015E
:1018800018188004800C29F031F8A778AD04AD0C4D
:10189000009001912A1C306A391C02F06FFCE6E7C7
:1018A0000024201CFEBDC0467C06002038B50C4834
:1018B00001F0F2FF041C0B4DF021281CFFF7F0F99A
:1018C000281C0D21FFF7ECF9281C1421FFF7E8F97B
:1018D000281CF721FFF7E4F9601E8441E0B238BD0F
:1018E000840900207C060020F0B5C36997B0061C6F
:1018F0000191151C5478002B06D110200CF03BFCF4
:10190000071C02F00DF9F761012C20D0002C0AD041
:10191000022C42D1019B0235023BDA0FD3185B1037
:10192000DCB2002218E0AB78F069002B0CD002F09A
:1019300035F91C4D01242B78002B2FD1F0691A4961
:1019400002F08EF92C7029E002F002F923E0A97868
:10195000F06902F059F921E0D0B206A9A04207D2FD
:1019600068782F78C001C019885402350132F3E736
:10197000DBB2CA18013A1278002A01D00022CA54F8
:10198000F46903A804F0F8FA201C03A902F052F944
:1019900003A804F0ABFA012400E00024201C17B0D7
:1019A000F0BDC04626080020A1100000F8B503696C
:1019B000041C0D1C171C002B0ED10C200CF0DBFBA3
:1019C000061C01F035FC0C212661301C01F035FCB1
:1019D00020695A2101F034FC6369002B0ED10C20E0
:1019E0000CF0C9FB061C01F023FC08216661301CC9
:1019F00001F023FC60695A2101F022FC381C28F018
:101A000075FF0022094B27F0E9FC0022084B28F063
:101A100023F928F035FF011C5A31012D01D120692D
:101A200000E0606901F00CFCF8BDC04600E06F40CA
:101A30000080564038B5141C6421051C002009F0B4
:101A400033FA2279E378D2019A18A3786178D2B276
:101A5000002B00D05242281CFFF7A8FF012038BD00
:101A6000F0B5537889B0062B00D9BAE0051C181CD4
:101A7000EC6825F0F9FF04274D538B939B007F23DF
:101A8000D778967812791F40FF0113403B43DFB2AD
:101A9000002C07D0201C02F0FEFC201C0CF067FB81
:101AA0000023EB6038200CF066FB041C02F0E4FC21
:101AB0005223EC60BAB20093201C311CAD3303F00A
:101AC00007F98EE09379507AD178157957799C4649
:101AD000167A937A0390D279002C00D181E07F208E
:101AE00001400540C9012943654605400740281CBF
:101AF0005205B6039619FF01039A3843C7B2F3188B
:101B0000D0011B18C9B2201C3A1C02F0D4FF68E0B7
:101B1000002C66D0201C03F0AFF862E09379907B34
:101B20009C46937A06900393537A507B0493137ADE
:101B3000D178157957790593167BD3790790D27AA6
:101B4000002C4ED07F2001400540C9012943654645
:101B500005400740281CFF013843C7B205985B05C4
:101B600080031B180398B6031818049B5205DB0169
:101B7000C3180698921912180798C9B2C001121812
:101B80000092201C3A1C02F01AFF2AE0D178002CA7
:101B900027D049B2201C03F05BF922E0D178002C59
:101BA0001FD049B2201C02F0C8FF1AE07F23D17871
:101BB000107919401840C9010143507995791840AE
:101BC000C0012B400343D8B2C9B2D379157A002C97
:101BD00007D082B228B2009089B21BB2201C03F059
:101BE000C7F8012009B0F0BDF0B5866A537887B018
:101BF000041C009201939578002E0DD118200CF052
:101C0000BAFA2A1C163A55426A4106600671D2B2E7
:101C1000A062019903F08CFDA06A03F07DFE071C11
:101C2000A06A03F085FEA56A061C002D07D028686F
:101C3000002801D005F0F6FC281C0CF098FA0023CF
:101C4000381CA36226F068F985B26B426B41DBB2A7
:101C50000293009B3A4C9B78162B42D13949381C91
:101C600026F034FD26F058F9364987B2301C26F0AC
:101C70002DFD26F051F9FBB20393FF2385B2BB4241
:101C80009241AB429B4152425B42201CF0210492A4
:101C90000593FFF705F8201C6521FFF701F8201CCC
:101CA0000199FEF7FDFF009B201C9978FEF7F8FFD5
:101CB0000021059BEEB28B4200D0290A204C201C4B
:101CC000FEF7EEFF311C201CFEF7EAFF0021049B0B
:101CD0008B4200D0390A201CFEF7E2FF201C03993A
:101CE00021E0201CF021FEF7DBFF201C6521FEF720
:101CF000D7FF201C0199FEF7D3FF009B201C997889
:101D0000FEF7CEFF301C26F007F9C1B2201CFEF70B
:101D1000C7FF201C0021FEF7C3FFE9B2201CFEF71D
:101D2000BFFF201C0021FEF7BBFF201C0299FEF71D
:101D3000B7FF201CF721FEF7B3FF012007B0F0BD6D
:101D40007C06002000002041F8B58369041C567809
:101D50009578002B06D106200CF00DFA071C03F035
:101D6000CDF8A761A069012E01D1017800E041788A
:101D70002A1C03F0EFF80120F8BD00005378022B75
:101D800004D193785A1E9341034A02E05A1E9341AC
:101D9000024A01201370704725080020040000202B
:101DA0001FB5141C01A801F043FA617801A801F0E5
:101DB00044FAA178E378C90101A8C91801F040FAF2
:101DC000012004B010BD0000F7B55378041C019346
:101DD000436A9678002B0AD11C200CF0CCF9051C24
:101DE00003F0D0F86562281C311C03F0C7F9019B91
:101DF000092B08D11549606A03F0A6FA8321C905A9
:101E000026F064FC071C124CF021201CFEF748FF52
:101E1000201C0D21FEF744FF201C1921FEF740FF76
:101E2000311C201CFEF73CFF381C26F075F885B2EB
:101E3000E9B2201CFEF734FF290A201CFEF730FF10
:101E4000201CF721FEF72CFF0120FEBDF509002024
:101E50007C06002038B5141C00250D2967D1211CF3
:101E60001C781A1C142C3BD015D8092C35D006D858
:101E7000032C2CD0052C2DD0AC4220D121E0012503
:101E80000E2C54D002D80B2C3AD018E0102C2ED0A7
:101E9000132C2FD013E02A2C25D006D8192C43D090
:101EA000202C30D0172C0AD127E0562C39D002D85C
:101EB000552C2ED003E0632C06D0652C26D00025AF
:101EC00035E0FFF70BFB31E0FFF76AFB2EE0FFF791
:101ED00093FB2BE0FFF7D4FB28E0FFF765FC25E040
:101EE000FFF7E4FC22E00125124B1D701FE0FFF715
:101EF000FBFC1BE0FFF79EFD18E0FFF7B1FD15E0CE
:101F0000FFF722FF12E0FFF739FF0FE0FFF76CFE4B
:101F10000CE0BFF34F8F084A084BDA60BFF34F8FD6
:101F2000FEE7FFF73DFF01E0FFF74EFF051C281C11
:101F300038BDC046270800200400FA0500ED00E087
:101F400000207047031D083000221A701A721A719F
:101F500001338342F8D17047031C70B50020142967
:101F60002DD80C1C113C012C29D9CE08824201D05D
:101F70000B2A1BD101250C1C0721281C214088405D
:101F8000011C9B19187B01431973201C002A03D1E3
:101F9000111C08F099FF07E0022108F095FF08489E
:101FA000211C2A1CFEF726FF281C08E0072401221A
:101FB00021408A40111C9B191A7B8A431A7370BDF9
:101FC0007C06002010B5142913D81139012910D925
:101FD000084C0021201CFEF763FE201C0121FEF7A7
:101FE0005FFE201C0B21FEF75BFE201C0121FEF78B
:101FF00057FE10BD7C06002010B5041C054BD021F7
:1020000008330360044B054A18600548FEF7A8FE34
:10201000201C10BD402F03003008002029230000A1
:102020007C06002038B54418257B1540002B02D1D2
:10203000237AAB4204D003482A1CFEF700FE257227
:1020400038BDC0467C060020F8B50379051C002B7E
:102050004FD00124067B264200D1C0E0002008F0CA
:102060004FFF002800D1BAE002273E4205D00120F0
:1020700008F046FF002800D0B3E004273E4205D018
:10208000022008F03DFF002800D0ACE008273E42C7
:1020900005D0032008F034FF002800D0A5E0102769
:1020A0003E4205D0042008F02BFF002800D09EE01F
:1020B00020273E4205D0052008F022FF002800D04E
:1020C00097E040273E4205D0062008F019FF00287F
:1020D00000D090E076B2002E05DA072008F010FF5D
:1020E000002800D089E00021281C221C0B1CFFF7CF
:1020F00099FF6B79002B46D001246E7B26427FD05E
:10210000082008F0FDFE00287AD002273E4204D0C5
:10211000092008F0F5FE002874D104273E4204D0BF
:102120000A2008F0EDFE00286ED108273E4204D0B8
:102130000B2008F0E5FE002868D110273E4204D0AD
:102140000C2008F0DDFE002862D120273E4204D09A
:102150000D2008F0D5FE00285CD140273E4204D077
:102160000E2008F0CDFE002856D176B2002E04DAFB
:102170000F2008F0C5FE002850D1281C0121221C88
:102180000023FFF74FFFAB79002B1ED00124AE7B5D
:10219000264246D0102008F0B3FE002841D0082780
:1021A0003E4204D0132008F0ABFE00283BD110279C
:1021B0003E4204D0142008F0A3FE002835D1281C8C
:1021C0000221221C0023FFF72DFFEB79002B2ED0DC
:1021D0000022281C0321131CFFF724FF27E0002402
:1021E00042E73C4349E73C4350E73C4357E73C4325
:1021F0005EE73C4365E73C436CE780231C4372E7A2
:10220000002482E73C4388E73C438EE73C4394E765
:102210003C439AE73C43A0E73C43A6E780231C43AA
:10222000ABE70024BBE73C43C1E73C43C7E7F8BD4D
:10223000F7B50F1E0190032F75D843181A71002AA5
:1022400071D0CC00E4B21E7B142C53D801252E4251
:1022500050D0201C08F054FE00284BD0132C10D86E
:10226000102C10D002231E4206D0601C08F048FE3D
:10227000002801D002231D43132C34D004231E4216
:1022800049D1112C07D808231E4204D0E01C08F0C5
:1022900037FE002830D1102C07D810231E4204D05E
:1022A000201D08F02DFE002829D10F2C07D820234F
:1022B0001E4204D0601D08F023FE002822D10E2CFF
:1022C00007D840231E4204D0A01D08F019FE0028A4
:1022D0001BD10D2C07D876B2002E04DAE01D08F0D1
:1022E0000FFE002814D10198391C2A1C0123FFF786
:1022F00099FE18E00025B1E708231D43CBE7102322
:102300001D43D2E720231D43D9E740231D43E0E7C7
:1023100080231D43E7E7A01C08F0F2FD0028B0D0A1
:1023200004231D43ADE7F7BD08B5031C0A1C034990
:102330000868191CFFF77CFF08BDC0463008002064
:10234000002070477047000070B5142815D8031C92
:10235000113B012B11D9041C084E0D1C301C211CF3
:10236000FEF725FD012808D1201C291C08F0AEFD30
:10237000301C211C2A1CFEF73DFD70BD7C06002090
:1023800010B5142919D80B1C113B012B15D9012AA2
:1023900013D10B480C1CFEF70AFD7F280DD0094B0A
:1023A0001B5D012B03D0201C002108F08FFD201C99
:1023B000012108F089FD012000E0002010BDC04689
:1023C0007C0600200808002010B514290BD811390C
:1023D000012908D9044C0121201CFEF761FC201CB6
:1023E0000121FEF75DFC10BD7C06002038B5041C01
:1023F000084B094D08330360084B90211860084AC8
:10240000281CFEF7ADFC281CF521064AFEF7A8FCA7
:10241000201C38BD582F03007C0600203408002003
:102420006525000049230000F0B585B0019203291D
:1024300000D992E04B1CDB00DBB21A1C1A2B00D92E
:102440001A22D3B2C9000393CCB20123251C002663
:102450000093039B9D422ED2142D25D82B1C113B9B
:10246000012B21D93E4F291C381CFEF7A0FC012866
:1024700005D0381C291CFEF79AFC002814D1009ABC
:10248000019B374F13405A1E9341381CDBB2291C65
:102490000293FEF78CFC01284BD1009B1E43304871
:1024A000291C029AFEF7A6FC009B01355B00DBB2FB
:1024B0000093EDB2CDE76B4601211D790E4203D0AA
:1024C0002940201C08F002FDB30704D5A907601CB1
:1024D000C90F08F0FBFC730704D56907A01CC90FDE
:1024E00008F0F4FC330704D52907E01CC90F08F0F5
:1024F000EDFCF30604D5E906201DC90F08F0E6FC43
:10250000B30604D5A906601DC90F08F0DFFC7306E9
:1025100004D56906A01DC90F08F0D8FC76B2002EBC
:102520001BDA6B4604215956E01DC90F08F0CEFC9A
:1025300013E0381C291CFEF73AFC0028AFD1029B9F
:10254000002BACD0381C291CFEF750FC0128A6D06B
:10255000281C022108F0B8FCA1E705B0F0BDC04678
:102560007C06002008B5031C0A1C03490868191CD6
:10257000FFF75AFF08BDC046340800200022024B76
:102580001A705A607047C0463808002010B5041C05
:10259000034B0A1C1868211C03685B68984710BD30
:1025A0004008002070B5061C0D1C131C034A311C8A
:1025B0001068026894682A1CA04770BD400800207B
:1025C0007047F7B50024061C171C251C0191331C0D
:1025D00040331B78A3420CD9A300F3185868019923
:1025E00003683A1C5B68984701340543EDB2E4B2D6
:1025F000EDE7281CFEBD38B5051C00242B1C40331C
:102600001B78A34208D9A300EB185868013403686B
:10261000E4B2DB689847F1E738BD0000F7B5051C68
:102620000E1C01921F1C6B293FD06D2969D1002A15
:1026300001D100207AE03C78192CFAD83C4DF021E9
:10264000281CFEF72DFB281C6E21FEF729FB211C00
:10265000281CFEF725FB211C281CFEF7A8FB011CEB
:10266000281CFEF71DFB211C281CFEF7BFFB7F2644
:10267000011C041C3140281CFEF712FB2D4B1C4290
:1026800004D0E1113140281CFEF70AFBC0231B02D5
:102690001C4204D0E102490E281CFEF701FB24482D
:1026A000F721FEF7FDFA012040E0214EF021301C19
:1026B000FEF7F6FA301C6C21FEF7F2FA0024301C0B
:1026C000211CFEF774FB00277F280BD1301C7F21D3
:1026D0000134FEF7E5FAE4B2012003F059FD1A2CAB
:1026E000EDD1DCE72B1C40331B78BB42EED9BB009D
:1026F000EB185868211C036801371B689847FFB224
:10270000F0E700242B1C40331B78A34291D9A3008F
:10271000EB185868311C0368019A9B689C463B1C67
:10272000E047002802D10134E4B2EBE7FEBDC04629
:102730007C06002080FF000038B5041C0A4B0B4DBE
:10274000083303600A4BF42118600A4A281CFEF77C
:1027500007FB281CF021084AFEF726FB231C002259
:102760004033201C1A7038BD702F03007C060020F7
:10277000400800208D250000A5250000021C10B592
:10278000403213780E2B04D85C1C9B00C0181470C8
:10279000416010BD70470020704710B5041C03F065
:1027A000EBFC1323A060E36010BD10B5041C0020F7
:1027B0007A290BD1012A09D91A785B780130DB011B
:1027C000D318002B01D0E36000E0E06010BD38B505
:1027D000041C03F0D1FCA268E168031C6060851A48
:1027E00000208D4208D98A18981A884201D8A26020
:1027F00001E05B1AA360012038BD0A3A101C424276
:102800005041C0B270470000153910B5012908D8F1
:10281000044C0A21201CFEF743FA201C0021FEF77D
:102820003FFA10BD7C060020074B021C08330360F2
:102830000023AC32136053609360D360031CFF220B
:102840003C331A707047C046A02F03000839031CA0
:1028500000B5081C002203290BD825F005F9020455
:102860000608AC3304E0B03302E0B43300E0B83320
:102870001A68101C00BD0000F0B585B0602901D0B9
:102880000020FCE019780F240D1C25400B2DF7D8F3
:10289000A143302900D191E01E1C171C041C3029D3
:1028A00004D810290CD0202971D0E7E0602900D18C
:1028B000D2E0702900D1D8E0502900D0DEE0BBE0A2
:1028C0009B78DA01F3789B03134372781343002259
:1028D0000293AB00C318DA671A64431970331A7095
:1028E000072D0AD8291CFFF7B1FF002800D1C5E049
:1028F000036802999B699847C0E0042FC0D93379D7
:102900000093737901930A2D08D00B2D17D0061C64
:10291000092D01D0AC3603E0B03601E0061CB43618
:102920003768002F1CD144200BF025FC3B1C00997C
:10293000019A039000F00CFB039B336010E0031C32
:10294000B8331B68002B0BD144200BF014FC002380
:102950000099019A061C00F0FBFA231CB8331E6094
:10296000201C291CFFF772FF041E00D186E0454D94
:102970000099281C0A22FEF71FFA281C01990A2236
:10298000FEF71AFA201C029900F0FCFB76E0291CE5
:10299000FFF75CFF051E71D07F087F000137741CB4
:1029A000F619B4426AD0617823782A68C901C91837
:1029B000C9B21368281C98470234F2E759780029F5
:1029C00019D1061C3C36347867B2062F56DCAF1C92
:1029D000BF00C719022A06D9D9789A78C9010B1CF9
:1029E00013437B6000E079600134E4B2347064B278
:1029F0000419257142E0012940D1061C00233C3610
:102A0000347867B29F4207DCFF3313E0C2181279B3
:102A1000AA420CD00133DBB29F42F7DA002306E072
:102A2000072B02D8C218517911710133DBB29F42D2
:102A3000F6DA631E337021E0291CFFF707FF041E3E
:102A40001CD0072D02D803681B6A0CE000F036FB8F
:102A5000201C04F0E7FD11E0291CFFF7F7FE002819
:102A60000CD003685B69984708E0072D06D9291C3C
:102A7000FFF7ECFE002801D000F0D0FA012005B0ED
:102A8000F0BDC0467C06002038B5041C0825201C7B
:102A9000291CFFF7DBFE002801D004F0C3FD01353F
:102AA000EDB20C2DF3D1231CFF223C331A700C34F1
:102AB000002204C4A342FBD138BD0000031CF0B5C2
:102AC0003C331B7885B07F2B00D9ADE0019003F03B
:102AD00053FB002303900293019B029A3C331B7823
:102AE0005BB2934200DA9FE0029A019B9B181B792C
:102AF00000939D00019B0099181C5D19FFF7A6FE2D
:102B0000EE68041E22D0009B072B03D9474B1B689D
:102B100098421BD12368201C9B689847002815DD2C
:102B2000019B009A9B1870331978002919D0EB6F1C
:102B3000002B0FDC002E26D12F285EDC984205DD0D
:102B40000023039AE8672A64002B0AD1029B013311
:102B5000DBB2C0E7039A2F6CD21B8A42EAD39842B9
:102B600049DC334FF021381CFEF79AF8381C6021FD
:102B7000FEF796F84021009B381C1943FEF790F8A9
:102B8000002E4BD014E0002ED8DDB042D6DB9842A8
:102B900031DC274FF021381CFEF782F8381C602109
:102BA000FEF77EF84021009B381C1943FEF778F8A9
:102BB0002368201C9B689847B0422FDDEB6F9B1B5E
:102BC00000D50023EB67002E10DD2368201CDB6896
:102BD00098477F21164FC5B22940381CFEF760F890
:102BE000E909381CFEF75CF8013EECE71048F721D4
:102BF000FEF756F8AAE70123A3E79842FBDC0C4E48
:102C0000F021301CFEF74CF8301C6021FEF748F82C
:102C10004021009B301C1943FEF742F82368201C1A
:102C20009B689847061CC9E705B0F0BD4408002022
:102C30007C06002008B5FFF741FF08BD0A4B1B6862
:102C400098420ED1094B0A4A19781278914208D05D
:102C50001A780849885C3F211A7801320A401A70B4
:102C600001E001204042704744080020480800204D
:102C70008908002049080020F7B5021C72B6C38FEE
:102C80000120002B02D15060181C6EE0141C40344F
:102C900024786408044001D0C943C9B2C220556BEE
:102CA000324E800035500120A0250196177CED059D
:102CB000B840002C02D0A127FF0000E02C4FE851C3
:102CC000181C0138C046C046C046C046C046C04673
:102CD000C046C046C046C046C046C046F1D10825E1
:102CE000177C0120BC46A0276646FF05014203D0A1
:102CF000B040A126F60001E0B0401D4EB851181CAE
:102D00000138C046C046C046C046C046C046C04660
:102D1000C046C046C046C046C046F1D1013DEDB2F6
:102D20004908002DDCD10121A020157CC005A94057
:102D3000002C01D00E4C01E0A124E4000151516BA4
:102D4000C122019892008150181C0138C046C0462B
:102D5000C046C046C046C046C046C046C046C04643
:102D6000C046C046F1D162B60120FEBD0060004001
:102D70000C050000084B1B68984209D1074B084A14
:102D800019781278914203D01B78064AD05C01E092
:102D9000012040427047C0464408002048080020F7
:102DA0008908002049080020474BF7B51C68002C13
:102DB00000D187E0271C40373B78201C9B0704D5B7
:102DC00000F094F9431E984103E000F08FF943426C
:102DD0005841C0B2002800D174E0C2223B4B616B65
:102DE00092009950208F019300280DD00138C046E1
:102DF000C046C046C046C046C046C046C046C046A3
:102E0000C046C046C046F1D108260025608F002884
:102E10000DD00138C046C046C046C046C046C04678
:102E2000C046C046C046C046C046C046F1D1C046B6
:102E3000C046C046C046C046C046C046C046C04662
:102E4000C046C046C046C046C046C046C046201C1C
:102E50006D0800F04BF9002803D080235B421D432E
:102E6000EDB2013EF6B2002ED0D13B789B0701D5E2
:102E7000ED43EDB23F21164A137801330B4015495B
:102E800009788B4204D0117813481370455403E03D
:102E900001223B7813433B70A08F00280DD00138EE
:102EA000C046C046C046C046C046C046C046C046F2
:102EB000C046C046C046C046F1D1C123626B0199ED
:102EC0009B00CA50F7BDC046440800200060004087
:102ED0008908002048080020490800200A4B021CED
:102EE0001B6800209A420DD1084B1878084B4030DF
:102EF0001B78C01A074B184004D5402301385B42A9
:102F0000184301307047C04644080020890800205B
:102F1000480800203F000080094B1B6898420DD1F3
:102F2000C222416B074B92009950002206490A7059
:102F300006490A70C122416B920099507047C04601
:102F40004408002000600040890800204808002054
:102F5000F0B585B00393FA23071C00259B00041CE1
:102F60008360154B154E083314370191456003609B
:102F7000311C381C029202F0FFFF0120221C039931
:102F800040320140814013782587834300188343F2
:102F90000B436587A587E587381C1370311C03F048
:102FA00018F86A461279A31CDA776A46201C127A4E
:102FB000631CDA7705B0F0BD1030030032880300DF
:102FC000002330B50B495A008C1865780C1C002D75
:102FD00008D1515C814205D00133042BF2D101208C
:102FE000404206E00025A118A054034A9B009858CF
:102FF0004D7030BD180000200800002038B5064D87
:1030000000242B68834205D10233D87F02F01CFFD5
:103010002C600134201C38BD44080020002370B50A
:10302000828F9A423DD0204E3268824239D0041CB1
:103030009A4202D0101CFFF7E1FF221C012540320A
:1030400013781A49AB43137000220A701849346090
:103050000A70A61CF07F9B0712D5FFF7B1FF6063D3
:10306000431C01D101231CE012490422F07F02F02D
:1030700075FEC0214022104B49005A501A60F1E7FA
:10308000FFF79EFF6063431CECD00A490322F07FE8
:1030900002F064FEC0214022074B49005A501A60DA
:1030A0002B1C181C70BDC046440800208908002055
:1030B00048080020A92D000000E100E010B5041C24
:1030C000FFF79CFF00230234E07F074A59008C5C25
:1030D000844205D1012053185870FF238B5402E01D
:1030E0000133042BF1D110BD1800002008B50230C7
:1030F000C07F07F063FF08BD70B50126031C0C1CE0
:10310000311C40331B78051C5B089943201C07F0D9
:10311000DDFE201C311C07F015FF064BA200D35822
:103120009E402B74E301E402E41A034BEE62E418C0
:103130002C6370BDBC2F03000805005038B5051C7A
:103140000C1C081C002107F0FDFE2B1C40331B78D3
:103150009B0703D4201C012107F0B8FEAB1CDC77D1
:10316000064BA200D258012393406B62E301E402B4
:10317000E41A034B6A74E418AC6238BDBC2F030038
:1031800010050050F8B5051C1435041C0F1C281C34
:10319000244902F02FFF244E00280ED1311C281C98
:1031A00002F028FF631CD97F002803D0201CFFF702
:1031B000A3FF07E0201CFFF79FFFA31CD97F201C63
:1031C000FFF7BCFF381C25F051FD011CFE208005D7
:1031D00025F08AF8154925F079FA24F09DFE420879
:1031E00083B2023A22875A1EE3876287A387181E9A
:1031F0000DD00138C046C046C046C046C046C04695
:10320000C046C046C046C046C046C046F1D1281C94
:10321000311C02F0EFFE002802D1201CFFF7FEFE59
:10322000F8BDC046A3600300B82F03000024744912
:10323000C8230360C93B8360704701717047000079
:10324000836810B5994217D08160B422B32903DC9A
:103250000022914200DD0A1CFA23DB00534304796B
:10326000B421181C24F0A4FC021CF532FF3292B2E7
:103270000248211C02F012FC10BDC0468A08002042
:1032800010B5054C201C02F05FFB201C0349044ACA
:103290000AF066FF10BDC0468A0800204B590000A6
:1032A00000000020704708B50C3002F03DFD08BD5D
:1032B00008B50C3002F02AFD08BD08B50C3002F04C
:1032C00039FD08BD70B5041C094B0E1C08330360A2
:1032D0000C30151C02F000FD201C543002F0FCFCE8
:1032E000002326716571201C2372637270BDC04675
:1032F000303003000123024A8371024B1A60704789
:10330000D40A002034090020F0B585B002AF002AAD
:1033100001D1002026E0141E402C00D940240C309E
:103320000E1C3B60786002F0EDFC6A46E31DDB0892
:10333000DB00D31A9D463B6802AD00930A4B710037
:1033400018682A1C231C05F041FE084B2E199842D0
:10335000DFD0B54205D02978786802F0C8FC013585
:10336000F7E7E0B2BD46FEBD340900200EFCFFFFCA
:1033700008B50023FFF7C8FF08BD031C9C3310B538
:10338000041C1970543002F0BDFC0123237210BDDF
:10339000002373B503720E4B021C1E68031C9C3382
:1033A0001C78083B1B68640054320125002B00D1B7
:1033B0002B1C694000910749301C0191211C05F02C
:1033C00015FE054BC01843425841C0B276BDC046F9
:1033D0003409002040420F00F203000008B501212B
:1033E000FFF7D6FF08BD38B5037A002B06D054305E
:1033F0000D1C041C02F0A7FC002801D0002004E0F2
:10340000201C291C02F073FC012038BD08B50348BC
:103410001E210022FFF756FF08BDC0468C08002081
:1034200008B50022074B18681A60904205D0064B79
:103430001B681B68934200D09847322003F042FF7C
:10344000EFE7C046480900205009002038B50024A5
:10345000174D2C7002F098FE164B17491A68186029
:10346000821A281C154D164BAA4202D90C601C600A
:103470001DE0144C1219F9246400A24207D81A68FE
:10348000F23C52001A601A68FF3C224301E01A68BD
:1034900052001A600A6801320A600A68202A06D1BE
:1034A0001A68094B1A600123037000230B6038BDB2
:1034B000400900204C09002054090020B80B0000EE
:1034C000440900202FF8FFFF480900200023054A87
:1034D00003601060044A01711360044A1370044AC7
:1034E000137070475009002048090020400900204F
:1034F0003809002010B5064C01602378002B05D157
:103500000448054903F006FE0123237010BDC046A0
:103510003809002021340000C97300000079704789
:1035200010B5041C0021007907F0CEFC2079024977
:10353000042202F013FC10BD4D34000008B5FFF763
:10354000EFFF08BD017070477047000010B50C1CFC
:103550000078012107F0B8FC211C012024F028FB91
:1035600025F084FB034925F0B1F825F05FFB024B01
:10357000186010BD00007A443C090020F8B5041C16
:103580000D1C02F001FE061C2078012107F09EFCB4
:10359000164F386800280DD00138C046C046C046D6
:1035A000C046C046C046C046C046C046C046C046EB
:1035B000C046F1D12078002107F088FC3868002847
:1035C0000DD00138C046C046C046C046C046C046C1
:1035D000C046C046C046C046C046C046F1D102F013
:1035E000D3FD801BA842CFD3F8BDC0463C090020C4
:1035F00070B5061C0C1C02F0C7FD0021051C3078BC
:1036000007F064FC02F0C0FD401BA042FAD370BD7D
:10361000F8B50E1C2621041C171CFFF797FF72B685
:103620001349201CFFF7AAFF201C1249FFF7E0FFF7
:1036300000258C21201C8900BD4211DA002E05DAFC
:10364000FFF79CFFC821201CC90004E0FFF796FF8C
:103650008C21201C8900FFF7CBFF76000135E8E7BD
:10366000FFF78CFF201C0021FFF7C2FF62B6F8BDF8
:1036700028230000941100007047000008B50021C5
:103680002C22054828F0B9FA0121044849420B22AE
:1036900028F0B3FA08BDC046580900209809002058
:1036A00010B5041C024B1860FFF7E8FF201C10BD8A
:1036B000A409002008B5E623024A5B00D05804F0B4
:1036C00087FF08BD1C0A002008B5024806F0E4FE8A
:1036D00008BDC046FC0B0020F7B5E422214B520088
:1036E000985804F08AFB27F001F9E4221D4B5200A0
:1036F000041C98580D1C04F087FB27F0F7F8E4220F
:10370000184B5200061C98580F1C04F084FB27F03D
:10371000EDF8221C009001912B1C201C291C26F086
:103720009BFA321C3B1C041C0D1C301C391C26F05F
:1037300093FA021C0B1C201C291C25F027FB0D1CD6
:10374000041C00980199021C0B1C26F085FA021C2F
:103750000B1C201C291C25F019FB22F009FD27F069
:103760008FF8FEBD1C0A002008B5031C00200329A9
:103770001CD8081C24F078F902091017E4230C4A1D
:103780005B00D05804F039FB10E0E423084A5B00EA
:10379000D05804F039FB09E0E423054A5B00D05817
:1037A00004F039FB02E0181CFFF796FF08BDC04685
:1037B0001C0A00201FB5E423034A5B0001A8D1586E
:1037C00004F00DFB05B000BD1C0A0020F8B50E1E6C
:1037D0000B2E1DD101232B4F2B4C3D681D4005D1D5
:1037E00002F0CAFC0123206065603B6002F0C4FC6B
:1037F0000023021C20686168121A8B41002B02D141
:10380000181C092A3CD902F0B7FC00232060636031
:10381000E4231E4A5B00D05804F09AFB041C0B2ED4
:1038200009D11B4B0B2802D01A680B2A0DD100229C
:1038300001201A6024E00B2807D1154B1C6002F010
:103840009BFC0022134B18605A6002F095FC002389
:10385000021C104D28686968121A8B41111C002B3C
:1038600003D1FA23DB00994206D902F085FC00233C
:10387000074A28606B601360301B43424341D8B253
:10388000F8BDC046AC090020900900201C0A0020A9
:10389000A80900208809002008B5E623024A5B0039
:1038A000D05804F06FFD08BD1C0A002010B5054C6F
:1038B000201CFFF7F5FE201C0349044A0AF050FCC7
:1038C00010BDC046840900207936000000000020A9
:1038D00070470000836837B5041C002B01DC01230E
:1038E0008360684606F058FE009B184D02229B5EDE
:1038F000002B08D1281C05F047FB0520A36858437E
:1039000003F0E0FC1DE0012B09DD694601A806F08B
:10391000C7FE281C01A9A26805F0E4FA0EE0002108
:10392000684606F0DAFE011C01A806F042FE0522F8
:10393000A368281C5A4301A905F042FA01A806F021
:103940000FFE684606F00CFE3EBDC0460C0B002084
:10395000836837B5041C002B01DC012383606846B3
:1039600006F032FE009B184D02229B5E002B08D110
:10397000281C05F009FB0520A368584303F0A2FCAE
:103980001DE0012B09DD694601A806F089FE281C0F
:1039900001A9A26805F0A6FA0EE00021684606F02B
:1039A0009CFE011C01A806F004FE0522A368281C49
:1039B0005A4301A905F004FA01A806F0D1FD6846B2
:1039C00006F0CEFD3EBDC0460C0B002000210A4B88
:1039D00010B50833041C416003601F220C3028F02E
:1039E0000CF9FF2323736373FA3BA373237491339E
:1039F000201CA36010BDC0464830030008B5024833
:103A000005F0C7FA08BDC0460C0B002008B50248F7
:103A100005F090FA08BDC0460C0B002008B5581EF2
:103A200083415B42DBB2024806F0F0FE08BDC046AF
:103A3000800B002008B5024806F0DEFE08BDC04637
:103A4000800B00207FB5061C021C193603230C785E
:103A500080259C402C40D518002C00D00124013337
:103A6000EC73082BF3D105320131B242EED1011CC7
:103A700002A80C3106F0B0FE02A903A806F0A4FECD
:103A80000023C822009303A9019205481A1C05F0DF
:103A9000CDF903A806F085FE02A806F082FE7FBDE0
:103AA0000C0B002010B5054C201CFFF78FFF201CCD
:103AB0000349044A0AF054FB10BDC046B009002077
:103AC000D13800000000002010B588B005A81149C9
:103AD00006F0F6FB05A904A806F086FD05A807F088
:103AE00077F8049B191D0C4B186802F072FA0B4B07
:103AF0001C68002C09D0049B05A8191D02F03CFA93
:103B000005A8A04705A802F0F1F904A806F028FDD1
:103B100008B010BD8C0D0020E0090020E409002051
:103B200038B5041C074D291C02F026FA064B291C47
:103B3000201C1C6002F04DFA0023044A201C137064
:103B4000E36038BD7A300300E0090020DC09002082
:103B5000F8B500240D4F3B78A34214D0051C0C4847
:103B600006F036FA061EA64209D02B2003F048F8CC
:103B700008480949321C02F0BEFB341C03E0012353
:103B80005B423C70EB60201CF8BDC046DC090020A5
:103B9000740D0020200A002058300300F7B50024DF
:103BA000144D2B78A34222D1134F0190381C06F0FC
:103BB0004DFA061EA64205D02B2003F021F80F482F
:103BC0000F490DE0381C072106F076F9061E0CD0CF
:103BD0000198FFF7BDFF2B2003F012F807480949B1
:103BE000321C02F088FB341C01E001232B70201CE6
:103BF000FEBDC046DC090020740D0020200A002014
:103C00007B3003009D30030038B5084B041C1B7843
:103C10000D1C002B05D00648291C06F003FAE560B0
:103C200003E0FFF7BBFF0028F5D038BDDC0900201A
:103C3000740D0020084B07B51B78002B0AD00968CB
:103C400001A806F0C1FC054801A906F075FB01A812
:103C500006F086FC07BDC046DC0900208C0D002064
:103C6000144B13B51B780C1C002B06D1C168CB4339
:103C7000DB171940C9B2FFF7C7FF0F4B28201C60A4
:103C80000AF079FA1023041C00931D210B4B01222A
:103C900003F01AFD0A48211CD03003685B6898477E
:103CA000002805D0201C03F026FD201C0AF05FFA36
:103CB00013BDC046DC090020E4090020C93A000019
:103CC0001C0A002000B513282AD823F0CDFE260AAE
:103CD000280C0E100A12140A16181A1C1E20222272
:103CE000242412201CE01E201AE06A2018E00D2077
:103CF00016E0302014E0192012E00B2010E009201B
:103D00000EE008200CE028200AE0022008E007204E
:103D100006E0052004E0062002E00A2000E0402042
:103D200000BD0000F8B5041C0F1C151C0F491E1C1B
:103D300002F022F9201C391C02F031F90123AA07F4
:103D400001D42B07DB0F237601236A0701D42D074B
:103D5000EB0F63760423E36023610023301C63616F
:103D6000FFF7B0FFE061201CF8BDC0467A300300C9
:103D700038B50C4B8000C0580C1CC0B202F0BCF926
:103D80000021051C06F006F8002C09D0201C03F0C9
:103D900099FA281C002105F0FDFF052002F03CFCEB
:103DA00038BDC046C8300300144B8000C05870B501
:103DB000C0B20E1C151C02F09FF9041C002E03DC7F
:103DC000002105F0E7FF0BE08021890005F0E2FF0C
:103DD000311C0B4823F0ECFE011C201C06F020F8DF
:103DE000002D09DD281C03F06DFA201C002105F0D0
:103DF000D1FF052002F010FC70BDC046C8300300A2
:103E000040420F001FB50C1C131C81B2A2B26846C1
:103E100006F0A4FC1FBD0000F0B500240F1C251CFB
:103E20004B698DB0049001930094BB689C4215D2FD
:103E3000381C211C02F0F4F803787C2B0CD1019B78
:103E40009D4206D106A8391C009A231C02F0F6F800
:103E500004E0631C009301350134E6E77B6909A89F
:103E60000393FB6806A900933D69002402F0A7F8BC
:103E70000123019402930B9B9C4250D206A8211C63
:103E800002F0CEF80378472B2FD012D8422B30D037
:103E900007D83A2B32D0412B29D0232B32D10136EF
:103EA0003BE0442B1BD037D3452B1AD0462B1AD0DE
:103EB00028E0642B13D00AD8612B18D002D8522BDB
:103EC00019D01FE0622B14D0632B25D01AE0662B8B
:103ED00009D006D3672B08D0722B0CD012E0032632
:103EE0001BE0052619E0062617E0082615E00A263D
:103EF00013E00C2611E0012301930EE0002305944A
:103F000002930AE0029B002B07D006A8211C02F0B6
:103F100087F80578303D00E001260134ABE7029BCD
:103F2000002B07D1059906A8013102F079F8037832
:103F3000303B0093254B2648196823F039FE009A40
:103F4000019B4243002B04D0D1B20498FFF710FF2D
:103F50000CE00C23691E4B43F3180199552B02D832
:103F60001C499B0059580498FFF71EFF009B3D61B8
:103F7000FB603B7E002B25D0FB69039A013B9A42F4
:103F800020D1012400237B617B7EF121002B00D115
:103F9000F039FA200122C000FFF734FF002C09D0CD
:103FA0007B7EF421002B00D1F039FA200122C000E1
:103FB000FFF728FF09A801F099FF06A801F096FF76
:103FC0000DB0F0BD039B00240133DCE77C01002031
:103FD000983A000024000020F8B50123244C254D18
:103FE00023702B70244E3168371C0B7E002B1BD1A5
:103FF0004B69CA69934217DB4B7EF321002B00D13A
:10400000F039FA200122C000FFF7FCFE3E68002EC6
:1040100005D0301C01F06AFF301C0AF0A8F800231C
:104020003B6023702B70F8BD2378002BE4D0134B3A
:104030001868C0B2FFF7F0FE33681A7E002AD1D1AB
:104040005969DB699942CDDB0D490B68002BC9D05A
:10405000FA200A60C000032101223360FFF7D2FE7C
:10406000FA20F621C0000122FFF7CCFEBAE7C046D5
:10407000EC090020ED090020F009002020000020BC
:10408000E80900200023024A1370024A13707047A7
:10409000EC090020ED0900209023FF33994201DD57
:1040A000C8214900042900DA0421014B1960704736
:1040B0007C010020154B10B515480C1C196823F025
:1040C00077FD021C082C1AD008D8022C13D0042C1F
:1040D0001AD1C3179B0F1818801016E04000202C2F
:1040E00013D09000402C10D0102C0DD1D3171B0FE3
:1040F0009818001109E0C30F1818401005E0C31705
:104100005B0F1818C01000E0101C10BD7C010020CF
:1041100060EA0000F8B51E1C164B8900071CC85841
:10412000151CC0B201F0E8FF311C041C381CFFF75D
:10413000C1FF061C201C002D03DC002105F02AFE17
:104140000BE08021890005F025FE291C0A4823F098
:104150002FFD011C201C05F063FE002E09DD301C24
:1041600003F0B0F8201C002105F014FE052002F039
:1041700053FAF8BDC830030040420F0070B5002369
:10418000061C0D1C04980599141C002223F02CFE1B
:1041900000280CD0049805990022474B23F01AFE02
:1041A000002804D0301C291C221C102380E0049815
:1041B00005990022404B23F017FE00280DD00498EB
:1041C0000599FF2300229B0523F004FE002804D05C
:1041D000301C291C221C08236AE0FF23049805993F
:1041E00000229B0523F000FE00280CD004980599BE
:1041F0000022324B23F0EEFD002804D0301C291C95
:10420000221C042354E00498059900222B4B23F030
:10421000EBFD00280CD0049805990022284B23F0D0
:10422000D9FD002804D0301C291C221C02233FE0A9
:10423000049805990022224B23F0D6FD00280CD0CB
:104240000498059900221F4B23F0C4FD002804D0D8
:10425000301C291C221C01232AE004980599002205
:10426000184B23F0C1FD00280DD004980599802338
:104270000022DB0523F0AEFD002804D0301C291CF1
:10428000221C202314E08023049805990022DB05DA
:1042900023F0AAFD0028DBD00498059900220A4BE0
:1042A00023F098FD0028D3D0301C291C221C402369
:1042B000FFF730FF70BDC0460000B03F0000D03FA8
:1042C0000000E03F0000F03F00001040094B10B537
:1042D0001A78002A0DD0084A1178141C002908D039
:1042E00000221A702378002B03D00A2001F050FF1F
:1042F000F8E710BDEC090020ED090020F0B51D1C09
:104300004C4B87B0161C1960FFF7E0FF4A4C4B4F2F
:104310002268002A47D00C232B400BD1517E002964
:1043200008D0FA204649C0000A60F5210122236026
:10433000FFF768FD2368002B09D05B7EF321002B7B
:1043400000D1F039FA200122C000FFF75BFD391CD3
:10435000132E02D83B4BB200D158684601F00CFE38
:104360006846391C01F046FE002855D1694603A86D
:1043700001F025FE202009F0FEFE071C03A9331CD6
:104380002A1CFFF7CFFC03A8276001F0AFFD2368CC
:10439000F2215B7E002B00D1F039FA200122C0000F
:1043A000FFF730FD31E0391C132E02D8254BB20047
:1043B000D158684601F0E0FD6846391C01F01AFE4C
:1043C000002829D1694603A801F0F9FD202009F051
:1043D000D2FE071C03A9331C2A1CFFF7A3FC03A869
:1043E000276001F083FD2368F2215B7E002B00D162
:1043F000F039FA200122C000FFF704FD0122124B20
:10440000124813491A7002F085FE6846013D01F01A
:104410006DFD012D0CD803E0684601F067FD07E053
:10442000094B1B78002B03D0142001F0B1FEF7E7F5
:1044300007B0F0BD20000020F00900201431030077
:10444000E8090020B4360300EC090020D93F000041
:10445000C973000010B5054C201C09F0ADFE201CEE
:104460000349044A09F07CFE10BDC046F40900204F
:10447000D1E2000000000020021C00232032437221
:1044800003614361C361026343620832C362FF3365
:1044900042638373704710B5041C0069002801D083
:1044A00003F0C0F8236B5868002801D003F0BAF875
:1044B000636B5868002801D003F0B4F80E20205632
:1044C000002802DB002106F0FFFC201C10BDF7B520
:1044D000051C00690191002801D003F0A3F8686968
:1044E000002801D003F09EF8EB7E2C7E1C1B63425B
:1044F0005C4104231C1B019B5C43A4B2AC81201CC7
:1045000003F05CF8071E286112D0201C03F056F857
:10451000061E68610CD00021221C381C27F06DFBA0
:10452000301C0021221C27F068FB6B469B8801E0B1
:104530000023AB816B81F7BDC37E027E70B59A1AF2
:1045400054425441E2B203248B110D118E102640C7
:10455000234025400C4046768476FF2600248E4278
:1045600064410169C37605760472002907D05B1B9C
:104570005C425C41944202D04189FFF7A8FF70BDC4
:10458000F0B5036985B0041C002B00D13CE101F0BB
:10459000FBFDE369C01A3128F9D9236BA0221E78EC
:1045A0000325331C0E20C133FF339B00D2059D50E1
:1045B0002056002106F08AFC32200138C046C04651
:1045C000C046C046C046C046C046C046C046C046BB
:1045D000C046C046F1D172B601230020B340226B21
:1045E0000192528855430295029A904200D107E108
:1045F000019A52681118CA1C0392A122A0250F78B3
:10460000D2009446FF09ED05804A002F0CD0674682
:10461000EB51C046C046C046C046C046C046C04634
:10462000C046C046AB500BE06746EB51C046AB50AE
:10463000C046C046C046C046C046C046C046C0464A
:104640000D78A127AC46A0256646ED05FF00EB518D
:1046500076060AD5C046C046C046C046C046C046DB
:10466000C046C046C046AB5009E0C046AB50C0464D
:10467000C046C046C046C046C046C046C0460D788B
:10468000A127AC46A0256646ED05FF00EB51B60616
:104690000AD5C046C046C046C046C046C046C04611
:1046A000C046C046AB5009E0C046AB50C046C0460D
:1046B000C046C046C046C046C046C0460D78A12789
:1046C000AC46A0256646ED05FF00EB51F6060AD57F
:1046D000C046C046C046C046C046C046C046C046AA
:1046E000C046AB5009E0C046AB50C046C046C046CD
:1046F000C046C046C046C046C0460D78A127AC465D
:10470000A0256646ED05FF00EB5136070AD5C046E9
:10471000C046C046C046C046C046C046C046C04669
:10472000AB5009E0C046AB50C046C046C046C0468C
:10473000C046C046C046C0460D78A127AC46A0255D
:104740006646ED05FF00EB5176070AD5C046C04628
:10475000C046C046C046C046C046C046C046AB5034
:1047600009E0C046AB50C046C046C046C046C04641
:10477000C046C046C0460D78A127AC46A025664677
:10478000ED05FF00EB51B6070AD5C046C046C0464E
:10479000C046C046C046C046C046C046AB5009E011
:1047A000C046AB50C046C046C046C046C046C046E4
:1047B000C046C0460D78A127AC46A0256646ED054B
:1047C000FF00EB51F6070AD5C046C046C046C046BA
:1047D000C046C046C046C046C046AB5009E0C046D1
:1047E000AB50C046C046C046C046C046C046C046A4
:1047F000C046039A0131914200D0FEE60330F3E651
:1048000062B601F0C1FCE06105B0F0BD0C0500002E
:10481000144B81738900026BCB5810B51370A02222
:104820000324016BD2050B78C133FF339B009C50EE
:10483000012309788B400C4953500022016B4B88AF
:104840009A420EDA03234C6800215343E154046B6F
:1048500001326468E4186170046B6468E31899704D
:10486000ECE710BD043703000C050000F7B5081C89
:10487000B4214900161C1D1C23F090F9321C0C1C9D
:10488000002E03DD622E02DD632200E00022002DF7
:1048900003DD622D02DD632500E000256800404253
:1048A000C83050432A49000223F0F2F83C21061C8C
:1048B000201C23F0EDF8071C0120384003023C20A7
:1048C00040427843001900023C21019323F0E0F8B4
:1048D000019B80B2181880235B001C1A984201DDEE
:1048E000441EFF3C1C1B7443240A002F0BD0FBB258
:1048F000012F0AD0022B0CD0032B0DD0042B0FD08C
:10490000271C01960EE001960DE001940027341C4F
:1049100009E0271C341C00E0371C0023019302E04F
:10492000371C019400246802642123F0B1F8FF22AF
:10493000019B861B76089819A31910401B061B0CB7
:1049400000041843041CB81910402043FEBDC046A3
:1049500010270000F7B5046B019364888C422DD9B1
:1049600003246143446B160C6468150A641866706E
:10497000446B64686554446B64686418A270046B8B
:104980006768FF242640B4466346C67B7F185E43B3
:1049900036127E70066B25407768C67B22407543D1
:1049A0002D127D54C47B056B62436D68019B12120E
:1049B00069188A70002B01D0FFF7E2FDF7BDF0B552
:1049C00087B0041C02938A4202D20B1C111C1A1CD1
:1049D000236B5B88002B6CD00F1E9F4200DD1F1CD9
:1049E000BEB29A4200DD1A1C921B93B203930133AC
:1049F0009BB201936B46B4211B89490004930C9B25
:104A0000642598B26930049BFF30C01A23F0B6F9D0
:104A100088B26843019923F0CBF8019B0590012BE4
:104A20000CD16B46998A049B2A1C5918201C3223EE
:104A3000FFF71CFF311C021C201C34E002992A1CC9
:104A40003223201CFFF712FF311C021C0023201C04
:104A5000FFF780FF029B7E1C5D43ADB2019BFB18FC
:104A60009E4217DA6B46988A64217043281823F017
:104A70009FF8011C6931FF3189B264223223201C66
:104A8000FFF7F4FEB1B2021C0023201CFFF762FF07
:104A90000136E3E70C996422201C3223FFF7E6FE7F
:104AA000021C201C03990023FFF754FF201CFFF772
:104AB00067FD07B0F0BDF8B51F1C061C036B00298D
:104AC00001DB002A03DA00215A88013A12B28A4235
:104AD00002DA081C111C021C5B88002B19D0D5437C
:104AE000ED1715409D4200DD1D1CCC43E41721400D
:104AF000994200DD191C8CB2301CA54207DB211C39
:104B00003A1C00230134FFF725FFA4B2F4E7FFF7B6
:104B100037FDF8BD026B031C528800208A420BD976
:104B20005A6B032359435368591848780B7800048B
:104B30001B0218438B7818437047F0B587B000AF5D
:104B4000002900D195E0036B5B883B61002B00D10D
:104B50008FE0041C081C191C23F010F94BB27B6178
:104B6000002B41DD6B466A4600267B607B699B001B
:104B70000A33DB08DB00D31A9D46FB60BB8ABB60AF
:104B8000BA683B699D1AADB2291C201CFFF7C2FF11
:104B9000FA68B300D0507B6901350136ADB29E4250
:104BA000F2DB3D69BB68013DEE1A7B69B6B29D42FE
:104BB0000CDB311C201CFFF7ADFFA9B2021C002347
:104BC000201CFFF7C7FE013D013EEEE70025FA6815
:104BD000AB00A9B2D258201C0023FFF7BBFE7B69B3
:104BE00001359D42F3DB3FE06B466A467B607B69A3
:104BF00000255B42FB607B695B429B000A33DB085C
:104C0000DB00D31A9D46BB60FB689D4208D0A9B269
:104C1000201CFFF77FFFBA68AB00D0500135F3E7E7
:104C200000263B697A699D18AE420EDCFB68B5B27E
:104C3000E91889B2201CFFF76DFF291C021C002314
:104C4000201CFFF787FE0136EBE7BB68AE009E1B1A
:104C50003B699D4208DAAB00A9B2F258201C002340
:104C6000FFF778FE0135F3E77B68201C9D46FFF7D0
:104C700087FCBD4607B0F0BD10B5036B00215B8813
:104C8000002B24D0036B5B8899421ADA0323426B12
:104C90004B4354680022E254446B01316468E418C9
:104CA0006270446B6468E418A270046B6468E25438
:104CB000046B6468E4186270046B6468E3189A70AB
:104CC000E0E7041CFFF75CFC201CFFF759FC10BD5B
:104CD000F0B585B0151C0AAA1288041C01920E2298
:104CE00082560F1C01320CD002788A4209D14288C8
:104CF000AA4206D102799A4203D1C28801998A4216
:104D000033D06A462371E373236B27709288586807
:104D10006580E280002801D002F084FC636B586853
:104D2000002801D002F07EFC03266E43236B301C6A
:104D30000293039602F042FC029B666B5860039854
:104D400002F03CFC029B70605D80201C7580FFF7C8
:104D500093FF201C0199FFF7EFFB201C291CFFF794
:104D6000B6FB201C391CFFF753FD05B0F0BD000059
:104D7000F0B585B0071C0AA80026865F8A4202D2D9
:104D8000081C111C021C386B408800285BD00C1ECC
:104D9000844200DD041CA5B2824200DD021C92B2F6
:104DA000002E09DC381CFFF767FF381C291C274A36
:104DB0000023FFF7CFFD3DE0D917551B5818ABB2C4
:104DC0004840039301339BB200B25843311C019316
:104DD00022F0EEFE0290002801D0002324E0029D84
:104DE0000135019BA9B2994224D20022091989B246
:104DF000381C131CFFF7AEFDF2E7009B029A361930
:104E000093421BDAFF25181C0399684322F0D0FE59
:104E10002A1A2A4000230540381C2D04B1B22A4327
:104E2000FFF798FD009B013300936B461E88019BA2
:104E30009E42E2D3381CFFF7A3FB04E00022B1B28C
:104E4000381C131CECE705B0F0BDC04600FFFF00A6
:104E5000F7B5002950D0036B5D88002D4CD00E1C97
:104E6000041CA94202DDFFF707FF45E0002920DD11
:104E7000013D6F1ABFB2B5420CDB391C201CFFF795
:104E800049FEA9B2021C0023201CFFF763FD013D6F
:104E9000013FEFE70025B54207DA0022A9B2201C46
:104EA000131CFFF757FD0135F5E7201CFFF768FBE2
:104EB00022E000230193F317F1185940019B6F1A68
:104EC000BB420FDC6B469F88201C791889B2FFF724
:104ED00021FE0023021C391C201CFFF73BFD019B17
:104EE0000133E7E7AF42E0DA0022B9B2201C131C1D
:104EF000FFF730FD0137F5E7F7BD0000142300226E
:104F000010B5041C037001334370143B8270C370EE
:104F1000027143710248FEF7EDF9201C10BDC04636
:104F20008C080020F8B5161C094CC9B2201C1F1CA7
:104F3000351CFEF722FAAB1BBB4205DA2978201C90
:104F4000FEF751FA0135F6E7201CFEF747FAF8BDE7
:104F50008C08002013B5002401ABA24203DDB43459
:104F6000B32A00DC141C4278914201D1197001E08F
:104F700002781A705C701A1C10210223FFF7D2FF0E
:104F800013BD7047014B83617047C046834F0000DB
:104F900010B50C1C081C072100F0BCFBE379181AA3
:104FA00043425841C0B210BDF8B5051C80680E1CC4
:104FB000171C002400F01AFBA868311C012200F025
:104FC00031FB00280BD0BC4205D1281C311CFFF757
:104FD000DFFF002804D10134E4B2BC42ECD9002048
:104FE000F8BDF8B5061C80680F1C151C002400F0E5
:104FF000B7F9A04218D0B068391C00F0DFFA221CC3
:10500000B068BE2100F0A8FA2C1C0935B06800F089
:10501000C3FA20700134AC42F8D1B06800F0A0F9B6
:10502000441E60424441E4B2201CF8BD10B5141C7B
:10503000FFF7D7FF031C0020834208D0201C082163
:1050400000F068FB237A181A43425841C0B210BDE1
:1050500070B5041C0D1C161C806800F081F9A06856
:10506000291C00F0ABFAA0684E21002200F074FA6F
:10507000B178A068002200F06FFAF178A0680022F1
:1050800000F06AFA2B78102B04D03179A068002246
:1050900000F062FAA06800F063F9A068291C00F033
:1050A0008DFA2278A068482100F056FA142001F009
:1050B0006FF82378002B02D00A2001F069F8A0686D
:1050C00000F04EF970BD38B5051C0C1C806800F06E
:1050D00047F9A868211C00F071FAA868B4210022E1
:1050E00000F03AFAA86800F0F4F9041CA86800F08F
:1050F00037F960426041C0B238BDF0B587B003AC4B
:10510000161C221C071C0D1CFFF790FF01900028A5
:1051100012D02B78102B0FD05F230B2E06D07F23BD
:105120000C2E03D01F230A2E00D13F23381C291C2C
:10513000221C2371FFF78CFF019807B0F0BD1FB54B
:105140000A780C23102A16D001AC221CFFF76EFF40
:10515000002398420FD022790A333F2A0BD003D87C
:10516000013B1F2A07D005E00B235F2A03D0013340
:105170007F2A00D00023181C04B010BD70B58AB07F
:1051800005AD041C281C00F03EFA142002F016FAAB
:10519000031C46CD46C32A681A60AA889A80AA7959
:1051A00000259A7109236370083BA0602571257062
:1051B000A370E37000F01AFA25710122A068694615
:1051C00000F030FA021E20D0201C6946FFF7E0FEF6
:1051D0000028F2D02378002B05D1201C6946FFF768
:1051E00072FF00281DD16946201C02AAFFF7F9FEB4
:1051F000201C69466578FFF7A2FFA84200DA281C48
:105200002379607001332371D7E7074D201C291CD7
:10521000FFF7CAFE201C291C0922FFF76EFF0AB007
:1052200070BD01232370DEE7F50900201FB501AC36
:10523000221CFFF7D6FE2078431E9841C0B204B06E
:1052400010BD00000939C9B2F8B5041C151C0229AB
:1052500003D8104B4900CE5A00E00F4E002D15D058
:10526000E378002B12D02378002B0FD100F084FFBD
:10527000071C201C291CFFF7D9FF002809D100F0CA
:105280007BFF33B2C01AB842F3D302E030B200F071
:105290007FFFF8BD58370300EE02000010B5041C74
:1052A000806800F05DF8A06800F09AF92278A068A4
:1052B000442100F051F9A378002B04D06178201C20
:1052C0000022FFF7BFFF10BD10B553781478DB0242
:1052D000E4001C430B78A4B2102B0BD1D179907948
:1052E000081AC00122F064FC0F239C431038E4002C
:1052F0000419A4B220B210BD30B585B001AA051CB6
:105300000C1CFFF793FE002805D0281C211C01AAC5
:10531000FFF7DAFF00E0024800B205B030BDC0463A
:1053200080E4000008B5064B984206DB23F09EFCA3
:10533000F021890523F0CAF900E0024808BDC04603
:1053400081E4FFFF0000FEC238B50D1C041CFFF70E
:10535000A5FF291C201CFFF7CFFFFFF7E3FF38BD97
:1053600038B5056872B60021281C05F0EBFD62B661
:105370007D24013CE4B2002C00D158E00220013829
:10538000C046C046C046C046C046C046C046C046ED
:10539000C046C046C046C046F1D1281C05F00EFEEE
:1053A0000028E6D072B60021281C05F0E9FD281C73
:1053B000012105F0C7FD62B6F02040000138C0466B
:1053C000C046C046C046C046C046C046C046C046AD
:1053D000C046C046C046F1D172B60021281C05F077
:1053E000B1FD46200138C046C046C046C046C04652
:1053F000C046C046C046C046C046C046C046F1D1C1
:10540000281C05F0DBFD44424441E4B262B6CD20E5
:1054100040000138C046C046C046C046C046C046EF
:10542000C046C046C046C046C046C046F1D1201C5A
:1054300038BD38B50125046829401ED072B6002158
:10544000201C05F09DFD201C291C05F07BFD0A2079
:105450000138C046C046C046C046C046C046C046E9
:10546000C046C046C046C046C046F1D1201C291CDB
:1054700005F086FD62B637201CE072B6201C05F0F0
:105480007FFD201C291C05F05DFD41200138C04630
:10549000C046C046C046C046C046C046C046C046DC
:1054A000C046C046C046F1D1201C291C05F068FD4D
:1054B00062B605200138C046C046C046C046C04658
:1054C000C046C046C046C046C046C046C046F1D1F0
:1054D00038BD10B5046872B60121201C05F032FDFC
:1054E000201C002105F04CFD03200138C046C046B9
:1054F000C046C046C046C046C046C046C046C0467C
:10550000C046C046F1D10021201C05F01BFD0A2039
:105510000138C046C046C046C046C046C046C04628
:10552000C046C046C046C046C046F1D1201C05F06A
:1055300045FD031C62B635200138C046C046C04652
:10554000C046C046C046C046C046C046C046C0462B
:10555000C046F1D1D8B210BDF7B5061C151C0827FE
:10556000012401910199301C21404B1E9941640096
:10557000C9B2013FFFF75DFFE4B2002FF2D1002D69
:1055800009D172B63068291C05F0DCFC3068291C92
:1055900005F0F6FC62B6F7BDF8B5071C0826002535
:1055A0000124381CFFF795FF002800D02543640034
:1055B000013EE4B2002EF4D1281CF8BD70B50C1CDD
:1055C00000225521261C051CFFF7C6FF083621784E
:1055D000281C00220134FFF7BFFFB442F7D170BD91
:1055E00008B5CC210022FFF7B7FF08BD00230374E4
:1055F00083744374031C07300F330022013B5A703D
:105600008342FAD1704738B5041C0D1C081C0021D8
:1056100005F05AFC00232560201C6360FFF7E6FFBD
:10562000201C38BDF0B585B00391867C051C141C88
:10563000002E03D1FFF794FE002804D10020287427
:10564000A874687463E0281C002C02D0F021321C7E
:1056500001E0EC21221C0127FFF77EFF00233E1C06
:1056600001930293281CFFF734FF041C281CFFF74A
:1056700030FF012C02D1012816D132E0019BEB183A
:10568000844219D12C7CA64204D21C7A3C40621E72
:10569000944102E0341B62425441E4B2002C03D135
:1056A000082E08D86E7406E0019B0124EA18137ACC
:1056B0003B43137203E002961A7ABA431A727F00D0
:1056C000281C211C0136FFB2FFF7B3FEF6B2002FF3
:1056D00004D1019B01370133DBB20193019B072BFE
:1056E000C0D9402EAAD96B461B7A2B74029B002B83
:1056F00001D10133AB742B7A002B9FD00023EA1821
:10570000127A0399CA540133082BF8D1012005B04D
:10571000F0BD0000031C411800208B4205D01A7810
:1057200001335040014A105CF7E770475E370300D1
:10573000036870B5041C0E1C151C002B03D1182027
:1057400001F03CFF206000222368DA609A601D713E
:105750001E60B022002D00D0183A1A74246800F0A0
:105760000BFD606170BD0000F0B5041C85B000F059
:1057700003FD2368002B01D15B69FFDE186801215E
:1057800005F0A2FB23680021186805F09FFB236841
:105790001A79002A01D15E4801E0C8208000013852
:1057A000C046C046C046C046C046C046C046C046C9
:1057B000C046C046C046C046F1D10121186805F078
:1057C00085FB1E200138C046C046C046C046C046C4
:1057D000C046C046C046C046C046C046C046F1D1DD
:1057E00023680021186805F06FFB00F0CDFC061C53
:1057F0002368186805F084FB00280CD100F0C4FC75
:10580000444B801B9842F3D97FE000F0BDFC414B34
:10581000801B984279D82368186805F071FB00282E
:10582000F3D172B6051C002D01D102AB1D706A4682
:10583000EE1002AB9B5D5B00DBB20193127902AB11
:105840009A5500F0A1FC071C2368186805F058FB66
:10585000002804D100F098FCC01B5028F4D900F0B7
:1058600093FC071C2368186805F04AFB002804D045
:1058700000F08AFCC01B5028F4D900F085FCC71B3F
:10588000282F04D90123019A134302AA9355013505
:10589000282DC8D162B602AB1B7802AA019302ABD5
:1058A0005E789F78D878019B12799B19DB191B18B9
:1058B000DBB22568934223D12B79002B0FD10A212B
:1058C00022F0E6F8C0B2381823F0D0F90A21A86017
:1058D000301C22F0DDF8019BC0B218180DE03F0229
:1058E0000A21384322F064F923F0C0F9019BA86033
:1058F000180230430A2122F05BF923F0B7F9E8607F
:105900000123237100F038FC686105B0F0BDC0468A
:10591000204E0000400D0300036810B5002B05D099
:10592000041CFFF721FF2368986800E0002010BDE9
:10593000036810B5002B05D0041CFFF715FF236882
:10594000D86800E0002010BD7047704770B50F4C5C
:105950002078002819D101210D4B0E4DFF265A59F0
:105960008A435A51A122D2009850073008329850E9
:10597000FD3D0948FF3D4259B243BF3E32434251CB
:105980008022520002601960217070BDFD09002064
:10599000008000400405000000E100E00B4B89009E
:1059A000C958002330B52422FF200C1C5A43084D4F
:1059B00004405259A24203D1064AD8B2137002E001
:1059C0000133042BEFD140B230BDC0466038030034
:1059D00080010020FE090020094B890070B5CC58D9
:1059E00000232422FF20251C5A430649054056580F
:1059F000AE4201D1505002E00133042BF1D170BD11
:105A00006038030080010020F8B5114B8900CE58A2
:105A100000232427391C59430E4D4A59FF2A05D12A
:105A200016400D4A4E511370DBB20FE00133042BC8
:105A3000EFD1094A013B1478F6B201341C406743A8
:105A4000795D1470FFF7C8FF7E51E3B258B2F8BD1C
:105A50006038030080010020FE09002038B5FF29CE
:105A600018D00C1C051CFFF771FF281C211CFFF728
:105A700095FF431C0ED1211C281CFFF7C5FFA02257
:105A80000321054BA400E358D205DBB2C133FF3339
:105A90009B00995038BDC04660380300F0B585B012
:105AA000FF2972D002920091071CFFF777FFC4B262
:105AB000FF2C0AD1381C0099FFF7D0FF381C009941
:105AC000FFF76CFFC4B2FF2C5FD0029B304E002B5F
:105AD0000BD0242565437519EB692E48191C0393D7
