:1000000010C100000C94351F0C947E1F27C1000006
:1000100025C1000023C1000021C100001FC1000054
:100020001DC100001BC100000C940E1B0C94C819CC
:1000300015C1000013C1000011C100000FC1000074
:100040000DC100000C94751209C1000007C1000029
:1000500005C1000003C1000001C100000C94082A82
:10006000FDC00000FBC00000F9C00000F7C00000A8
:10007000F5C00000F3C00000F1C00000EFC00000B8
:10008000EDC000000C94ED28E9C00000E7C00000BE
:100090000C94E215E3C00000E1C00000DFC00000E6
:1000A000DDC00000DBC00000D9C00000080B00026A
:1000B0000202010009040000010202000005240000
:1000C0001001052401010104240206052406000193
:1000D0000705810310004009040100020A00000026
:1000E0000705020240000007058302400000005E91
:1000F000BCE2613FDD83C29C7E20A3FD1F419DC306
:10010000217FFCA2401E5F01E3BD3E6082DC237DB7
:100110009FC1421CFEA0E1BF5D0380DE3C62BEE0E9
:10012000025CDF81633D7C22C09E1D43A1FF461817
:10013000FAA427799BC584DA3866E5BB5907DB85C5
:100140006739BAE406581947A5FB7826C49A653B77
:10015000D987045AB8E6A7F91B45C6987A24F8A6A9
:10016000441A99C7257B3A6486D85B05E7B98CD2D7
:10017000306EEDB3510F4E10F2AC2F7193CD114F85
:10018000ADF3702ECC92D38D6F31B2EC0E50AFF137
:10019000134DCE90722C6D33D18F0C52B0EE326C69
:1001A0008ED0530DEFB1F0AE4C1291CF2D73CA9497
:1001B0007628ABF517490856B4EA6937D58B570945
:1001C000EBB536688AD495CB2977F4AA4816E9B7F7
:1001D000550B88D6346A2B7597C94A14F6A8742A29
:1001E000C896154BA9F7B6E80A54D7896B351201A2
:1001F0000002EF02014041233680000101020301A9
:1002000041726475696E6F204C4C43004172647595
:10021000696E6F204C656F6E6172646F0004030934
:10022000040011241FBECFEFDAE0DEBFCDBF12E025
:10023000A0E0B1E0ECE4F0E602C005900D92A43538
:10024000B107D9F726E0A4E5B2E001C01D92A03EB7
:10025000B207E1F70E94522A0C942430D1CE60E01C
:100260008091D6040E945B2761E0809117050E946F
:100270005B2761E08091D6040E945B2760E080915B
:10028000D6040E945B2760E0809117050E945B27DF
:1002900088E490E00C94421DCF93DF9300D000D00F
:1002A00000D0CDB7DEB78093D6046093170596E0F3
:1002B000E1E2F1E0DE01119601900D929A95E1F7ED
:1002C000E1E0F0E0EC0FFD1FE40FF11D9081909351
:1002D0003B0561E070E00E940B2761E070E08091D7
:1002E00017050E940B2726960FB6F894DEBF0FBEA7
:1002F000CDBFDF91CF91B3CFCF92DF92EF92FF923C
:100300000F931F93CF93DF93182F092F80915402DF
:10031000811113C00E94FC29609324057093250568
:10032000809326059093270581E080935402C12F86
:10033000D02F8E01025F1F4F21C00E94FC296093C5
:100340002B0570932C0580932D0590932E05C0905E
:100350002405D0902505E0902605F0902705DC01C6
:10036000CB018C199D09AE09BF09893B9B40A105B2
:10037000B105E8F274DF10925402D9CF8AE090E020
:100380000E94421D80913B050E94B8278993999352
:1003900082E390E00E94421D61E08091D6040E94B9
:1003A0005B2782E190E00E94421D60E08091D604CC
:1003B0000E945B27C017D10709F7DF91CF911F91EA
:1003C0000F91FF90EF90DF90CF900895FC01908106
:1003D0009E5F908342E450E06CEA70E080E80C9409
:1003E0007B19EEEFFFE72591349181E02B3F3C4DE7
:1003F00009F080E00895CF93DF93CDB7DEB728975B
:100400000FB6F894DEBF0FBECDBFE22F29833A832B
:100410004B835C836D837E838F839887E13A61F49D
:10042000313209F088C047E050E06CE071E080E0D4
:100430000E947B1981E080C0E13209F07CC08B8191
:10044000333271F48B819C81A0E0B0E0809308018D
:1004500090930901A0930A01B0930B0181E06CC055
:10046000303241F467E070E08CE091E00E94A21924
:1004700081E062C0323209F05CC080931301B1DFC9
:10048000811103C0E0E0F8E002C0EEEFFAE08091F5
:100490000C0190910D01A0910E01B0910F01803BD4
:1004A0009440A105B10531F58091130180FD22C072
:1004B000EE3F8AE0F80751F080819181873727E786
:1004C000920721F09093FF0A8093FE0A87E797E74F
:1004D0009183808380916000809355029BE088E146
:1004E0000FB6F894A895809360000FBE90936000BB
:1004F00081E022C08081918187379747D1F4A89508
:1005000080916000886180936000809155028093A3
:100510006000EE3F8AE0F80741F08091FE0A90917A
:10052000FF0A9183808381E007C01092FF0A109236
:10053000FE0A81E001C080E028960FB6F894DEBF85
:100540000FBECDBFDF91CF910895209113012223DB
:1005500041F0AB01BC0183E00E94DD1818161906BA
:1005600044F081E090E0909307018093060180E0E1
:1005700090E00895CF93DF931F92CDB7DEB78983C4
:1005800061E070E0CE010196E0DF0F90DF91CF9146
:1005900008958091580290915902A0915A02B09109
:1005A0005B02892B8A2B8B2B09F464C080EF0E949D
:1005B000B91B8DE00E94B91B80E00E94B91B80919D
:1005C00042050E94B91B809158028F770E94B91B87
:1005D0008091580290915902A0915A02B0915B0209
:1005E00027E0B695A795979587952A95D1F78F77A8
:1005F0000E94B91B8091580290915902A0915A0211
:10060000B0915B023EE0B695A795979587953A9590
:10061000D1F78F770E94B91B8091580290915902AF
:10062000A0915A02B0915B0245E1B695A7959795C6
:1006300087954A95D1F78F770E94B91B8091580210
:1006400090915902A0915A02B0915B025CE1B6957B
:10065000A795979587955A95D1F70E94B91B87EF73
:100660000E94B91B109258021092590210925A021D
:1006700010925B0208950E94E41C60933E05709303
:100680003F058093400590934105809142050E946B
:1006900089278823D1F30E94E41C40913E055091A4
:1006A0003F0520E73EEF241B350B620F731F6D32B1
:1006B000714018F50E94E41C60933E0570933F055D
:1006C0008093400590934105809142050E948927BF
:1006D0008111FACF0E94E41C20913E0530913F0524
:1006E000621B730BCB018A5991408D32914038F0D7
:1006F0006E5076406D32714020F08FEF089580E0AB
:10070000089581E008950F931F93CF93DF93109284
:1007100058021092590210925A0210925B02C8E0DD
:10072000D0E0A9DF81114CC02197D9F7C6E0D0E015
:10073000A2DF813009F044C02197D1F79CDF8111FD
:100740003FC099DF8130E1F5C0E0D0E001E010E08A
:1007500092DF8130F9F4C8010C2E02C0880F991F76
:100760000A94E2F7092E000CAA0BBB0B4091580229
:100770005091590260915A0270915B02842B952B23
:10078000A62BB72B8093580290935902A0935A023C
:10079000B0935B022196C031D105D1F68091580209
:1007A00090915902A0915A02B0915B02AA27BB27EF
:1007B0008093580290935902A0935A02B0935B021F
:1007C000DF91CF911F910F9108950F931F93809305
:1007D00042050E94E41C60933E0570933F058093A0
:1007E000400590934105809142050E948927882306
:1007F00011F10E94E41C00913E0510913F052091EB
:10080000400530914105DC01CB01801B910BA20B0F
:10081000B30B813A9648A140B10528F38FEF90E0E1
:10082000A0E0B0E08093580290935902A0935A023E
:10083000B0935B0259C00E94E41C60933E05709324
:100840003F058093400590934105809142050E94A9
:1008500089278823D1F30E94E41C40913E055091E2
:100860003F052EE63DED241B350B620F731F6F35E0
:100870007140D0F50E94E41C60933E0570933F05E3
:100880008093400590934105809142050E948927FD
:100890008111FACF0E94E41C20913E0530913F0562
:1008A000621B730BCB018E5F90418F35914018F422
:1008B0001F910F9128CF6C5A78406D337105A0F4C9
:1008C0000E94E41C60933E0570933F0580934005B1
:1008D00090934105809142050E9489278823D1F396
:1008E0001F910F910C94E41C1F910F9108958F920A
:1008F0009F92AF92BF92CF92DF92EF92FF92CF93EF
:100900006C01C62F0E94E41C4B015C010D2C000CF5
:10091000EE08FF0861E08C2F0E945B2780915C024B
:1009200090915D020E94421D60E08C2F0E945B2727
:1009300080915C0290915D020E94421D0E94E41C25
:10094000DC01CB0188199909AA09BB098C159D0501
:10095000AE05BF05F8F2CF91FF90EF90DF90CF90FA
:10096000BF90AF909F908F9008958F929F92AF927B
:10097000BF92CF92DF92EF92FF926C01F62E0E940F
:10098000E41C4B015C0160E08F2D0E945B270D2C65
:10099000000CEE08FF080E94E41CDC01CB01881962
:1009A0009909AA09BB098C159D05AE05BF0598F3E9
:1009B000FF90EF90DF90CF90BF90AF909F908F907F
:1009C0000895E62FF0E0E25CFE4FE0819E2F9770E5
:1009D00041E050E09A0101C0220F9A95EAF7F0E059
:1009E00093E0F695E7959A95E1F7BF01660F771FBB
:1009F000E60FF71FB096922F909532819323928342
:100A00009181292B2183682F70E0CA010E94DD2D7E
:100A1000072E000C880B990B0E94142C20E030E06C
:100A20004AE754E40E94022D20E030E040EC50E41C
:100A30000E94112B0E94E12B60935C0270935D0277
:100A400080935E0290935F020895AF92BF92CF921F
:100A5000DF92EF92FF920F931F93CF936B017C0174
:100A6000C42F5901642F86E2ACDF6C2F88E293E239
:100A70003EDF6C2F84E991E178DF00E010E06C2F1D
:100A800080E392E00A151B05A4F4F7FE06C02FDFF1
:100A90006C2F80E496E069DF05C029DF6C2F80E3CE
:100AA00092E063DFCC0CDD1CEE1CFF1C0F5F1F4FC0
:100AB000E6CF1DDF6C2F80E090E0CF911F910F916A
:100AC000FF90EF90DF90CF90BF90AF904ECFE82F88
:100AD000F0E0EE5AFE4FE0812E2F277081E090E08B
:100AE00001C0880F2A95EAF7F0E093E0F695E795C4
:100AF0009A95E1F79F01220F331FE20FF31FB09683
:100B0000982F90952281922392839181892B8183C2
:100B10000895AF92BF92CF92DF92EF92FF920F9320
:100B20001F93CF93DF936C01C62FD0E0CC0FDD1F56
:100B30008E0106581D4FF80180819181009729F0A0
:100B40000E94942FF801118210828E01005A1D4FCD
:100B5000F80180819181009729F00E94942FF8017B
:100B6000118210829091180580913405981719F020
:100B700084E090E002C083E090E08C9D50018D9D68
:100B8000B00C9C9DB00C1124B0921A05A0921905CE
:100B9000C5010E94FC2E8C01FE01E658FD4F918399
:100BA0008083892BE9F0C5010E94FC2E7C01FE01A7
:100BB000E05AFD4F91838083892B91F0A50160E07D
:100BC00070E0C8010E941D30A50160E070E0C7011F
:100BD0000E941D30D0923D05C0923C0581E019C0B5
:100BE000C8010E94942FFE01E658FD4F1182108229
:100BF000C05ADD4F888199810E94942F19821882F2
:100C000010921A051092190510923D0510923C059C
:100C100080E0DF91CF911F910F91FF90EF90DF90D7
:100C2000CF90BF90AF90089531E02091180590913A
:100C30003405291330E0482F429546954695437078
:100C400040931805982F9295937090933405282F10
:100C50002695269523702093210583708093300577
:100C600081E080933305E62FF0E0EE0FFF1FE6589A
:100C7000FD4F0190F081E02DEF2B49F0491380E00A
:100C8000381729F080913C0590913D0542CF089599
:100C90000F931F93CF93C82F809162038F3F99F0DA
:100CA000809136058C130FC08091370590913805DF
:100CB0008617970741F480913905841304C0809109
:100CC0003A05821729F1822F8B01C0933605709364
:100CD0003805609337054093390520933A054093D2
:100CE0002F056C2FA1DF6C2FC80113DFC82F8823BD
:100CF00069F08091620387FD06C0E9DE60E08091C3
:100D000062030E945B2781E080932A058C2F00C03C
:100D1000CF911F910F9108956111D9CEE82FF0E086
:100D2000EE5AFE4F8081E82FF0E093E0F695E795CC
:100D30009A95E1F79F01220F331FE20FF31FB09640
:100D4000282F277081E090E001C0880F2A95EAF7EC
:100D5000809591819823918392818923828308953C
:100D6000CF93C82F80912A05882331F080916203A8
:100D700087FD02C060E0D0DFC093620380912A0546
:100D8000882331F08C2FA3DE60E08C2F0E945B273C
:100D90008C2F90E0FC01E55DFD4FE081F0E0EE0F6F
:100DA000FF1FE35EFD4F2081318130933205209398
:100DB0003105FC01E550FE4F80818093D104CF9135
:100DC00008954F925F926F927F928F929F92AF920F
:100DD000BF92CF92DF92EF92FF920F931F93CF9328
:100DE000DF93CDB7DEB729970FB6F894DEBF0FBEFD
:100DF000CDBF722EC32ED42E598328E631E040E0B9
:100E000050E00E94F02D4B015C01ED82FE820F83C9
:100E100018872D813E814F81588524363105410543
:100E2000510540F083E690E0A0E0B0E08D839E8322
:100E3000AF83B8878D819E81AF81B885C297A109A4
:100E4000B048880F991F97FF03C09195819591092C
:100E500024E630E0281B390B032E000C440B550B05
:100E6000672D7C2D8D2D9981643671058105910545
:100E700020F063E670E080E090E00E94AE2D982FB5
:100E8000872F762F662720E137E240E050E00E946E
:100E9000F02D29013A01ACE3CA2ED12CE12CF12C22
:100EA000C501B401A70196010E94F02D29833A8360
:100EB0004B835C83998199872CE3A981BA812A9F0E
:100EC000C0012B9F900D1124092E000CAA0BBB0B07
:100ED000A5019401281B390B4A0B5B0B942F832F20
:100EE000722F6627A70196010E94F02D89818170DB
:100EF000C82ED12CDC2CCC24DA94C20ED31ED7FE03
:100F000003C0D194C194D1080D2C000CEE08FF0849
:100F100080E091E0A0E0B0E09C01AD012C193D091A
:100F20004E095F09C301B2010E94AE2DC72ED82E13
:100F3000E92EFF249985992379F0913081F0923040
:100F4000B9F09330E1F0943011F1C982DA82EB828A
:100F5000FC825301420121C05301420104C04601F9
:100F600057017301620119821A821B821C8218C008
:100F7000C982DA82EB82FC827301620104C0498279
:100F80005A826B827C82812C912C540109C0498247
:100F90005A826B827C8246015701C12CD12C76018A
:100FA0008D819E81AF81B885880F991FAA1FBB1FB5
:100FB0006627782F892F9A2F24E630E040E050E012
:100FC0000E94F02DDA01C90184199509A609B70913
:100FD0008C019D013695279517950795D501C4017C
:100FE000800F911FA21FB31F9927AA27BB27DC01DF
:100FF00099278827C00ED11EE21EF31EFE2CED2C71
:10100000DC2CCC24EE24FF248C299D29AE29BF2979
:1010100049815A816B817C81400F511F621F731F70
:10102000BC01CD01642B29960FB6F894DEBF0FBE2C
:10103000CDBFDF91CF911F910F91FF90EF90DF9087
:10104000CF90BF90AF909F908F907F906F905F9068
:101050004F900895CF9320913C0530913D05621744
:10106000730708F058C020911805C091340590E02E
:1010700050912105A22FB0E040913005880F991FB3
:10108000FC012C1322C0E05AFD4F9B01220F331F9D
:10109000620F731F20813181260F371FF901E50F81
:1010A000F11D5081A20FB31F6C91862F90E0A0E03C
:1010B000B0E0DC0199278827952BF901E40FF11D99
:1010C0002081BC01CD01622B29C0E658FD4F660F7F
:1010D000771F660F771F20813181260F371FA20FE0
:1010E000B31FEC91D901AC0FB11D6C91862F90E02C
:1010F000A0E0B0E0DC0199278827BE2BF901E40FBE
:10110000F11D4081842BF901E50FF11D2081BC0107
:10111000CD01722B03C060E070E0CB01CF91089548
:101120001F93CF93DF93CDB7DEB729970FB6F8940F
:10113000DEBF0FBECDBF182F13DE80911905909131
:101140001A059A838983E12FF0E0EE0FFF1FE6581E
:10115000FD4F0190F081E02DDF011196808189879C
:1011600090913305E0913105F09132058091D104E1
:10117000992309F436C09081982B988790818095A7
:1011800089238F838F818E8388E08D83F89458859F
:101190006F81E0913105F091320549853D812E81C5
:1011A00089819A81508347FD252F3A952083262FE8
:1011B00039F0441F00C000006083000000C0F2CF7F
:1011C00038E04D9160830000019761F7F09332059C
:1011D000E093310549873D832E839A8389837894F0
:1011E0003AC09081982B98879081809589238F832E
:1011F0008F818C8388E08B8358856F8149853B8103
:101200002C8189819A81508347FD252F00C000C021
:10121000208300C000C000C000C000C06083000088
:10122000262F3A9541F0441F000000C000C000C0C6
:1012300000C000C0E8CF38E04D9100C0608300C01E
:10124000019709F7F0933205E093310549873B8315
:101250002C839A83898329960FB6F894DEBF0FBE3C
:10126000CDBFDF91CF911F910895CF92DF92EF9282
:10127000FF920F931F93CF93DF9360932F052091DD
:101280003C0530913D05232B09F461C0A0E0B0E09E
:10129000C0E0D0E0E82FF0E0EE0FFF1F8F0106580E
:1012A0001D4F9F01205A3D4F690120913C0530910F
:1012B0003D05C217D30708F041C0F80140815181B4
:1012C0007A01EA0EFB1EF601208131812A0F3B1FB5
:1012D0004091340550E0B901640F751FFB01908106
:1012E00060912F054E0D5F1D969FB0011124FA01EC
:1012F00070836091210570E0A901460F571FFA0124
:10130000908140912F056E0D7F1D949FA0011124A7
:10131000FB01508390913005492F50E0240F351F79
:10132000F901908120912F054E0D5F1D929F900134
:101330001124FA01308321961396B7CFDF91CF9114
:101340001F910F91FF90EF90DF90CF90E9CEDF914A
:10135000CF911F910F91FF90EF90DF90CF90089564
:101360004F925F926F927F928F929F92AF92BF92B5
:10137000CF92DF92EF92FF920F931F93CF93DF9361
:1013800069017A01902F20913C0530913D0562174B
:10139000730708F093C08701222733274D2C5E2C5A
:1013A0006F2C7724A0911805E0913405482F50E068
:1013B000AE1317C0FB01EE0FFF1F6E0F7F1F440F10
:1013C000551FFA01E658FD4F0190F081E02DE60F20
:1013D000F71FDA01A05ABD4F4D915C91640F751F44
:1013E0003FC0660F771F660F771F440F551FFA0126
:1013F000E658FD4F0190F081E02DE60FF71FEA015E
:10140000C05ADD4F48815981640F751F8F2C992474
:10141000AA24BB24EF01CA0FD11D40912F054423FC
:1014200051F050E0489DD001499DB00D589DB00D40
:1014300011244B2F01C0482D488340911805EB0122
:10144000C40FD11D40912F05442349F050E0489D21
:10145000D001499DB00D589DB00D11248B2E88826E
:1014600040913405DB01A40FB11D0C93409121057F
:10147000DB01A40FB11D4C9240913005DB01A40F9C
:10148000B11DCC9240912F05049F80011124449DF1
:10149000200111244C9D6001112420913405DF01AD
:1014A000A20FB11D1C9320912105DF01A20FB11DD8
:1014B0005C9220913005E20FF11DD082992389F0D2
:1014C000DF91CF911F910F91FF90EF90DF90CF9020
:1014D000BF90AF909F908F907F906F905F904F9054
:1014E0001FCEDF91CF911F910F91FF90EF90DF9072
:1014F000CF90BF90AF909F908F907F906F905F90B4
:101500004F9008958F929F92AF92BF92DF92EF9289
:10151000FF920F931F93CF93DF93D82E4801590169
:1015200080913C0590913D0577FD02C057FF05C0B5
:10153000AC014150510960E070E0461757072CF4A8
:10154000362F272FBA01432F522F009769F177FFCB
:1015500002C060E070E07B018617970708F47C0109
:1015600057FF02C040E050E08417950708F4AC0133
:10157000EA012196EC16FD0650F400E0A501940165
:10158000B7018D2DEDDE8FEFE81AF80AF3CF8D2D20
:10159000DF91CF911F910F91FF90EF90DF90BF905F
:1015A000AF909F908F90BCCDDF91CF911F910F9105
:1015B000FF90EF90DF90BF90AF909F908F90089535
:1015C0001F93CF93DF9320913C0530913D05232B52
:1015D00019F1182FC82FD0E0CC0FDD1FFE01E658FF
:1015E000FD4F4091190550911A0560E070E080812F
:1015F00091810E941D30C05ADD4F409119055091D4
:101600001A0560E070E0888199810E941D30812F69
:10161000DF91CF911F9184CDDF91CF911F910895DC
:101620002F923F924F925F926F927F928F929F92F2
:10163000AF92BF92CF92DF92EF92FF920F931F93E0
:10164000CF93DF9300D000D01F92CDB7DEB7898350
:1016500048015901160127014617570728F4962F0C
:10166000872FBA01492F582F80913C0590913D0555
:10167000009709F4C9C07D836C838617970710F41F
:101680009D838C838417950708F4AC014F5F5F4FEF
:101690009A018C819D81281B390B3B832A83C101D0
:1016A00088599E4F8819990968E671E00E94C92DF2
:1016B0009C0144E6429FC001439F900D11246A8122
:1016C0007B810E94C92D6B018A819B810197A9F4BE
:1016D000860E971EB40180E090E012E3E12EF12C1B
:1016E00000E010E024E630E040E050E06ADB9B01DF
:1016F000AC0100E06C817D816CC012E3E12EF12C25
:1017000000E010E024E630E040E050E0C501B40124
:1017100058DB9B01AC0100E06C817D81898120DE7A
:101720006C807D809FEF691A790AC69C9001C79CE6
:10173000300DD69C300D11242C193D0944E6489DEE
:10174000C001499D900D11244901880E991EA12CBC
:10175000B12C8C819D8101972A813B81820F931F3F
:101760009B838A83AC0CBD1C8A819B816816790699
:10177000F8F4C501880D991D64E670E00E94C92D3A
:1017800068597E4F80E090E012E3E12EF12C00E0FA
:1017900010E024E630E040E050E013DB9B01AC01B8
:1017A00000E0B3018981DCDD3FEF631A730ADACF11
:1017B00012E3E12EF12C00E010E024E630E040E0FE
:1017C00050E0C201B101FDDA9B01AC0100E06A8189
:1017D0007B818981C5DD89810F900F900F900F90DB
:1017E0000F90DF91CF911F910F91FF90EF90DF90BD
:1017F000CF90BF90AF909F908F907F906F905F90B1
:101800004F903F902F908CCC0F900F900F900F9097
:101810000F90DF91CF911F910F91FF90EF90DF908C
:10182000CF90BF90AF909F908F907F906F905F9080
:101830004F903F902F900895AF92BF92CF92DF923A
:10184000EF92FF920F931F93CF93DF93662309F4D8
:101850006BC0C0913C05D0913D05209709F464C050
:10186000C62E062E000CDD08CC15DD0558F4DF91E0
:10187000CF911F910F91FF90EF90DF90CF90BF908D
:10188000AF909ECE182F161634F0A12CB12C7E01ED
:10189000EC0CFD1C29C02197CC15DD0564F0BE01C0
:1018A0006C197D09812FD6DB9B01AC0100E0BE01E4
:1018B000812F56DDF0CFC0E0D0E000E020E030E046
:1018C000A901BE01812F4CDD2196CC16DD06A9F7BA
:1018D000812FDF91CF911F910F91FF90EF90DF90BB
:1018E000CF90BF90AF901CCCEA14FB0478F0B50108
:1018F0006C197D09812FAEDB9B01AC0100E0B501C5
:10190000812F2EDD8FEFA81AB80AEECFEC16FD0658
:10191000F8F600E020E030E0A901B701812F20DDDA
:101920008FEFE81AF80AF2CFDF91CF911F910F9154
:10193000FF90EF90DF90CF90BF90AF9008952F92DF
:101940003F924F925F926F927F928F929F92AF924F
:10195000BF92CF92DF92EF92FF920F931F93CF939C
:10196000DF9300D0CDB7DEB7382E2DB73EB73A8320
:101970002983662309F4D9C0E0903C05F0903D0529
:10198000E114F10409F4D1C0862F660F990BB70159
:101990000E94C92D282EC82E082E000CDD084DB639
:1019A0005EB618160CF04EC0C601880F991F880F3E
:1019B000991FEDB7FEB7E81BF90B0FB6F894FEBF01
:1019C0000FBEEDBF2DB73EB72F5F3F4F3901590115
:1019D00000E010E047018C189D08B401600F711FF2
:1019E000832D38DBF50161937193819391935F01AE
:1019F0000F5F1F4F0C151D0584F3F1E0EF1AF1087E
:101A0000EC14FD0464F0B7016C197D09832D22DB11
:101A10009B01AC0100E0B701832DA2DCEECFE12CED
:101A2000F12CF30121913191419151913F0100E05D
:101A3000B701832D95DCFFEFEF1AFF0AEC14FD04CC
:101A400084F36CC0D194C194D108C601880F991F4A
:101A5000880F991F2DB73EB7281B390B0FB6F89486
:101A60003EBF0FBE2DBF8DB79EB701963C018C01C6
:101A7000A12CB12CAC14BD0469F0B501832DEADAB8
:101A8000F80161937193819391938F01FFEFAF1AE6
:101A9000BF0AF0CF812C912CA22C220CBB0867012D
:101AA000CA0CDB1CC814D90478F0B4016A197B098C
:101AB000832DD0DA9B01AC0100E0B401832D50DC12
:101AC0002FEF821A920AEECF8FEF9FE3E89E40013C
:101AD000E99E900CF89E900C11248A189B088C0C9F
:101AE0009D1C880C991C880C991CA12CB12CCE141F
:101AF000DF04A0F4F501E80DF91DE60DF71D2081C6
:101B000031814281538100E0B601832D29DC3FEF12
:101B1000C31AD30A84E0A80EB11CE9CF0FB6F8941B
:101B20005EBE0FBE4DBE832DFBDAE981FA810FB692
:101B3000F894FEBF0FBEEDBF0F900F90DF91CF91D5
:101B40001F910F91FF90EF90DF90CF90BF90AF90DB
:101B50009F908F907F906F905F904F903F902F90CD
:101B600008952F923F924F925F927F928F929F9211
:101B7000AF92BF92CF92DF92EF92FF920F931F939B
:101B8000CF93DF9300D000D0CDB7DEB7782E7C8323
:101B90006B83B8018B819C814817590730F49B8176
:101BA0008C815C834B83492F582F80913C05909109
:101BB0003D05009709F49DC0EB81FC818E179F07BE
:101BC00010F49C838B838417950708F4AC011616D8
:101BD000170664F0872DF4DC00E020E03FEF4FEFC4
:101BE00050E06B817C81872DBBDB67C0CA01EB8134
:101BF000FC818E1B9F0B9A8389836C01FFEFCF1AA8
:101C0000DF0AA90137FF03C05195419551094C9D49
:101C1000C0014D9D900D5C9D900D11240E94C92D19
:101C20004B01672B49F0A12CB12CE12CF12C212C7C
:101C3000312C21012A943EC0EE24E394F12CEC14C3
:101C4000FD04D8F56B817C816E0D7F1D00E020E0E6
:101C500030E0A901872D84DB8FEFE81AF80AEFCF77
:101C6000E814F90408F040C0C50169817A810E9436
:101C7000C92D9B013327C901A0E0B0E09C011127C9
:101C80000027D201C101861B970BA109B109A90147
:101C90009801282B00E06B817C81872D61DB9FEF11
:101CA000E91AF90AEFEFAE0EB11C8B819C81019607
:101CB0009C838B83EC14FD0498F2872D0F900F907A
:101CC0000F900F90DF91CF911F910F91FF90EF90A8
:101CD000DF90CF90BF90AF909F908F907F905F905C
:101CE0004F903F902F901CCA00E020E030E0A90107
:101CF000D2CF0F900F900F900F90DF91CF911F9147
:101D00000F91FF90EF90DF90CF90BF90AF909F909A
:101D10008F907F905F904F903F902F90089504C0D8
:101D2000615071098109910961157105810591055C
:101D3000B9F70895AF92BF92CF92DF92EF92FF92E0
:101D40000F931F93CF93DF93109243051092440596
:101D5000109245051092460510924705FC01E25B82
:101D6000FA4FC081FC01EC5AFA4FD08161E070E07B
:101D70008C2F0E940B2760E08C2F0E945B27DD23B5
:101D800071F1A12C24E2B22E34EFC32ED12CE12C20
:101D9000F12C00E010E02D2F30E040E050E060E05A
:101DA00070E080E090E00E944D2EE6E0AE2EB12C77
:101DB000C12C0E94A02E29513C4F4F4F5F4F6F4FB7
:101DC0007F4F8F4F9F4F0E944F2C20E030E04AE71B
:101DD00054E40E94792B0E94E62BA1DF05C063E04A
:101DE00070E080E090E09BDF60E070E08C2F0E946C
:101DF0000B2788E290E00E94421D00E911E08C2F41
:101E00000E948927811106C001501109C1F78EEF88
:101E10009FEF49C000E911E08C2F0E948927882399
:101E200021F001501109C1F7F2CF18E200E0D0E82B
:101E300090E9E92EFF24F3948C2F0E9489278111C9
:101E400005C081E0E81AF108B9F7E1CF0E94E41C6F
:101E50006B017C0180E9A82EBB24B3948C2F0E94D7
:101E60008927882329F081E0A81AB108B9F7CFCFD4
:101E70000E94E41CDC01CB018C199D09AE09BF094D
:101E80008997A105B10538F0E02FF0E0ED5BFA4F3E
:101E900080818D2B8083D69511F40F5FD0E811508F
:101EA00039F680E090E0DF91CF911F910F91FF9084
:101EB000EF90DF90CF90BF90AF900895109267059C
:101EC0001092660510926405E4E6F5E0129285E052
:101ED000EC35F807D9F70895CF93C82F60E00E943A
:101EE0008C068C2F90E0FC01E550FE4F2081209362
:101EF0006505FC01E55DFD4FE081F0E0EE0FFF1FA1
:101F0000E15FFD4F8081918190935B0580935A053D
:101F1000D5DFCF910895FF920F931F93CF93DF9357
:101F2000F0906505C0915A05D0915B05F8948981C0
:101F30000F2D00958023898378941DE7115029F196
:101F400082E090E00E94421D88818F21B9F3F894CD
:101F50008A8180238A8389818F298983789480EE7E
:101F600091E00E94421DF89489810823098386E448
:101F700090E00E94421D8881F82211E009F010E0F3
:101F800078948AE991E00E94421D812FDF91CF91E0
:101F90001F910F91FF9008950F931F93CF93DF939D
:101FA00000916505C0915A05D0915B05F89489812F
:101FB000802B89838A81102F109581238A8383E067
:101FC00090E00E94421D8981182319838AE090E0E5
:101FD0000E94421DC881789485E390E00E94421DD2
:101FE000C02381E009F480E0DF91CF911F910F9130
:101FF00008950F931F93CF93DF9308E010E0C0E0A4
:10200000D1E0CADF8111CD2BDD0F01501109C9F7D5
:102010008C2FDF91CF911F910F9108951F93CF9334
:10202000DF9310916505C0915A05D0915B05912F02
:10203000909580FF16C0F8948A8189238A838981CC
:10204000812B89838AE090E00E94421D8A81182BAF
:102050001A83789487E390E0DF91CF911F910C94DD
:10206000421DF8948A8189238A838981812B8983FF
:1020700081E490E00E94421D8A81182B1A83789493
:1020800085E090E0DF91CF911F910C94421DFF926B
:102090000F931F93CF93DF93F82E062FC8E0D0E065
:1020A00011E081E09F2D912309F480E0B7DF110F4B
:1020B0002197B9F7011113C0F894E0915A05F091F6
:1020C0005B05918180916505809598239183E091CE
:1020D0005A05F0915B059281892382837894DF9180
:1020E000CF911F910F91FF9008950F931F93CF935E
:1020F000DF938C0160E085E5CADFE801085F1F4FD0
:1021000060E08991C4DFC017D107D1F7DF91CF918B
:102110001F910F910895DF92EF92FF920F931F93FB
:10212000CF93DF9320916605211104C07C01F3DE7B
:10213000811108C01092670510926605109264051F
:1021400080E05BC060E080EFA2DFD1E000E0D12C56
:10215000C1E022DF182F20DF113019F48130C1F4E3
:1021600032C0202F30E018131DC080916705C817BA
:1021700038F4F901E45AFA4F80818D2349F402C002
:10218000C81731F010E0C93060F4C093640509C08D
:10219000E02FF0E0E45AFA4F80818D2B808311E02C
:1021A00009C0DC2EF901E45AFA4F80812D2F2095C9
:1021B00028232083812F32DFCF5FDD0F11F40F5FE3
:1021C000D1E0083030F2C13408F4B4CFD0926705C2
:1021D000D11003C081E08093660580915C0588235F
:1021E00009F4A8CFACE5B5E0F70184E695E02D91C0
:1021F00021938A179B07D9F781E0DF91CF911F9137
:102200000F91FF90EF90DF900895DC0180E0615026
:1022100040F09D91E82FE927F0E0E251FF4F8491D3
:10222000F6CF0895AF92BF92CF92DF92EF92FF92D6
:102230000F931F93CF93DF93CDB7DEB764970FB69D
:10224000F894DEBF0FBECDBF5C01CE010D9663DFFB
:10225000811102C033DE32C067E0CE010D96D5DFBA
:102260009C8989132BC08D85803111F0883231F51E
:1022700052DECE010D9639DF61E084E408DF4BDEEB
:10228000CE010D9632DF60E08EEB01DF8E010F5F35
:102290001F4F6E018AE0C80ED11C7801AADED7015B
:1022A0008D937D01AC15BD05C9F708DEF501D80198
:1022B0008D918D018193CA16DB06C9F764960FB61E
:1022C000F894DEBF0FBECDBFDF91CF911F910F916C
:1022D000FF90EF90DF90CF90BF90AF9008958F92D6
:1022E0009F92AF92BF92DF92EF92FF920F931F9354
:1022F000CF93DF9300D01F92CDB7DEB780916B05EF
:102300000E948927882339F061E070E080E090E046
:102310000E94091DF3CF8E010F5F1F4F53E0D52E92
:10232000812C912C5401839447E0E42EF12C61E040
:10233000809168050E945B2780916B050E94892728
:10234000882379F0F8012281D501C4010E2C04C044
:10235000880F991FAA1FBB1F0A94D2F7822B828372
:102360000FC0D501C4010E2C04C0880F991FAA1FED
:10237000BB1F0A94D2F78095F8019281892382834A
:1023800060E0809168050E945B27F1E0EF1AF10898
:1023900070F6DA9401501109D110C6CF61E0809136
:1023A00068050E945B2760E0809168050E945B27BA
:1023B0002B816A81862F90E0A0E0B0E0BA2FA92F90
:1023C000982F8827A22B2981822BBC01CD01805810
:1023D0000F900F900F90DF91CF911F910F91FF9071
:1023E000EF90DF90BF90AF909F908F900895CF9225
:1023F000DF92EF92FF92CF93C9E1C12CD12C7601ED
:102400006EDFC60ED71EE81EF91EC150C9F7C70100
:10241000B60129E130E040E050E00E94122ECA01EE
:10242000B901CF91FF90EF90DF90CF900895CF93B7
:10243000DF93962FEA0180936B056093680561E056
:1024400070E0892F0E940B2760E070E080916B059F
:102450000E940B2761E0809168050E945B2784E65B
:1024600090E00E94421D60E0809168050E945B2719
:10247000BEDFBDDF60936C0570936D0580936E05C4
:1024800090936F05D0936A05C0936905DF91CF9152
:102490000895CF92DF92EF92FF9220916B05FC019D
:1024A0002083A5DFC0906C05D0906D05E0906E058F
:1024B000F0906F056C197D098E099F090E94142CFC
:1024C0006B017C016091690570916A0580E090E084
:1024D0000E94122C9B01AC01C701B6010E94792B0E
:1024E000FF90EF90DF90CF9008951F920F920FB65C
:1024F0000F9211242F933F934F935F936F937F938A
:102500008F939F93AF93BF93EF93FF938091B1020B
:1025100087FF05C010928500109284002DC0209185
:10252000B102022E000C330B8091140190E02817A9
:10253000390714F58091B102082E000C990BFC01AB
:10254000EE0FFF1F8E0F9F1FFC01EE54FD4F808189
:1025500086FF12C08091B102082E000C990BFC017D
:10256000EE0FFF1F8E0F9F1FFC01EE54FD4F808169
:1025700060E08F730E945B278091B1028F5F809330
:10258000B1022091B102022E000C330B8091140194
:1025900090E0281739070CF040C08091B1028C30D0
:1025A000E4F520918400309185008091B102082EDD
:1025B000000C990BFC01EE0FFF1F8E0F9F1FFC01FB
:1025C000EE54FD4F81819281820F931F9093890079
:1025D000809388008091B102082E000C990BFC01B9
:1025E000EE0FFF1F8E0F9F1FFC01EE54FD4F8081E9
:1025F00086FF2EC08091B102082E000C990BFC01C1
:10260000EE0FFF1F8E0F9F1FFC01EE54FD4F8081C8
:1026100061E08F730E945B271BC0809184009091C2
:102620008500049680349C4938F480E49CE99093BA
:1026300089008093880009C0809184009091850072
:10264000049690938900809388008FEF8093B10265
:10265000FF91EF91BF91AF919F918F917F916F917A
:102660005F914F913F912F910F900FBE0F901F9050
:102670001895EF92FF920F931F93CF93DF93909152
:10268000B0029C3008F076C08A017B01C82F61E05F
:1026900070E00E940B278091B002E82FF0E09F01CC
:1026A000220F331FE20FF31FEE54FD4F2C2F2F7319
:1026B0009081907C922B908320E232E02E193F098A
:1026C00037FF02C02D5F3F4F3595279535952795EC
:1026D0002093AF0220E639E0201B310B37FF02C008
:1026E0002D5F3F4F35952795359527952093AE0261
:1026F0002CE0622F0E94BD2D289FB001112440E0E4
:1027000050E09B01240F351FF901EE0FFF1F2E0F24
:102710003F1FF901EE54FD4F908196FD16C04F5FAB
:102720005F4F4C30510569F781110FC01092800046
:1027300082E0809381001092850010928400B19A0B
:1027400080916F00826080936F009091B002E92FBA
:10275000F0E09F01220F331FE20FF31FEE54FD4FF5
:10276000808180648083D0E0C456DD4F98839F5F72
:102770009093B0028091B002DF91CF911F910F91A1
:10278000FF90EF900895DC01E62FF0E0E456FD4F56
:1027900060816C3008F043C08091AF0228E830E0DF
:1027A000281B310987FD3395C901880F991F880FB0
:1027B000991FA817B9078CF08091AE0248E552E046
:1027C000481B510987FD5395440F551F440F551F52
:1027D000CD014A175B070CF4CA0102974FB7F89472
:1027E000262F30E0092E000CAA0BBB0B54E0880FFB
:1027F000991FAA1FBB1F5A95D1F763E0B695A795FD
:10280000979587956A95D1F7F901EE0FFF1F2E0F67
:102810003F1FF901EE54FD4F928381834FBF08950E
:10282000CF92DF92EF92FF92CF93C62F803222E0B9
:1028300092070CF03FC097FD06C0853B91052CF038
:1028400084EB90E002C080E090E02091AF0248E885
:1028500050E06A01C21AD10827FDD394CC0CDD1CCC
:10286000CC0CDD1C0D2C000CEE08FF084091AE02D4
:1028700028E532E0241B310947FD3395220F331F31
:10288000220F331FA901330F660B770B9A01AB019F
:102890002C193D094E095F09DC010E94472E24EBEB
:1028A00030E040E050E00E94122EC20ED31EE41E23
:1028B000F51EC6016C2FCF91FF90EF90DF90CF9067
:1028C00062CF8CE08093140180E090E028EB3BE045
:1028D000FC01EE0FFF1FE80FF91FEE54FD4F32838E
:1028E000218301968C30910599F708958F929F92DC
:1028F000AF92BF92CF92DF92EF92FF92CF93C82F09
:1029000069017A01232B242B252B21F1AB0162E3F2
:102910000E94DC270E94FC294B015C010E94FC29DB
:10292000DC01CB0188199909AA09BB098C159D0501
:10293000AE05BF0598F340E050E062E38C2FCF91E5
:10294000FF90EF90DF90CF90BF90AF909F908F90CF
:102950000C94DC27F894AB0162E30E94DC277894A6
:10296000CF91FF90EF90DF90CF90BF90AF909F906E
:102970008F900895AC01E091B205F091B3053097C6
:10298000E1F09091DB028091DA029817B0F090E0CC
:10299000292F30E02617370754F4DA01A20FB31FAE
:1029A0008C91D901AE58BA4F8C939F5FF1CF1092A2
:1029B000DB026093DA02CB0109940895E09170057F
:1029C000F0917105309729F01092D8021092D70239
:1029D000099408951092490381E08093470310926F
:1029E000460361E082E00E945B2761E083E00E9491
:1029F0005B27E9EBF0E080818E7F808380818D7F93
:102A0000808388E48093B80085E48093BC000895B7
:102A1000413208F045C0909149039111FCCF91E0FB
:102A200090934903209347032FEF2093DC021092E9
:102A30002103240F2093200390934803909148038F
:102A4000880F892B8093480380914603813071F46D
:102A500010924603809148038093BB008091BC0094
:102A600083FDF8CF85EC8093BC0003C085EE809396
:102A7000BC00809149038130E1F3809121038417E8
:102A800010F440912103A2E2B3E0962FFB018E2FB8
:102A9000891B841718F48D918193F9CF842F0895A1
:102AA00080E008950F93413208F04CC090914903A3
:102AB0009111FCCF32E030934903009347033FEF7D
:102AC0003093DC021092210340932003562FA2E2A0
:102AD000B3E0FB013E2F351B341718F431913D93C1
:102AE000F9CF1092480330914803880F832B8093CD
:102AF000480380914603813071F41092460380911F
:102B000048038093BB008091BC0083FDF8CF85EC27
:102B10008093BC0003C085EE8093BC00222321F08B
:102B2000809149038230D1F38091DC028F3F79F0AC
:102B30008091DC02803241F08091DC02803331F000
:102B400094E005C091E003C092E001C093E0892FBA
:102B50000F9108954091FE02262F30E0240F311D81
:102B600021323105DCF4209149032430C9F4FC0101
:102B700080E090E0861758F43091FE022191DC014C
:102B8000A050BD4FA30FB11D2C930196F3CF8091A0
:102B9000FE02680F6093FE0280E0089581E00895D0
:102BA00082E0089585ED8093BC008091BC0084FD97
:102BB000FCCF10924903089585EC8093BC001092DD
:102BC000490308951F920F920FB60F9211242F936D
:102BD0003F934F935F936F937F938F939F93AF93A5
:102BE000BF93EF93FF938091B900887F803609F4FB
:102BF000ACC070F5883209F461C090F4803109F4FA
:102C000055C038F4882309F40BC1883009F44EC04C
:102C10000AC1883109F452C0803209F465C003C189
:102C2000803409F471C050F4803309F45DC08833F6
:102C300009F0F9C08093DC02BFDFF5C0803509F4EC
:102C400057C0883509F468C0883409F0ECC0EAC080
:102C5000883909F4DBC0A8F4883709F476C038F461
:102C6000883609F472C0803709F46FC0DCC0883838
:102C700009F4CCC0803909F471C0803809F0D3C0A0
:102C80006DC0803B09F497C038F4803A09F47BC0EA
:102C9000883A09F490C0C7C0803C09F4BBC0883CA6
:102CA00009F4B8C0883B09F49BC0BDC080914803BB
:102CB0008093BB0085EC8093BC00B5C0909121034C
:102CC000809120039817A0F5E091210381E08E0FF9
:102CD00080932103F0E0EE5DFC4F80818093BB0088
:102CE00085EC8093BC009FC08093DC025BDF9BC0BF
:102CF000E091210381E08E0F809321038091BB003E
:102D0000F0E0EE5DFC4F80839091210380912003E1
:102D1000981708F07BC076C0E091210381E08E0F08
:102D2000809321038091BB00F0E0EE5DFC4F808337
:102D300080914703811176C081E08093460384EA45
:102D40008093BC00109249036EC083E080934903D6
:102D50001092DD0285EC8093BC0065C08091DD029D
:102D6000803208F053C0E091DD0281E08E0F809345
:102D7000DD028091BB00F0E0E252FD4F808385ECE4
:102D80008093BC0050C018DF8091DD02803230F4A7
:102D9000E091DD02F0E0E252FD4F10826091DD0231
:102DA00070E0E0914203F09143038EED92E00995CB
:102DB0001092DD0238C084E0809349031092FF0234
:102DC0001092FE02E0914403F09145030995809131
:102DD000FE02811105C081E08093FE021092000383
:102DE000E091FF0281E08E0F8093FF02F0E0E0505F
:102DF000FD4F80818093BB009091FF028091FE0285
:102E0000981720F485EC8093BC000DC085E8809372
:102E1000BC0009C085EC8093BC001092490303C03C
:102E20001092DC02BFDEFF91EF91BF91AF919F91B5
:102E30008F917F916F915F914F913F912F910F9063
:102E40000FBE0F901F9018951092DB021092DA02BD
:102E50001092D8021092D702BDDD8EED94E19093CE
:102E60004503809344038AEB94E19093430380935A
:102E700042030895462F613208F040E221E062E704
:102E800075E0C6DD1092DB028093DA02089591E0CE
:102E90009093D6028093D9021092D8021092D70252
:102EA00008950F93CF93C82F0C2F21E04091D702A4
:102EB00062E975E08091D902F5DD9091D7029923FE
:102EC00011F08111F1CF1092D8021092D702109216
:102ED000D602CF910F910895CF93DF931F92CDB774
:102EE000DEB789838091D6028823A1F08091D70232
:102EF0008032B8F48091D802E82FF0E0EE56FA4F15
:102F0000998190838F5F8093D8028093D70281E06C
:102F100090E009C061E0CE0101961CDE81E090E006
:102F200002C080E090E00F90DF91CF9108958091F2
:102F3000DA0290E02091DB02821B910908959091C2
:102F4000DB028091DA02981750F4E92FF0E0EE5896
:102F5000FA4F208130E09F5F9093DB0202C02FEF99
:102F60003FEFC90108958F929F92AF92BF92CF9287
:102F7000DF92EF92FF92CF93DF9390E0FC01EE524D
:102F8000FA4FC081FC01EC54FA4FD081880F991F91
:102F9000880F991FFC01E654FA4FC080D180E2806F
:102FA000F3802C2F277081E090E0AC0102C0440F29
:102FB000551F2A95E2F79A01EC2FF0E033E0F695E1
:102FC000E7953A95E1F7AF01440F551FE40FF51F60
:102FD000B096322F30954281342332833181232BB6
:102FE0002183ED2FF0E073E0F695E7957A95E1F710
:102FF0009F01220F331FE20FF31FB0962D2F277072
:1030000001C0880F2A95EAF78095918198239183D2
:1030100092818923828360E08C2F0E945B2782E06B
:1030200090E030D561E08C2F0E945B278AE090E031
:1030300029D560E08C2F0E945B27C6D44B015C0130
:103040008D2F0E948927882321F0BED44B015C017B
:1030500019C0BAD4DC01CB0188199909AA09BB09A6
:10306000C816D906EA06FB0658F7EFCFADD4DC0147
:10307000CB0188199909AA09BB09C816D906EA061D
:10308000FB0628F08D2F0E9489278111EFCF9CD459
:10309000681979098A099B0928E330E040E050E08B
:1030A0000E94F02DC901DF91CF91FF90EF90DF904A
:1030B000CF90BF90AF909F908F900895409157030D
:1030C00050915803209155033091560342175307EE
:1030D000B4F49091E8009570E1F39091E80092FDCE
:1030E00019C08093F1008091570390915803019685
:1030F0008F739927892B19F48EEF8093E8008091C4
:103100005703909158030196909358038093570367
:1031100081E0089580E00895EF92FF920F931F934E
:10312000CF93DF937C01062F10E0C8010196880F32
:10313000C5DF83E0C3DFE7010E0D1F1DC017D107F8
:1031400059F0FE018491BADFF82E80E0B7DF8F21BD
:1031500021968111F3CF01C081E0DF91CF911F91C2
:103160000F91FF90EF9008959093CD008093CC0045
:1031700088E18093C9008EE08093CA0008959FB7CC
:103180009093DA05F89487708093E9000895809110
:10319000DA058FBF0895CF93F2DF8091E800C82F42
:1031A000C07285FD02C0F3DF05C0F1DF8091F2003F
:1031B000C0E4C81B8C2FCF9108957F928F929F926D
:1031C000AF92BF92CF92DF92EF92FF920F931F9335
:1031D000CF93DF93B82E7B01D42ED52F80915B0344
:1031E000811103C08FEF9FEF6DC08091590380FF65
:1031F00005C08091E00082608093E0000D2D1D2FBE
:10320000C12C8AEFA82E8B2D8072882E8B2D807476
:10321000782E9AE3992E0115110509F44FC08B2DD4
:10322000BADFC82F811107C0AA94AA20D9F281E081
:1032300090E0EFD3F0CF90E0081719070CF4C02FFF
:103240008B2D9DDF8091E80085FFE5CF8C2F90E0EE
:10325000081B190B882029F0C150A8F01092F1002A
:10326000FBCFF701B7FE07C0C15058F0249120935F
:10327000F1003196F9CFC15020F021912093F10057
:10328000FACFE80EF91ECC2021F09092E800C12C74
:1032900013C08091E80085FD09C09092E800CC241D
:1032A000C3940115110541F0C12C06C0011511058B
:1032B00019F471109092E8006ADFADCFC110AFCF62
:1032C0008D2D9D2FDF91CF911F910F91FF90EF904A
:1032D000DF90CF90BF90AF909F908F907F90089598
:1032E0001092E900109258031092570390935603DE
:1032F000809355030895DF92EF92FF920F931F93EF
:10330000CF93DF938A018078D82E7B01E40EF51EDF
:10331000EB01CE15DF0569F0DD2019F0FE01849187
:1033200001C08881CBDE21968111F3CF8FEF9FEF13
:1033300001C0C801DF91CF911F910F91FF90EF90D5
:10334000DF900895CF93DC019B018BEF21153105B0
:10335000E1F0A9012134310514F040E450E09091EE
:10336000E80092FFFCCF942FFB01E21BF30BEA0F66
:10337000FB1F915028F0C091F100C0833196F9CF26
:103380008093E800241B350BE1CFCB01CF9108954A
:103390001F920F920FB60F921124EF92FF920F938C
:1033A0001F932F933F934F935F936F937F938F93CD
:1033B0009F93AF93BF93EF93FF93CF93DF93CDB7DB
:1033C000DEB76297DEBFCDBF1092E9008091E800C2
:1033D00083FFFDC089E0FE013A96815029F090916B
:1033E000F10090833196F9CF82EF8093E8008A85CF
:1033F00087FF05C09091E80090FFFCCF03C09EEFCF
:103400009093E800982F907609F0B2C09B852C85A8
:103410003D851C850D8591110EC0803839F4809151
:103420005A038093F1001092F100CAC01092F1008B
:103430001092F100C5C0913061F48111C1C02130FA
:10344000310509F0BDC080915A038D7F80935A03E6
:10345000B7C0933061F48111B3C02130310509F058
:10346000AFC080915A03826080935A03A9C09530FF
:1034700041F48091E80080FFFCCF10681093E300D6
:103480009FC0963009F048C0E888F988023051F5AD
:1034900080E090E025DF1982CE0101960E94E601CE
:1034A000298189E089830A83809157039091580389
:1034B00009969C838B832D8381E08E831F8280EA13
:1034C00088878AEF8987C7010BDF49E050E0BE019A
:1034D0006F5F7F4F80E00FDF1A8ACE0142960E9415
:1034E000E6016EC0C701FCDE013009F45FC00330A5
:1034F00009F06AC0112309F45CC0123029F460E1BC
:103500008CE092E009DE4FC0113009F05DC06BE045
:1035100080E092E001DE47C0973009F455C0983052
:1035200021F481E08093F1004BC0993009F048C04C
:10353000837009F049C0E6E1F1E081E021E036E383
:103540009081992361F08093E9002093EB009191A1
:103550009093EC003093ED008F5F873089F78EE712
:103560008093EA001092EA008C8580935B0328C068
:1035700088899989B5DE88E0FE013A96DE011196C8
:1035800001900D928A95E1F78E857F8581111CC08F
:103590001D827E8329813A814B815C8160E08F812D
:1035A00098850E94FB01882379F00AC06EEE71E0D5
:1035B00002C06DE172E0FB01449150E080E89BDEC7
:1035C0008EEF8093E80003C081E28093EB00629667
:1035D0000FB6F894DEBF0FBECDBFDF91CF91FF9144
:1035E000EF91BF91AF919F918F917F916F915F917B
:1035F0004F913F912F911F910F91FF90EF900F905E
:103600000FBE0F901F9018958093E9008091F200F3
:10361000882319F08AE38093E80008951F920F929F
:103620000FB60F9211242F933F934F935F936F9395
:103630007F938F939F93AF93BF93CF93EF93FF931A
:10364000C091E1008091E100837F8093E100C3FF9E
:103650000FC01092E90081E08093EB001092EC0023
:1036600082E38093ED0010925B0388E08093F0008A
:10367000C2FF02C083E0C8DFC4FF12C08091E20035
:103680008E7E81608093E2008091E1008F7E809346
:10369000E100809159038E7E80618093590313C0AD
:1036A000C0FF11C08091E2008E7E80618093E200B5
:1036B0008091E1008E7E8093E100809159038E7E9F
:1036C000816080935903FF91EF91CF91BF91AF91AA
:1036D0009F918F917F916F915F914F913F912F912A
:1036E0000F900FBE0F901F90189581E08093D70028
:1036F00080EA8093D80082E189BD09B400FEFDCF45
:1037000080E98093D8001092E00010925B038CE077
:103710008093E2007894089580915B0308959FB7A9
:10372000F89480915B03882369F082E08093E9003C
:103730002BE68091E80085FD09C082FF03C020933D
:10374000E800F7CF9FBF8FEF9FEF08958091F100C2
:103750002091E80025FD03C02BE62093E8009FBFE1
:1037600090E0089508958091C000881F8827881FE1
:1037700008950C94BA0208958091C6000895AF92FE
:10378000BF92CF92DF92EF92FF920F931F93CF934E
:10379000DF9328E0829F70011124082F000F000F93
:1037A000000FC0E0D0E010E082E0E81AF108C62E79
:1037B000D12CAA24A394B12CC7018C0F9D1F429732
:1037C000B0F4C6010C2E02C0959587950A94E2F7D5
:1037D00080FF0DC08C2F800F0E948927882339F02D
:1037E000C5010C2E01C0880F0A94EAF7182B219608
:1037F000C830D10509F7812FDF91CF911F910F912B
:10380000FF90EF90DF90CF90BF90AF9008955F92C0
:103810006F927F928F929F92AF92BF92CF92DF92E0
:10382000EF92FF920F931F93CF93DF934A01FB0117
:103830005080452B19F488248A94982C7B013B01F5
:10384000680E791EC0E0D0E000E010E087E0C82EEE
:10385000D12CE614F70489F10815190508F04AC0BF
:103860005701F70181917F010C2E01C0880F0A9446
:10387000EAF785298F777DDF0F5F1F4FF501808184
:1038800090E096012C1B3D0B02C0959587952A95DB
:10389000E2F7582E2196C730D105D8F2801691064E
:1038A00051F0852D8F7765DF0F5F1F4F551C552415
:1038B000551C2797F0CF8401CCCF2097D9F008155D
:1038C0001905C0F481E090E001C0880FCA95EAF7BD
:1038D00081508521DF91CF911F910F91FF90EF9043
:1038E000DF90CF90BF90AF909F908F907F906F9020
:1038F0005F903FCFDF91CF911F910F91FF90EF909D
:10390000DF90CF90BF90AF909F908F907F906F90FF
:103910005F900895FF920F931F93CF93DF93C82F6B
:10392000162FF42E052F80EF24DF8C2F22DFCF2DD2
:10393000D02FCE01810F911D8C01C017D10741F00E
:1039400040E050E0BE0181E090E061DF2196F5CFDC
:1039500087EFDF91CF911F910F91FF900ACFFC016C
:1039600001900020E9F73197BF01681B790BAC018A
:1039700081E7D0CF0F931F93CF93DF938431F0F47F
:103980008A01D62FC82F0E940527833051F084303A
:10399000A9F46C2FC801DF91CF911F910F910C9466
:1039A00010148EEF8C0F823148F4A8016D2F8C2FEC
:1039B000DF91CF911F910F910C94DC27DF91CF9174
:1039C0001F910F91089508953FB7F8948091AB042B
:1039D0009091AC04A091AD04B091AE0426B5A89B23
:1039E00005C02F3F19F00196A11DB11D3FBFBA2F91
:1039F000A92F982F8827820F911DA11DB11DBC01F1
:103A0000CD0142E0660F771F881F991F4A95D1F7B5
:103A100008958F929F92AF92BF92CF92DF92EF92D2
:103A2000FF926B017C01D0DF4B015C01C114D1041A
:103A3000E104F104F1F0C7DFC7DFDC01CB01881935
:103A40009909AA09BB09883E9340A105B10570F305
:103A500021E0C21AD108E108F10888EE880E83E05F
:103A6000981EA11CB11CC114D104E104F10421F77A
:103A7000DDCFFF90EF90DF90CF90BF90AF909F9001
:103A80008F9008958230910538F0880F991F880F24
:103A9000991F05970197F1F70895109296061092D5
:103AA0006D0610926C061092E3051092E2051092DA
:103AB00025061092E10580E48093970608951F93F0
:103AC000CF93DF9300D000D0CDB7DEB78091DB0578
:103AD0008823D9F06091DE0580E051DE1091DE058B
:103AE000182380912806181781F0812F90E09C837D
:103AF0008B8380E93EDE42E050E0BE016D5F7F4F88
:103B000082E090E084DE109328068091DC05882313
:103B1000D9F06091DF0581E032DE1091DF051823D6
:103B200080912906181781F0812F90E09A8389836C
:103B300081E91FDE42E050E0BE016F5F7F4F82E00F
:103B400090E065DE109329060F900F900F900F9074
:103B5000DF91CF911F910895CF93DF9300D0CDB720
:103B6000DEB77A836983803170F46115704458F44C
:103B7000806EFFDD42E050E0BE016F5F7F4F82E06C
:103B800090E045DE06C08FEFF4DD8FEFF2DD8FEFC2
:103B9000F0DD0F900F90DF91CF9108951F93CF9399
:103BA000DF9300D000D000D0CDB7DEB712EF8EE0AB
:103BB000810F163030F50E940527823011F5212F34
:103BC00030E080915F0390E0012E02C095958795CB
:103BD0000A94E2F780FF15C086E0E7E2F1E0DE013B
:103BE000119601900D928A95E1F7E1E0F0E0EC0F7B
:103BF000FD1FE20FF31F80810E94B827BC01812FB7
:103C0000ABDF1F5F163099F626960FB6F894DEBF2D
:103C10000FBECDBFDF91CF911F910895EF92FF921C
:103C20000F931F93CF93DF93D82F8B01C42FF22EC6
:103C30006F3F7F4F71F08D2F2AD9802F4DD98F2D57
:103C400030D980915D0390915E03009721F01ADFD7
:103C500002C000E010E06C2F8D2F0CD9EC2EF12C5F
:103C600066D9E816F9060CF062D9D093E405009302
:103C7000E5055DD9892B61F462E06C0F44EE55E0F7
:103C800087E7DF91CF911F910F91FF90EF9042CE88
:103C900004EE15E0C801845E95408E159F0564F71B
:103CA0004ED9F801828343D90F5F1F4F892B91F7BB
:103CB000E3CFCF93C0E08EEE8C0F823028F466E025
:103CC00070E08C2F0E940B27CF5FC431A1F781E0F9
:103CD00080935C03CF91B8C81F93CF93DF938091FB
:103CE0009802909199029C012F5F3F4F3093990267
:103CF0002093980220919A0230919B02281739074D
:103D00000CF057C08091960290919702892B09F48C
:103D100050C08091950290E00E949A0EBC01909153
:103D20009502492F50E0FA01E25BFA4FD081FA0187
:103D3000E85BFA4FC081109299021092980290931A
:103D400094029F5F90939502209196023091970282
:103D5000215031094217530714F010929502672B36
:103D600041F59091430580914405890F9091450557
:103D7000890F90914605890F11E0909147058913AD
:103D800001C010E080EFF5DC85E6F3DC8D2FF1DC7F
:103D90008C2FEFDCC3E4D5E08991EBDC85E0C73400
:103DA000D807D1F7812FE5DC87EFDF91CF911F9105
:103DB000E0CCDF91CF911F910895CF93DF93809155
:103DC0004F03909150039C012F5F3F4F309350035E
:103DD00020934F0320914D0330914E03281739074C
:103DE0000CF040C01092500310924F038091530387
:103DF00090915403892BB1F180914B03B4D8EC011D
:103E000020914B0330914C0320934A03C901019642
:103E100090934C0380934B038091530390915403F0
:103E200001972817390724F010924C0310924B0386
:103E300080EF9FDC83E69DDCE0914A03F0E0EE52E8
:103E4000FA4F808196DC8C2F8F7793DCCE01880F20
:103E5000892F881F990B91958F778BDC87EFDF91E6
:103E6000CF9187CCDF91CF9108951F920F920FB61B
:103E70000F9211240F931F932F933F934F935F93B0
:103E80006F937F938F939F93AF93BF93EF93FF9322
:103E9000E09A0E94FC2900911D0510911E052091B9
:103EA0001F0530912005DC01CB01801B910BA20B7B
:103EB000B30B883C9105A105B10518F081E0809312
:103EC00056020E94FC2960931D0570931E05809385
:103ED0001F0590932005FF91EF91BF91AF919F91A6
:103EE0008F917F916F915F914F913F912F911F9192
:103EF0000F910F900FBE0F901F9018951F920F9269
:103F00000FB60F9211240F931F932F933F934F934C
:103F10005F936F937F938F939F93AF93BF93EF9331
:103F2000FF93E19A0E94FC2900911D0510911E0546
:103F300020911F0530912005DC01CB01801B910BE6
:103F4000A20BB30B883C9105A105B10518F081E0E7
:103F5000809357020E94FC2960931D0570931E05F3
:103F600080931F0590932005FF91EF91BF91AF9132
:103F70009F918F917F916F915F914F913F912F9181
:103F80001F910F910F900FBE0F901F90189584B73F
:103F9000877F84BFE0E6F0E080818861808388E0ED
:103FA00080830895CF92DF92EF92FF920F931F9339
:103FB000CF93DF93CDB7DEB7CD58D1090FB6F894C4
:103FC000DEBF0FBECDBF80912C06893409F4B4C288
:103FD000893769F58091E2059091E305039708F030
:103FE00093C5C0901D01D0901E01F60101900020E4
:103FF000E9F731978F010C191D0980EFBADB89E7CA
:10400000B8DB82E0B6DB86E0B4DBE12CF12CE01615
:10401000F10609F476C5B6016E0D7F1D40E050E053
:1040200081E090E0F4DB2FEFE21AF20AF0CF00918A
:10403000E2050150893609F41EC1D0F48F3509F428
:104040007CC178F48D3009F440C2813509F05CC53B
:1040500080EF8FDB82E58DDB81E08BDB87EF89DB17
:1040600053C5823609F495C1843609F4DDC14CC5C7
:10407000863779F038F48F3609F4CEC1803709F4E9
:104080002EC142C5883709F4DEC08A3709F402C15F
:104090003BC510912E0615FD37C50E94EA1480918C
:1040A0002D0620912E0626FB222720F991E02927B4
:1040B000912F9871983051F130F4911125C50E94DB
:1040C000471712E007C0903109F43DC0983109F458
:1040D0006DC01AC5101790F4212F30E0F901E25D90
:1040E000F94F8081879588278795F901E35DF94F1E
:1040F0009081890F0E946C171E5FECCF81E00E94B7
:10410000511783E191E00197F1F7FEC44091300629
:1041100060912F06063079F470E030E8439F600D1F
:10412000711D11244091320647954427479590917F
:104130003106490F06C0479544274795460F6FEF54
:104140007FEF6CDDE1C4E0911C01E73024F086E6EE
:1041500091E005DCD9C49091300630912F060630ED
:1041600081F4632F70E040E8949F600D711D11246D
:104170009091320697959927979540913106940F23
:1041800006C0979599279795930F6FEF7FEFEF5F95
:10419000E0931C0135E0E302F0011124E259F94FEC
:1041A00080837283618393832483AEC420911C0136
:1041B00012163CF490E0622F022E000C770B35E0D3
:1041C0000FC08FEF80931C019FC4349FF001359F77
:1041D000F00D1124E259F94F4081841739F09F5FA7
:1041E000492F50E06417750784F790E085E0492F68
:1041F00050E0641775071CF19830F8F4FA01319615
:104200008E9FD0018F9FB00D1124A259B94F3C91C0
:10421000849FF001859FF00D1124E259F94F3083FE
:1042200011964D915C9112975283418313963C9164
:104230001397338314963C9134839F5FD8CF2150DA
:1042400020931C0161C4023080F020912E068091E1
:104250002D0690E040E8249F800D911D11240097C9
:1042600021F090935E0380935D0380915C03811144
:104270004BC41FDD49C480EF7CDA8AE67ADA12EF9C
:10428000163010F4812F01C08FE773DA1F5F1630EC
:10429000B9F737C480912E0620912D0630E070E8E2
:1042A000879F200D311D11243093200120931F0181
:1042B0002115310509F428C488E290E0B9010E9473
:1042C000C92D70934E0360934D0380ED97E0B901C3
:1042D0000E94C92D70939B0260939A0215C4053009
:1042E00008F412C410912D068EEF810F823108F070
:1042F0000BC4E12FF0E0E856F94F8081843009F4D7
:1043000003C4809131064091300650E090E8899FC7
:10431000400D511D112480912F0660912E0670E0F2
:10432000E0E88E9F600D711D1124812F0E943913CA
:1043300064E070E0812F6FD5E7C390912D068091E6
:104340002E0691111BC0909132062091310630E06B
:10435000F0E89F9F200D311D1124032E000C440B0B
:10436000550B9091300660912F0670E0E0E89E9F1B
:10437000600D711D11240E947614C6C3913009F09E
:10438000C3C320E030E0A90160E070E00E94761431
:10439000BBC32091530330915403263031050CF0F8
:1043A000B3C380912D068093520390912E06909373
:1043B0005103F901EE0FFF1FEE0FFF1FE654FA4FF6
:1043C0006091300640912F0650E070E8679F400DE5
:1043D000511D1124052E000C660B770B4083518371
:1043E00062837383F901EE52FA4F8083F901EC5432
:1043F000FA4F90836CE070E00ED56CE070E0809135
:10440000510309D5809153039091540301969093E1
:1044100054038093530378C344E650E060912E0622
:1044200080912D06A7DA70C32091960230919702F1
:10443000263031050CF045C080912D0690912E0656
:10444000492F50E04631510531F441E0F901EC5A71
:10445000FA4F40830DC04B30510531F44AE0F90169
:10446000EC5AFA4F408304C087E791E078DA4CC3F6
:10447000F901E25BFA4F8083F901E85BFA4F908320
:104480006FE070E0C8D480919602909197020E94EC
:104490009A0E892B09F038C36091960270919702A9
:1044A0006F5F7F4F709397026093960280919A029C
:1044B00090919B020E94DD2D70939B0260939A0263
:1044C00023C38CEA91E04BDA1FC380912D06FE01D5
:1044D00031967F019FE711929A95E9F78E3051F559
:1044E0000E94EA1400E011E0812F0E94471781E04A
:1044F0000E945117811105C0F701E00FF11D1083D3
:104500000F5F1F5F1F3781F780EF33D98DE031D9FF
:104510008EE02FD9802F2DD9670110E0C6018E19AA
:104520009F09801791070CF0ECC2F60181916F0191
:1045300020D9F4CF853511F42ADDE6C2811198C067
:1045400020912E06213009F048C030912F0630937B
:104550002805E32FF0E0E951FE4F8081E82FF0E0DD
:1045600043E0F695E7954A95E1F7AF01440F551FF3
:10457000E40FF51FB096482F477081E090E001C02E
:10458000880F4A95EAF780959181982391839281CB
:1045900089238283323079F4809161038111B4C21E
:1045A00020936103F894E99A809169008860809370
:1045B00069007894A9C2333009F0A6C280916003E3
:1045C0008111A2C220936003F894E89A8091690057
:1045D000826080936900789497C2211195C24091BE
:1045E000300650E060E070E0FCE1440F551F661FAC
:1045F000771FFA95D1F78091310690E0A0E0B0E006
:1046000015E1880F991FAA1FBB1F1A95D1F7482BD8
:10461000592B6A2B7B2B8091320690E0A0E0B0E012
:104620000EE0880F991FAA1FBB1F0A95D1F7482BD0
:10463000592B6A2B7B2B8091330690E0A0E0B0E0F1
:1046400027E0880F991FAA1FBB1F2A95D1F7842B3B
:10465000952BA62BB72B209134062F77BC01CD01CB
:10466000622B20E230E040912F060E9425054CC2CB
:10467000873109F02DC180912E0681111DC0F09067
:104680002F0600913006F0E80F9F800111248091E1
:1046900031068F77082B80EF6CD88DE06AD887E1E0
:1046A00068D822E54FEFB8018F2D0E944806882375
:1046B00009F425C281E023C2813009F049C000918C
:1046C000340610E020E030E065E1000F111F221FEA
:1046D000331F6A95D1F78091350690E0A0E0B0E0F5
:1046E0007EE0880F991FAA1FBB1F7A95D1F7082B70
:1046F000192B2A2B3B2B8091360690E0A0E0B0E0EE
:10470000E7E0880F991FAA1FBB1FEA95D1F7082B76
:10471000192B2A2B3B2B809137068F77082B409142
:10472000320670E8479FA0011124809133068F77ED
:10473000482B6091300680E8689FB0011124809179
:1047400031068F77682B80912F060E94820ADCC188
:10475000823039F46091300680912F060E9435092D
:10476000D3C1833009F079C0C0903806D12CE12C38
:10477000F12CF5E1CC0CDD1CEE1CFF1CFA95D1F7F9
:104780008091390690E0A0E0B0E01EE0880F991F0C
:10479000AA1FBB1F1A95D1F7C82AD92AEA2AFB2AD1
:1047A00080913A0690E0A0E0B0E007E0880F991F02
:1047B000AA1FBB1F0A95D1F7C82AD92AEA2AFB2AC1
:1047C00080913B068F77C82A0091340610E020E0E4
:1047D00030E085E1000F111F221F331F8A95D1F7AA
:1047E0008091350690E0A0E0B0E04EE0880F991F80
:1047F000AA1FBB1F4A95D1F7082B192B2A2B3B2B3D
:104800008091360690E0A0E0B0E057E0880F991F55
:10481000AA1FBB1F5A95D1F7082B192B2A2B3B2B0C
:10482000809137068F77082B4091320690E8499F98
:10483000A0011124809133068F77482B60913006B8
:10484000E0E86E9FB0011124809131068F77682BCC
:1048500080912F060E94100B57C1843039F460916B
:10486000300680912F060E941C0C4EC1853039F411
:104870006091300680912F060E949F0C45C18630C2
:10488000F9F40091350610E02091340630E04091B3
:104890003206F0E84F9FA0011124809133068F77F4
:1048A000482B6091300680E8689FB0011124809108
:1048B00031068F77682B80912F060E94B10D24C19D
:1048C000873009F021C180912F060E94E00A1CC1A7
:1048D000893169F580912E06893009F015C1F09073
:1048E0002F068F2D0E946C0F8E0100581F4F8CE0F9
:1048F000F80111928A95E9F7C8010E94121180EF20
:104900000E94B91B8DE00E94B91B89E10E94B91B6E
:104910008F2D0E94B91BF80180810E94B91BF801FC
:1049200081810E94B91B87EF0E94B91BEDC08132C3
:1049300009F092C080912E06863151F440913106E3
:104940004E506091300680912F060E944C01DCC0D1
:10495000823109F0D9C08E0100581F4F8EE0F80156
:1049600011928A95E9F7C8010E947C0180EF0E94AC
:10497000B91B8DE00E94B91B81E20E94B91BF801AE
:1049800080819181880F892F881F990B8F770E94D2
:10499000B91BF80180818F770E94B91BF8018281D1
:1049A0009381880F892F881F990B8F770E94B91BDD
:1049B000F80182818F770E94B91BF801848195816B
:1049C000880F892F881F990B8F770E94B91BF801D8
:1049D00084818F770E94B91BF80186819781880FA7
:1049E000892F881F990B8F770E94B91BF801868148
:1049F0008F770E94B91BF80180859185880F892FD8
:104A0000881F990B8F770E94B91BF80180858F77DB
:104A10000E94B91BF80182859385880F892F881F12
:104A2000990B8F770E94B91BF80182858F770E94BE
:104A3000B91BF80184859585880F892F881F990BEC
:104A40008F770E94B91BF80184858F770E94B91B6C
:104A500087EF0E94B91B58C0833209F055C080917E
:104A60002E06873081F440913106F0E84F9FA00177
:104A7000112480913206482B6091300680912F06D8
:104A80000E94171241C08A3009F03EC0CE01805802
:104A90009F4F0E9449126B017C0120E030E0A90188
:104AA00024D687FF04C0F7FAF094F7F8F094C70112
:104AB000B6018CD6162F072F80EF0E94B91B8DE010
:104AC0000E94B91B83E20E94B91BC058DF4F888146
:104AD000C058D0400E94B91B802F0E94B91B812F63
:104AE0000E94B91B20E030E048EC52E4C701B60157
:104AF00089D76CD6862F64E60E94BD2D892F0E942F
:104B0000B91B87EF0E94B91BC357DF4F0FB6F8944C
:104B1000DEBF0FBECDBFDF91CF911F910F91FF90F0
:104B2000EF90DF90CF9008951F93CF93DF93182FCE
:104B3000EB018091970690E068177907A0F0E0916B
:104B40001B05F0911C0581E0309799F080932B06AE
:104B5000809122059091230509958091970690E018
:104B6000C817D90728F4C45DD94F188380E001C065
:104B700081E0DF91CF911F910895CF92DF92FF9254
:104B80000F931F93CF93DF93909196069923D9F0BB
:104B9000873F51F410929606DF91CF911F910F91AC
:104BA000FF90DF90CF90FEC96091E2057091E30520
:104BB000BBDF8091E2059091E30501969093E305B8
:104BC0008093E2051AC160916C0670916D066115C3
:104BD000710509F4D9C087FDD7C061507109709380
:104BE0006D0660936C06A0DF80916C0690916D0657
:104BF000892B09F002C18091E105882309F4FDC0E9
:104C0000803D09F4B4C030F4803901F1803C09F4EE
:104C10008FC0B7C0843FE9F1853F09F479C0803E79
:104C200009F0AFC080912D06877040912C064F7718
:104C300050E090E8899F400D511D112460912E068F
:104C40006F77809125060E94BA1C9BC080912C062C
:104C500000912D0610E090E8899F000D111D112490
:104C6000F0902506FF0CFF0CFF0CC0E0D0E0CC2438
:104C7000C394D12CB6018C2F0C2E01C0660F0A9460
:104C8000EAF760238F0D17D12196C830D10591F72F
:104C900078C0D0912C060D2F10E0C0912D068C2FDE
:104CA000B4D08F3709F46DC08EEF8C0F8231E8F4E9
:104CB000EC2FE695E695E6952C2F2770F0E0E25272
:104CC000FA4F81E090E001C0880F2A95EAF70115BC
:104CD000110519F00B30110521F49081892B808387
:104CE00004C08095908189238083B8018C2F93D054
:104CF000D23009F046C0CE5081E090E001C0880F6C
:104D0000CA95EAF790915F03892B80935F0339C0BE
:104D1000C0912D068EEF8C0F823198F5D0912C0624
:104D20008C2F73D0813069F56D2F8C2FC4D029C0A2
:104D300040912506463028F580912C0650915F035E
:104D400081110BC081E090E001C0880F4A95EAF71D
:104D50008095852380935F0314C021E030E001C07B
:104D6000220F4A95EAF7252B20935F030AC0E091B2
:104D70002506E33030F4F0E0E552FA4F80912C063E
:104D800080831092E10539C0803F28F4982F9F70EE
:104D900090932506807F803EB1F038F4803C29F165
:104DA000803D19F1803949F517C0843FA9F0853F4E
:104DB00099F0803F11F581E0809396061092E3050B
:104DC0001092E2051AC023E030E030936D06209384
:104DD0006C068093E10511C022E030E030936D064F
:104DE00020936C068093E10508C021E030E0309309
:104DF0006D0620936C068093E105DF91CF911F91A2
:104E00000F91FF90DF90CF900895E82FF0E0E856E3
:104E1000F94F8081089590E0FC01E856F94F208118
:104E20002F3709F447C060836115710521F06130A7
:104E3000710511F10895FC01E15CFD4F8081E82FBF
:104E4000F0E033E0F695E7953A95E1F79F01220F00
:104E5000331FE20FF31FB096282F277081E090E0F8
:104E600001C0880F2A95EAF7809591819823918354
:104E70009281892382830895FC01E15CFD4FE081EA
:104E80008E2F877001C0660F8A95EAF7F0E083E005
:104E9000F695E7958A95E1F7CF01880F991FE80FFE
:104EA000F91FB096862F8095928189238283818114
:104EB000682B61830895E82FF0E0E15CFD4FE0810D
:104EC0009E2F977021E030E0A90102C0440F551FCA
:104ED0009A95E2F7CA01F0E093E0F695E7959A9586
:104EE000E1F79F01220F331FE20FF31FB096282F27
:104EF00020953281322332833181382B31836623EE
:104F000021F09281892B8283089582812823228334
:104F10000895E82FF0E0E15CFD4FE0812E2F27702F
:104F200081E090E001C0880F2A95EAF7F0E093E075
:104F3000F695E7959A95E1F79F01220F331FE20F4F
:104F4000F31FDF019096982F909511962C91119751
:104F5000292311962C93119712962C911297922334
:104F600012969C9390A1982381E009F480E0089523
:104F700090917A00906490937A0090917A0094FFD7
:104F8000FCCF85FF02C090E203C090917B009F7D23
:104F900090937B008F71806480937C0080917A0075
:104FA000806480937A0080917A0086FDFCCF8091A6
:104FB00078009091790008953F924F925F926F929E
:104FC0007F928F929F92AF92BF92CF92DF92EF9299
:104FD000FF920F931F93CF93DF93C82FD0E0FE0172
:104FE000E15CFD4F0081902F977021E030E0690176
:104FF00001C0CC0C9A95EAF710E073E0169507957E
:105000007A95E1F7F801EE0FFF1F0E0F1F1F005EEC
:105010001F4F3C2C3094F80192819321928391810F
:105020009C299183B4E0CC0FDD1FBA95E1F766238C
:1050300019F0643639F461E03EDFCE59DC4F1F864B
:105040001E8678C0FE01EE59FC4F88EC90E09387F5
:10505000828787E390E0958784874115510539F071
:1050600053874287378726873783268304C017866E
:10507000168617821682E62EF12CCE59DC4FFD865D
:10508000EC862A853B85032E000C440B550B60E90A
:1050900070ED83E090E0C6D549015A01F1E08F1A26
:1050A0009108A108B108C501B401BED320E030E0E9
:1050B00048EC52E41ED32B013C01B7010F2C000C2D
:1050C000880B990BB1D39B01AC01C301B2019AD4F7
:1050D000FCD477D32B013C0179836883C501B401EB
:1050E000A3D320E030E048EC52E403D34B015C0151
:1050F00064E670E06E197F09072E000C880B990B8F
:1051000093D39B01AC01C501B4017CD4DED459D347
:105110007B836A835D824C82198618868E819F818B
:10512000F801892B21F08281C82AC28203C08281C2
:1051300038223282E2E6F3E080E090E020E030E0E6
:10514000468557854130510541F4DC01AA0FBB1F4C
:10515000A455B94F2D933C9301962F5F3F4F709606
:105160002431310569F79093A3048093A204F89445
:10517000109290001092910010929500109294005D
:1051800081E090E090939900809398008091910045
:10519000886080939100809191008160809391005C
:1051A0008091910082608093910080917100846071
:1051B000809371007894DF91CF911F910F91FF90B0
:1051C000EF90DF90CF90BF90AF909F908F907F90A7
:1051D0006F905F904F903F9008951F920F920FB67F
:1051E0000F9211244F925F927F928F929F92AF9273
:1051F000BF92CF92DF92EF92FF920F931F932F9364
:105200003F934F935F936F937F938F939F93AF934E
:10521000BF93CF93DF93EF93FF930E94B31B882339
:1052200061F08091A4049091A50401969093A50447
:105230008093A4040E94BC1BF0CF4090AC06509019
:10524000AD068090A2049090A3049CEAA92E96E05B
:10525000B92E8501E0E0F0E0A201A4E0440F551F63
:10526000AA95E1F7E815F9050CF054C0E801A991F9
:10527000B9918E01BD0184E0660F771F8A95E1F731
:10528000CB018E599C4F7C01EC012885398521305A
:10529000310581F5CD01815C9D4FEC017880872D32
:1052A00090E0C3E096958795CA95E1F76C01CC0C28
:1052B000DD1C8C0D9D1D8096E701EE80FF80D72DB3
:1052C000D7707D2EEC01EF2839F0FA8001C0220F53
:1052D0007A94EAF72F2907C0FA8001C0220F7A9446
:1052E000EAF720952F212A83CB018E599C4FEC01A0
:1052F000198618866E597C4F4E595C4FEB012C81F4
:105300003D81EA018C819D81821793070CF02D016C
:105310003196A2CFFA01EE59FC4F4481558120E02D
:1053200030E061E070E028153905F4F5F501819170
:1053300091915F01DC01E4E0AA0FBB1FEA95E1F760
:10534000FD01EE59FC4FC481D581C41BD50BD5831B
:10535000C483CD2B31F5C681D781219719F4C28141
:10536000D38102C0C081D181D583C483AE59BC4FE3
:105370001696CD91DC911797FC01FF2784E0EE0F84
:10538000FF1F8A95E1F7EE59FC4F7187608781E036
:1053900090E0CD2B11F080E090E017969C938E93D7
:1053A00016972F5F3F4FBFCF5093990040939800BF
:1053B0001092950010929400FF91EF91DF91CF91A0
:1053C000BF91AF919F918F917F916F915F914F911D
:1053D0003F912F911F910F91FF90EF90DF90CF9011
:1053E000BF90AF909F908F907F905F904F900F9065
:1053F0000FBE0F901F9018952FB7F8946091A704D7
:105400007091A8048091A9049091AA042FBF0895D7
:105410001F920F920FB60F9211242F933F938F93E9
:105420009F93AF93BF938091A7049091A804A091FC
:10543000A904B091AA043091A60423E0230F2D37CC
:1054400020F40196A11DB11D05C026E8230F029688
:10545000A11DB11D2093A6048093A7049093A804D6
:10546000A093A904B093AA048091AB049091AC04DA
:10547000A091AD04B091AE040196A11DB11D809321
:10548000AB049093AC04A093AD04B093AE04BF9171
:10549000AF919F918F913F912F910F900FBE0F90E1
:1054A0001F90189587E690E00E94B4180E94751B23
:1054B0000E948C1B8823E1F30E94B21B789484B570
:1054C000826084BD84B5816084BD85B5826085BD00
:1054D00085B5816085BD80916E00816080936E008E
:1054E0001092810080918100826080938100809180
:1054F0008100816080938100809180008160809331
:1055000080008091C10084608093C1008091C000C0
:1055100081608093C00087E880937A000E944D1DCF
:105520000E9461140E948F1B8F3F2FEF920709F09A
:1055300024DB0E945F1D8091AF049091B00400971E
:1055400011F040E038C058DF6093D4067093D50660
:105550008093D6069093D706C090D806D090D906EF
:10556000E090DA06F090DB0620911F0130912001D7
:10557000890120E030E0AB01BC014C195D096E09E6
:105580007F09041715072607370788F5D701C601D5
:10559000800F911FA21FB31F8093D8069093D90646
:1055A000A093DA06B093DB060E94DD1E0E946C1EFB
:1055B0000E94CE1D1CC0242F30E02817390734F478
:1055C000F901EF54FB4F10824F5FF5CFC82F1092B7
:1055D000B0041092AF0401EB14E0D0E0DC1708F047
:1055E000B2CFF80181918F01C8DADF5FF7CF8091E8
:1055F000570281110DC080915602882309F492CF81
:1056000083E00E94E5030E94C902109256028ACFED
:1056100082E00E94E5030E94C9021092570282CFE5
:105620005058BB27AA270ED0B3C1A4D130F0A9D1BE
:1056300020F031F49F3F11F41EF499C10EF4E0956F
:10564000E7FB8FC1E92FB5D180F3BA176207730763
:105650008407950718F071F49EF5CDC10EF4E0951E
:105660000B2EBA2FA02D0B01B90190010C01CA011C
:10567000A0011124FF27591B99F0593F50F4503EC7
:1056800068F11A16F040A22F232F342F4427585FB9
:10569000F3CF469537952795A795F0405395C9F7D1
:1056A0007EF41F16BA0B620B730B840BBAF0915089
:1056B000A1F0FF0FBB1F661F771F881FC2F70EC028
:1056C000BA0F621F731F841F48F4879577956795FB
:1056D000B795F7959E3F08F0B3CF9395880F08F0E4
:1056E0009927EE0F97958795089517D108F481E0D3
:1056F00008950CD04DC145D140F03CD130F021F49B
:105700005F3F19F02EC1511177C131C152D198F3C9
:105710009923C9F35523B1F3951B550BBB27AA2732
:1057200062177307840738F09F5F5F4F220F331FA4
:10573000441FAA1FA9F333D00E2E3AF0E0E830D070
:1057400091505040E695001CCAF729D0FE2F27D073
:10575000660F771F881FBB1F261737074807AB0741
:10576000B0E809F0BB0B802DBF01FF2793585F4FB6
:105770002AF09E3F510568F0F4C03EC15F3FECF354
:10578000983EDCF3869577956795B795F7959F5F7B
:10579000C9F7880F911D9695879597F90895E1E0CF
:1057A000660F771F881FBB1F621773078407BA072E
:1057B00020F0621B730B840BBA0BEE1F88F7E09589
:1057C000089504D06894B11117C10895FAD088F0F3
:1057D0009F5790F0B92F9927B751A0F0D1F0660FDD
:1057E000771F881F991F1AF0BA95C9F712C0B130F8
:1057F00081F001D1B1E00895FEC0672F782F88278E
:10580000B85F39F0B93FCCF3869577956795B39536
:10581000D9F73EF490958095709561957F4F8F4FA5
:105820009F4F0895E89409C097FB3EF490958095AA
:10583000709561957F4F8F4F9F4F9923A9F0F92F56
:1058400096E9BB279395F695879577956795B795D4
:10585000F111F8CFFAF4BB0F11F460FF1BC06F5FBA
:105860007F4F8F4F9F4F16C0882311F096E911C0CC
:10587000772321F09EE8872F762F05C0662371F0ED
:1058800096E8862F70E060E02AF09A95660F771F01
:10589000881FDAF7880F9695879597F90895E89409
:1058A000F92F96EBFF2381F0121613061406440B12
:1058B0009395F69587957795679557954040FF2383
:1058C000B9F71BC099270895882351F49850D2F74F
:1058D000872B762F652F542F432F322F20E0B1F3E3
:1058E000121613061406440B88233AF09A95440FB7
:1058F000551F661F771F881FCAF755234AF4440FA8
:10590000551F11F460FF04C06F5F7F4F8F4F9F4F93
:10591000880F9695879597F90895990F0008550F68
:10592000AA0BE0E8FEEF16161706E807F907C0F025
:1059300012161306E407F50798F0621B730B840B2D
:10594000950B39F40A2661F0232B242B252B21F407
:1059500008950A2609F4A140A6958FEF811D811DA7
:10596000089597F99F6780E870E060E008959FEFE1
:1059700080EC089500240A941616170618060906E6
:10598000089500240A9412161306140605060895B5
:10599000092E0394000C11F4882352F0BB0F40F43D
:1059A000BF2B11F460FF04C06F5F7F4F8F4F9F4F7D
:1059B000089557FD9058440F551F59F05F3F71F0FF
:1059C0004795880F97FB991F61F09F3F79F0879566
:1059D0000895121613061406551FF2CF4695F1DFEF
:1059E00008C0161617061806991FF1CF869571057F
:1059F000610508940895E894BB2766277727CB01B3
:105A000097F908950BD0C4CFB5DF28F0BADF18F0AE
:105A1000952309F0A6CFABCF1124EECFCADFA0F3B8
:105A2000959FD1F3950F50E0551F629FF001729F33
:105A3000BB27F00DB11D639FAA27F00DB11DAA1F52
:105A4000649F6627B00DA11D661F829F2227B00D9F
:105A5000A11D621F739FB00DA11D621F839FA00D2A
:105A6000611D221F749F3327A00D611D231F849F7A
:105A7000600D211D822F762F6A2F11249F575040D1
:105A80008AF0E1F088234AF0EE0FFF1FBB1F661F6C
:105A9000771F881F91505040A9F79E3F510570F025
:105AA00060CFAACF5F3FECF3983EDCF38695779505
:105AB0006795B795F795E7959F5FC1F7FE2B880F20
:105AC000911D9695879597F908957BDFE0F09E37B5
:105AD000D8F09639B8F49E3848F4672F782F882785
